{
  "abi": [
    {
      "inputs": [
        {
          "internalType": "address",
          "name": "_factory",
          "type": "address"
        },
        {
          "internalType": "address",
          "name": "_WETH",
          "type": "address"
        }
      ],
      "stateMutability": "nonpayable",
      "type": "constructor"
    },
    {
      "inputs": [],
      "name": "WETH",
      "outputs": [
        {
          "internalType": "address",
          "name": "",
          "type": "address"
        }
      ],
      "stateMutability": "view",
      "type": "function"
    },
    {
      "inputs": [
        {
          "internalType": "address",
          "name": "tokenA",
          "type": "address"
        },
        {
          "internalType": "address",
          "name": "tokenB",
          "type": "address"
        },
        {
          "internalType": "uint256",
          "name": "amountADesired",
          "type": "uint256"
        },
        {
          "internalType": "uint256",
          "name": "amountBDesired",
          "type": "uint256"
        },
        {
          "internalType": "uint256",
          "name": "amountAMin",
          "type": "uint256"
        },
        {
          "internalType": "uint256",
          "name": "amountBMin",
          "type": "uint256"
        },
        {
          "internalType": "address",
          "name": "to",
          "type": "address"
        },
        {
          "internalType": "uint256",
          "name": "deadline",
          "type": "uint256"
        }
      ],
      "name": "addLiquidity",
      "outputs": [
        {
          "internalType": "uint256",
          "name": "amountA",
          "type": "uint256"
        },
        {
          "internalType": "uint256",
          "name": "amountB",
          "type": "uint256"
        },
        {
          "internalType": "uint256",
          "name": "liquidity",
          "type": "uint256"
        }
      ],
      "stateMutability": "nonpayable",
      "type": "function"
    },
    {
      "inputs": [
        {
          "internalType": "address",
          "name": "token",
          "type": "address"
        },
        {
          "internalType": "uint256",
          "name": "amountTokenDesired",
          "type": "uint256"
        },
        {
          "internalType": "uint256",
          "name": "amountTokenMin",
          "type": "uint256"
        },
        {
          "internalType": "uint256",
          "name": "amountETHMin",
          "type": "uint256"
        },
        {
          "internalType": "address",
          "name": "to",
          "type": "address"
        },
        {
          "internalType": "uint256",
          "name": "deadline",
          "type": "uint256"
        }
      ],
      "name": "addLiquidityETH",
      "outputs": [
        {
          "internalType": "uint256",
          "name": "amountToken",
          "type": "uint256"
        },
        {
          "internalType": "uint256",
          "name": "amountETH",
          "type": "uint256"
        },
        {
          "internalType": "uint256",
          "name": "liquidity",
          "type": "uint256"
        }
      ],
      "stateMutability": "payable",
      "type": "function"
    },
    {
      "inputs": [],
      "name": "factory",
      "outputs": [
        {
          "internalType": "address",
          "name": "",
          "type": "address"
        }
      ],
      "stateMutability": "view",
      "type": "function"
    },
    {
      "inputs": [
        {
          "internalType": "uint256",
          "name": "amountOut",
          "type": "uint256"
        },
        {
          "internalType": "uint256",
          "name": "reserveIn",
          "type": "uint256"
        },
        {
          "internalType": "uint256",
          "name": "reserveOut",
          "type": "uint256"
        }
      ],
      "name": "getAmountIn",
      "outputs": [
        {
          "internalType": "uint256",
          "name": "amountIn",
          "type": "uint256"
        }
      ],
      "stateMutability": "pure",
      "type": "function"
    },
    {
      "inputs": [
        {
          "internalType": "uint256",
          "name": "amountIn",
          "type": "uint256"
        },
        {
          "internalType": "uint256",
          "name": "reserveIn",
          "type": "uint256"
        },
        {
          "internalType": "uint256",
          "name": "reserveOut",
          "type": "uint256"
        }
      ],
      "name": "getAmountOut",
      "outputs": [
        {
          "internalType": "uint256",
          "name": "amountOut",
          "type": "uint256"
        }
      ],
      "stateMutability": "pure",
      "type": "function"
    },
    {
      "inputs": [
        {
          "internalType": "uint256",
          "name": "amountOut",
          "type": "uint256"
        },
        {
          "internalType": "address[]",
          "name": "path",
          "type": "address[]"
        }
      ],
      "name": "getAmountsIn",
      "outputs": [
        {
          "internalType": "uint256[]",
          "name": "amounts",
          "type": "uint256[]"
        }
      ],
      "stateMutability": "view",
      "type": "function"
    },
    {
      "inputs": [
        {
          "internalType": "uint256",
          "name": "amountIn",
          "type": "uint256"
        },
        {
          "internalType": "address[]",
          "name": "path",
          "type": "address[]"
        }
      ],
      "name": "getAmountsOut",
      "outputs": [
        {
          "internalType": "uint256[]",
          "name": "amounts",
          "type": "uint256[]"
        }
      ],
      "stateMutability": "view",
      "type": "function"
    },
    {
      "inputs": [
        {
          "internalType": "uint256",
          "name": "amountA",
          "type": "uint256"
        },
        {
          "internalType": "uint256",
          "name": "reserveA",
          "type": "uint256"
        },
        {
          "internalType": "uint256",
          "name": "reserveB",
          "type": "uint256"
        }
      ],
      "name": "quote",
      "outputs": [
        {
          "internalType": "uint256",
          "name": "amountB",
          "type": "uint256"
        }
      ],
      "stateMutability": "pure",
      "type": "function"
    },
    {
      "inputs": [
        {
          "internalType": "address",
          "name": "tokenA",
          "type": "address"
        },
        {
          "internalType": "address",
          "name": "tokenB",
          "type": "address"
        },
        {
          "internalType": "uint256",
          "name": "liquidity",
          "type": "uint256"
        },
        {
          "internalType": "uint256",
          "name": "amountAMin",
          "type": "uint256"
        },
        {
          "internalType": "uint256",
          "name": "amountBMin",
          "type": "uint256"
        },
        {
          "internalType": "address",
          "name": "to",
          "type": "address"
        },
        {
          "internalType": "uint256",
          "name": "deadline",
          "type": "uint256"
        }
      ],
      "name": "removeLiquidity",
      "outputs": [
        {
          "internalType": "uint256",
          "name": "amountA",
          "type": "uint256"
        },
        {
          "internalType": "uint256",
          "name": "amountB",
          "type": "uint256"
        }
      ],
      "stateMutability": "nonpayable",
      "type": "function"
    },
    {
      "inputs": [
        {
          "internalType": "address",
          "name": "token",
          "type": "address"
        },
        {
          "internalType": "uint256",
          "name": "liquidity",
          "type": "uint256"
        },
        {
          "internalType": "uint256",
          "name": "amountTokenMin",
          "type": "uint256"
        },
        {
          "internalType": "uint256",
          "name": "amountETHMin",
          "type": "uint256"
        },
        {
          "internalType": "address",
          "name": "to",
          "type": "address"
        },
        {
          "internalType": "uint256",
          "name": "deadline",
          "type": "uint256"
        }
      ],
      "name": "removeLiquidityETH",
      "outputs": [
        {
          "internalType": "uint256",
          "name": "amountToken",
          "type": "uint256"
        },
        {
          "internalType": "uint256",
          "name": "amountETH",
          "type": "uint256"
        }
      ],
      "stateMutability": "nonpayable",
      "type": "function"
    },
    {
      "inputs": [
        {
          "internalType": "address",
          "name": "token",
          "type": "address"
        },
        {
          "internalType": "uint256",
          "name": "liquidity",
          "type": "uint256"
        },
        {
          "internalType": "uint256",
          "name": "amountTokenMin",
          "type": "uint256"
        },
        {
          "internalType": "uint256",
          "name": "amountETHMin",
          "type": "uint256"
        },
        {
          "internalType": "address",
          "name": "to",
          "type": "address"
        },
        {
          "internalType": "uint256",
          "name": "deadline",
          "type": "uint256"
        }
      ],
      "name": "removeLiquidityETHSupportingFeeOnTransferTokens",
      "outputs": [
        {
          "internalType": "uint256",
          "name": "amountETH",
          "type": "uint256"
        }
      ],
      "stateMutability": "nonpayable",
      "type": "function"
    },
    {
      "inputs": [
        {
          "internalType": "uint256",
          "name": "amountOut",
          "type": "uint256"
        },
        {
          "internalType": "address[]",
          "name": "path",
          "type": "address[]"
        },
        {
          "internalType": "address",
          "name": "to",
          "type": "address"
        },
        {
          "internalType": "uint256",
          "name": "deadline",
          "type": "uint256"
        }
      ],
      "name": "swapETHForExactTokens",
      "outputs": [
        {
          "internalType": "uint256[]",
          "name": "amounts",
          "type": "uint256[]"
        }
      ],
      "stateMutability": "payable",
      "type": "function"
    },
    {
      "inputs": [
        {
          "internalType": "uint256",
          "name": "amountOutMin",
          "type": "uint256"
        },
        {
          "internalType": "address[]",
          "name": "path",
          "type": "address[]"
        },
        {
          "internalType": "address",
          "name": "to",
          "type": "address"
        },
        {
          "internalType": "uint256",
          "name": "deadline",
          "type": "uint256"
        }
      ],
      "name": "swapExactETHForTokens",
      "outputs": [
        {
          "internalType": "uint256[]",
          "name": "amounts",
          "type": "uint256[]"
        }
      ],
      "stateMutability": "payable",
      "type": "function"
    },
    {
      "inputs": [
        {
          "internalType": "uint256",
          "name": "amountOutMin",
          "type": "uint256"
        },
        {
          "internalType": "address[]",
          "name": "path",
          "type": "address[]"
        },
        {
          "internalType": "address",
          "name": "to",
          "type": "address"
        },
        {
          "internalType": "uint256",
          "name": "deadline",
          "type": "uint256"
        }
      ],
      "name": "swapExactETHForTokensSupportingFeeOnTransferTokens",
      "outputs": [],
      "stateMutability": "payable",
      "type": "function"
    },
    {
      "inputs": [
        {
          "internalType": "uint256",
          "name": "amountIn",
          "type": "uint256"
        },
        {
          "internalType": "uint256",
          "name": "amountOutMin",
          "type": "uint256"
        },
        {
          "internalType": "address[]",
          "name": "path",
          "type": "address[]"
        },
        {
          "internalType": "address",
          "name": "to",
          "type": "address"
        },
        {
          "internalType": "uint256",
          "name": "deadline",
          "type": "uint256"
        }
      ],
      "name": "swapExactTokensForETH",
      "outputs": [
        {
          "internalType": "uint256[]",
          "name": "amounts",
          "type": "uint256[]"
        }
      ],
      "stateMutability": "nonpayable",
      "type": "function"
    },
    {
      "inputs": [
        {
          "internalType": "uint256",
          "name": "amountIn",
          "type": "uint256"
        },
        {
          "internalType": "uint256",
          "name": "amountOutMin",
          "type": "uint256"
        },
        {
          "internalType": "address[]",
          "name": "path",
          "type": "address[]"
        },
        {
          "internalType": "address",
          "name": "to",
          "type": "address"
        },
        {
          "internalType": "uint256",
          "name": "deadline",
          "type": "uint256"
        }
      ],
      "name": "swapExactTokensForETHSupportingFeeOnTransferTokens",
      "outputs": [],
      "stateMutability": "nonpayable",
      "type": "function"
    },
    {
      "inputs": [
        {
          "internalType": "uint256",
          "name": "amountIn",
          "type": "uint256"
        },
        {
          "internalType": "uint256",
          "name": "amountOutMin",
          "type": "uint256"
        },
        {
          "internalType": "address[]",
          "name": "path",
          "type": "address[]"
        },
        {
          "internalType": "address",
          "name": "to",
          "type": "address"
        },
        {
          "internalType": "uint256",
          "name": "deadline",
          "type": "uint256"
        }
      ],
      "name": "swapExactTokensForTokens",
      "outputs": [
        {
          "internalType": "uint256[]",
          "name": "amounts",
          "type": "uint256[]"
        }
      ],
      "stateMutability": "nonpayable",
      "type": "function"
    },
    {
      "inputs": [
        {
          "internalType": "uint256",
          "name": "amountIn",
          "type": "uint256"
        },
        {
          "internalType": "uint256",
          "name": "amountOutMin",
          "type": "uint256"
        },
        {
          "internalType": "address[]",
          "name": "path",
          "type": "address[]"
        },
        {
          "internalType": "address",
          "name": "to",
          "type": "address"
        },
        {
          "internalType": "uint256",
          "name": "deadline",
          "type": "uint256"
        }
      ],
      "name": "swapExactTokensForTokensSupportingFeeOnTransferTokens",
      "outputs": [],
      "stateMutability": "nonpayable",
      "type": "function"
    },
    {
      "inputs": [
        {
          "internalType": "uint256",
          "name": "amountOut",
          "type": "uint256"
        },
        {
          "internalType": "uint256",
          "name": "amountInMax",
          "type": "uint256"
        },
        {
          "internalType": "address[]",
          "name": "path",
          "type": "address[]"
        },
        {
          "internalType": "address",
          "name": "to",
          "type": "address"
        },
        {
          "internalType": "uint256",
          "name": "deadline",
          "type": "uint256"
        }
      ],
      "name": "swapTokensForExactETH",
      "outputs": [
        {
          "internalType": "uint256[]",
          "name": "amounts",
          "type": "uint256[]"
        }
      ],
      "stateMutability": "nonpayable",
      "type": "function"
    },
    {
      "inputs": [
        {
          "internalType": "uint256",
          "name": "amountOut",
          "type": "uint256"
        },
        {
          "internalType": "uint256",
          "name": "amountInMax",
          "type": "uint256"
        },
        {
          "internalType": "address[]",
          "name": "path",
          "type": "address[]"
        },
        {
          "internalType": "address",
          "name": "to",
          "type": "address"
        },
        {
          "internalType": "uint256",
          "name": "deadline",
          "type": "uint256"
        }
      ],
      "name": "swapTokensForExactTokens",
      "outputs": [
        {
          "internalType": "uint256[]",
          "name": "amounts",
          "type": "uint256[]"
        }
      ],
      "stateMutability": "nonpayable",
      "type": "function"
    },
    {
      "stateMutability": "payable",
      "type": "receive"
    }
  ],
  "evm": {
    "bytecode": {
      "linkReferences": {},
      "object": "60c060405234801561001057600080fd5b5060405162004211380380620042118339818101604052604081101561003557600080fd5b5080516020909101516001600160601b0319606092831b8116608052911b1660a05260805160601c60a05160601c6140a56200016c6000398061013e5280610b5f5280610b9a5280610c915280610eaf528061113f5280611546528061162152806116fb52806117c9528061190f52806119975280611bd35280611c4e5280611d025280611dce5280611e635280611ed752806125105280612566528061259a528061260e528061279c52806128df5280612967525080610d1f5280610df65280610f755280610fef52806111cd52806112e5528061185c52806119c95280611b235280611f095280612147528061233f528061236852806123f15280612544528061282f5280612999528061321e5280613261528061353b52806136b15280613aa25280613b5b5280613c0e52506140a56000f3fe60806040526004361061012e5760003560e01c80638803dbee116100ab578063baa2abde1161006f578063baa2abde146108a1578063c45a0155146108fe578063d06ca61f14610913578063e8e33700146109c8578063f305d71914610a48578063fb3bdb4114610a8e57610167565b80638803dbee146106cd578063ad5c464814610763578063ad615dec14610794578063af2979eb146107ca578063b6f9de951461081d57610167565b80634a25d94a116100f25780634a25d94a146104515780635c11d795146104e7578063791ac9471461057d5780637ff36ab51461061357806385f8c2591461069757610167565b806302751cec1461016c578063054d50d4146101d857806318cbafe5146102205780631f00ca741461030657806338ed1739146103bb57610167565b3661016757336001600160a01b037f0000000000000000000000000000000000000000000000000000000000000000161461016557fe5b005b600080fd5b34801561017857600080fd5b506101bf600480360360c081101561018f57600080fd5b506001600160a01b0381358116916020810135916040820135916060810135916080820135169060a00135610b12565b6040805192835260208301919091528051918290030190f35b3480156101e457600080fd5b5061020e600480360360608110156101fb57600080fd5b5080359060208101359060400135610c2c565b60408051918252519081900360200190f35b34801561022c57600080fd5b506102b6600480360360a081101561024357600080fd5b813591602081013591810190606081016040820135600160201b81111561026957600080fd5b82018360208201111561027b57600080fd5b803590602001918460208302840111600160201b8311171561029c57600080fd5b91935091506001600160a01b038135169060200135610c41565b60408051602080825283518183015283519192839290830191858101910280838360005b838110156102f25781810151838201526020016102da565b505050509050019250505060405180910390f35b34801561031257600080fd5b506102b66004803603604081101561032957600080fd5b81359190810190604081016020820135600160201b81111561034a57600080fd5b82018360208201111561035c57600080fd5b803590602001918460208302840111600160201b8311171561037d57600080fd5b919080806020026020016040519081016040528093929190818152602001838360200280828437600092019190915250929550610f6e945050505050565b3480156103c757600080fd5b506102b6600480360360a08110156103de57600080fd5b813591602081013591810190606081016040820135600160201b81111561040457600080fd5b82018360208201111561041657600080fd5b803590602001918460208302840111600160201b8311171561043757600080fd5b91935091506001600160a01b038135169060200135610fa4565b34801561045d57600080fd5b506102b6600480360360a081101561047457600080fd5b813591602081013591810190606081016040820135600160201b81111561049a57600080fd5b8201836020820111156104ac57600080fd5b803590602001918460208302840111600160201b831117156104cd57600080fd5b91935091506001600160a01b0381351690602001356110ef565b3480156104f357600080fd5b50610165600480360360a081101561050a57600080fd5b813591602081013591810190606081016040820135600160201b81111561053057600080fd5b82018360208201111561054257600080fd5b803590602001918460208302840111600160201b8311171561056357600080fd5b91935091506001600160a01b03813516906020013561127b565b34801561058957600080fd5b50610165600480360360a08110156105a057600080fd5b813591602081013591810190606081016040820135600160201b8111156105c657600080fd5b8201836020820111156105d857600080fd5b803590602001918460208302840111600160201b831117156105f957600080fd5b91935091506001600160a01b0381351690602001356114f8565b6102b66004803603608081101561062957600080fd5b81359190810190604081016020820135600160201b81111561064a57600080fd5b82018360208201111561065c57600080fd5b803590602001918460208302840111600160201b8311171561067d57600080fd5b91935091506001600160a01b038135169060200135611781565b3480156106a357600080fd5b5061020e600480360360608110156106ba57600080fd5b5080359060208101359060400135611acb565b3480156106d957600080fd5b506102b6600480360360a08110156106f057600080fd5b813591602081013591810190606081016040820135600160201b81111561071657600080fd5b82018360208201111561072857600080fd5b803590602001918460208302840111600160201b8311171561074957600080fd5b91935091506001600160a01b038135169060200135611ad8565b34801561076f57600080fd5b50610778611bd1565b604080516001600160a01b039092168252519081900360200190f35b3480156107a057600080fd5b5061020e600480360360608110156107b757600080fd5b5080359060208101359060400135611bf5565b3480156107d657600080fd5b5061020e600480360360c08110156107ed57600080fd5b506001600160a01b0381358116916020810135916040820135916060810135916080820135169060a00135611c02565b6101656004803603608081101561083357600080fd5b81359190810190604081016020820135600160201b81111561085457600080fd5b82018360208201111561086657600080fd5b803590602001918460208302840111600160201b8311171561088757600080fd5b91935091506001600160a01b038135169060200135611d88565b3480156108ad57600080fd5b506101bf600480360360e08110156108c457600080fd5b506001600160a01b038135811691602081013582169160408201359160608101359160808201359160a08101359091169060c001356120f9565b34801561090a57600080fd5b5061077861233d565b34801561091f57600080fd5b506102b66004803603604081101561093657600080fd5b81359190810190604081016020820135600160201b81111561095757600080fd5b82018360208201111561096957600080fd5b803590602001918460208302840111600160201b8311171561098a57600080fd5b919080806020026020016040519081016040528093929190818152602001838360200280828437600092019190915250929550612361945050505050565b3480156109d457600080fd5b50610a2a60048036036101008110156109ec57600080fd5b506001600160a01b038135811691602081013582169160408201359160608101359160808201359160a08101359160c0820135169060e0013561238e565b60408051938452602084019290925282820152519081900360600190f35b610a2a600480360360c0811015610a5e57600080fd5b506001600160a01b0381358116916020810135916040820135916060810135916080820135169060a001356124c1565b6102b660048036036080811015610aa457600080fd5b81359190810190604081016020820135600160201b811115610ac557600080fd5b820183602082011115610ad757600080fd5b803590602001918460208302840111600160201b83111715610af857600080fd5b91935091506001600160a01b038135169060200135612754565b6000808242811015610b59576040805162461bcd60e51b81526020600482015260156024820152600080516020613e9d833981519152604482015290519081900360640190fd5b610b88897f00000000000000000000000000000000000000000000000000000000000000008a8a8a308a6120f9565b9093509150610b98898685612acd565b7f00000000000000000000000000000000000000000000000000000000000000006001600160a01b0316632e1a7d4d836040518263ffffffff1660e01b815260040180828152602001915050600060405180830381600087803b158015610bfe57600080fd5b505af1158015610c12573d6000803e3d6000fd5b50505050610c208583612c37565b50965096945050505050565b6000610c39848484612d2f565b949350505050565b60608142811015610c87576040805162461bcd60e51b81526020600482015260156024820152600080516020613e9d833981519152604482015290519081900360640190fd5b6001600160a01b037f00000000000000000000000000000000000000000000000000000000000000001686866000198101818110610cc157fe5b905060200201356001600160a01b03166001600160a01b031614610d1a576040805162461bcd60e51b815260206004820152601a6024820152600080516020613ee2833981519152604482015290519081900360640190fd5b610d787f000000000000000000000000000000000000000000000000000000000000000089888880806020026020016040519081016040528093929190818152602001838360200280828437600092019190915250612e0792505050565b91508682600184510381518110610d8b57fe5b60200260200101511015610dd05760405162461bcd60e51b8152600401808060200182810382526028815260200180613fd86028913960400191505060405180910390fd5b610e6e86866000818110610de057fe5b905060200201356001600160a01b031633610e547f00000000000000000000000000000000000000000000000000000000000000008a8a6000818110610e2257fe5b905060200201356001600160a01b03168b8b6001818110610e3f57fe5b905060200201356001600160a01b0316612f53565b85600081518110610e6157fe5b6020026020010151613012565b610ead8287878080602002602001604051908101604052809392919081815260200183836020028082843760009201919091525030925061316f915050565b7f00000000000000000000000000000000000000000000000000000000000000006001600160a01b0316632e1a7d4d83600185510381518110610eec57fe5b60200260200101516040518263ffffffff1660e01b815260040180828152602001915050600060405180830381600087803b158015610f2a57600080fd5b505af1158015610f3e573d6000803e3d6000fd5b50505050610f638483600185510381518110610f5657fe5b6020026020010151612c37565b509695505050505050565b6060610f9b7f000000000000000000000000000000000000000000000000000000000000000084846133ac565b90505b92915050565b60608142811015610fea576040805162461bcd60e51b81526020600482015260156024820152600080516020613e9d833981519152604482015290519081900360640190fd5b6110487f000000000000000000000000000000000000000000000000000000000000000089888880806020026020016040519081016040528093929190818152602001838360200280828437600092019190915250612e0792505050565b9150868260018451038151811061105b57fe5b602002602001015110156110a05760405162461bcd60e51b8152600401808060200182810382526028815260200180613fd86028913960400191505060405180910390fd5b6110b086866000818110610de057fe5b610f638287878080602002602001604051908101604052809392919081815260200183836020028082843760009201919091525089925061316f915050565b60608142811015611135576040805162461bcd60e51b81526020600482015260156024820152600080516020613e9d833981519152604482015290519081900360640190fd5b6001600160a01b037f0000000000000000000000000000000000000000000000000000000000000000168686600019810181811061116f57fe5b905060200201356001600160a01b03166001600160a01b0316146111c8576040805162461bcd60e51b815260206004820152601a6024820152600080516020613ee2833981519152604482015290519081900360640190fd5b6112267f0000000000000000000000000000000000000000000000000000000000000000898888808060200260200160405190810160405280939291908181526020018383602002808284376000920191909152506133ac92505050565b9150868260008151811061123657fe5b60200260200101511115610dd05760405162461bcd60e51b8152600401808060200182810382526024815260200180613f6f6024913960400191505060405180910390fd5b80428110156112bf576040805162461bcd60e51b81526020600482015260156024820152600080516020613e9d833981519152604482015290519081900360640190fd5b611334858560008181106112cf57fe5b905060200201356001600160a01b03163361132e7f00000000000000000000000000000000000000000000000000000000000000008989600081811061131157fe5b905060200201356001600160a01b03168a8a6001818110610e3f57fe5b8a613012565b60008585600019810181811061134657fe5b905060200201356001600160a01b03166001600160a01b03166370a08231856040518263ffffffff1660e01b815260040180826001600160a01b0316815260200191505060206040518083038186803b1580156113a257600080fd5b505afa1580156113b6573d6000803e3d6000fd5b505050506040513d60208110156113cc57600080fd5b5051604080516020888102828101820190935288825292935061140e9290918991899182918501908490808284376000920191909152508892506134e4915050565b866114b1828888600019810181811061142357fe5b905060200201356001600160a01b03166001600160a01b03166370a08231886040518263ffffffff1660e01b815260040180826001600160a01b0316815260200191505060206040518083038186803b15801561147f57600080fd5b505afa158015611493573d6000803e3d6000fd5b505050506040513d60208110156114a957600080fd5b5051906137e6565b10156114ee5760405162461bcd60e51b8152600401808060200182810382526028815260200180613fd86028913960400191505060405180910390fd5b5050505050505050565b804281101561153c576040805162461bcd60e51b81526020600482015260156024820152600080516020613e9d833981519152604482015290519081900360640190fd5b6001600160a01b037f0000000000000000000000000000000000000000000000000000000000000000168585600019810181811061157657fe5b905060200201356001600160a01b03166001600160a01b0316146115cf576040805162461bcd60e51b815260206004820152601a6024820152600080516020613ee2833981519152604482015290519081900360640190fd5b6115df858560008181106112cf57fe5b61161d8585808060200260200160405190810160405280939291908181526020018383602002808284376000920191909152503092506134e4915050565b60007f00000000000000000000000000000000000000000000000000000000000000006001600160a01b03166370a08231306040518263ffffffff1660e01b815260040180826001600160a01b0316815260200191505060206040518083038186803b15801561168c57600080fd5b505afa1580156116a0573d6000803e3d6000fd5b505050506040513d60208110156116b657600080fd5b50519050868110156116f95760405162461bcd60e51b8152600401808060200182810382526028815260200180613fd86028913960400191505060405180910390fd5b7f00000000000000000000000000000000000000000000000000000000000000006001600160a01b0316632e1a7d4d826040518263ffffffff1660e01b815260040180828152602001915050600060405180830381600087803b15801561175f57600080fd5b505af1158015611773573d6000803e3d6000fd5b505050506114ee8482612c37565b606081428110156117c7576040805162461bcd60e51b81526020600482015260156024820152600080516020613e9d833981519152604482015290519081900360640190fd5b7f00000000000000000000000000000000000000000000000000000000000000006001600160a01b0316868660008181106117fe57fe5b905060200201356001600160a01b03166001600160a01b031614611857576040805162461bcd60e51b815260206004820152601a6024820152600080516020613ee2833981519152604482015290519081900360640190fd5b6118b57f000000000000000000000000000000000000000000000000000000000000000034888880806020026020016040519081016040528093929190818152602001838360200280828437600092019190915250612e0792505050565b915086826001845103815181106118c857fe5b6020026020010151101561190d5760405162461bcd60e51b8152600401808060200182810382526028815260200180613fd86028913960400191505060405180910390fd5b7f00000000000000000000000000000000000000000000000000000000000000006001600160a01b031663d0e30db08360008151811061194957fe5b60200260200101516040518263ffffffff1660e01b81526004016000604051808303818588803b15801561197c57600080fd5b505af1158015611990573d6000803e3d6000fd5b50505050507f00000000000000000000000000000000000000000000000000000000000000006001600160a01b031663a9059cbb6119f57f00000000000000000000000000000000000000000000000000000000000000008989600081811061131157fe5b84600081518110611a0257fe5b60200260200101516040518363ffffffff1660e01b815260040180836001600160a01b0316815260200182815260200192505050602060405180830381600087803b158015611a5057600080fd5b505af1158015611a64573d6000803e3d6000fd5b505050506040513d6020811015611a7a57600080fd5b5051611a8257fe5b611ac18287878080602002602001604051908101604052809392919081815260200183836020028082843760009201919091525089925061316f915050565b5095945050505050565b6000610c39848484613836565b60608142811015611b1e576040805162461bcd60e51b81526020600482015260156024820152600080516020613e9d833981519152604482015290519081900360640190fd5b611b7c7f0000000000000000000000000000000000000000000000000000000000000000898888808060200260200160405190810160405280939291908181526020018383602002808284376000920191909152506133ac92505050565b91508682600081518110611b8c57fe5b602002602001015111156110a05760405162461bcd60e51b8152600401808060200182810382526024815260200180613f6f6024913960400191505060405180910390fd5b7f000000000000000000000000000000000000000000000000000000000000000081565b6000610c3984848461390e565b60008142811015611c48576040805162461bcd60e51b81526020600482015260156024820152600080516020613e9d833981519152604482015290519081900360640190fd5b611c77887f000000000000000000000000000000000000000000000000000000000000000089898930896120f9565b905080925050611d0088858a6001600160a01b03166370a08231306040518263ffffffff1660e01b815260040180826001600160a01b0316815260200191505060206040518083038186803b158015611ccf57600080fd5b505afa158015611ce3573d6000803e3d6000fd5b505050506040513d6020811015611cf957600080fd5b5051612acd565b7f00000000000000000000000000000000000000000000000000000000000000006001600160a01b0316632e1a7d4d836040518263ffffffff1660e01b815260040180828152602001915050600060405180830381600087803b158015611d6657600080fd5b505af1158015611d7a573d6000803e3d6000fd5b50505050610f638483612c37565b8042811015611dcc576040805162461bcd60e51b81526020600482015260156024820152600080516020613e9d833981519152604482015290519081900360640190fd5b7f00000000000000000000000000000000000000000000000000000000000000006001600160a01b031685856000818110611e0357fe5b905060200201356001600160a01b03166001600160a01b031614611e5c576040805162461bcd60e51b815260206004820152601a6024820152600080516020613ee2833981519152604482015290519081900360640190fd5b60003490507f00000000000000000000000000000000000000000000000000000000000000006001600160a01b031663d0e30db0826040518263ffffffff1660e01b81526004016000604051808303818588803b158015611ebc57600080fd5b505af1158015611ed0573d6000803e3d6000fd5b50505050507f00000000000000000000000000000000000000000000000000000000000000006001600160a01b031663a9059cbb611f357f00000000000000000000000000000000000000000000000000000000000000008989600081811061131157fe5b836040518363ffffffff1660e01b815260040180836001600160a01b0316815260200182815260200192505050602060405180830381600087803b158015611f7c57600080fd5b505af1158015611f90573d6000803e3d6000fd5b505050506040513d6020811015611fa657600080fd5b5051611fae57fe5b600086866000198101818110611fc057fe5b905060200201356001600160a01b03166001600160a01b03166370a08231866040518263ffffffff1660e01b815260040180826001600160a01b0316815260200191505060206040518083038186803b15801561201c57600080fd5b505afa158015612030573d6000803e3d6000fd5b505050506040513d602081101561204657600080fd5b505160408051602089810282810182019093528982529293506120889290918a918a9182918501908490808284376000920191909152508992506134e4915050565b876114b1828989600019810181811061209d57fe5b905060200201356001600160a01b03166001600160a01b03166370a08231896040518263ffffffff1660e01b815260040180826001600160a01b0316815260200191505060206040518083038186803b15801561147f57600080fd5b6000808242811015612140576040805162461bcd60e51b81526020600482015260156024820152600080516020613e9d833981519152604482015290519081900360640190fd5b600061216d7f00000000000000000000000000000000000000000000000000000000000000008c8c612f53565b604080516323b872dd60e01b81523360048201526001600160a01b03831660248201819052604482018d9052915192935090916323b872dd916064808201926020929091908290030181600087803b1580156121c857600080fd5b505af11580156121dc573d6000803e3d6000fd5b505050506040513d60208110156121f257600080fd5b50506040805163226bf2d160e21b81526001600160a01b03888116600483015282516000938493928616926389afcb44926024808301939282900301818787803b15801561223f57600080fd5b505af1158015612253573d6000803e3d6000fd5b505050506040513d604081101561226957600080fd5b508051602090910151909250905060006122838e8e6139b4565b509050806001600160a01b03168e6001600160a01b0316146122a65781836122a9565b82825b90975095508a8710156122ed5760405162461bcd60e51b81526004018080602001828103825260238152602001806140006023913960400191505060405180910390fd5b8986101561232c5760405162461bcd60e51b8152600401808060200182810382526023815260200180613f246023913960400191505060405180910390fd5b505050505097509795505050505050565b7f000000000000000000000000000000000000000000000000000000000000000081565b6060610f9b7f00000000000000000000000000000000000000000000000000000000000000008484612e07565b600080600083428110156123d7576040805162461bcd60e51b81526020600482015260156024820152600080516020613e9d833981519152604482015290519081900360640190fd5b6123e58c8c8c8c8c8c613a92565b909450925060006124177f00000000000000000000000000000000000000000000000000000000000000008e8e612f53565b90506124258d338388613012565b6124318c338387613012565b806001600160a01b0316636a627842886040518263ffffffff1660e01b815260040180826001600160a01b03168152602001915050602060405180830381600087803b15801561248057600080fd5b505af1158015612494573d6000803e3d6000fd5b505050506040513d60208110156124aa57600080fd5b5051949d939c50939a509198505050505050505050565b6000806000834281101561250a576040805162461bcd60e51b81526020600482015260156024820152600080516020613e9d833981519152604482015290519081900360640190fd5b6125388a7f00000000000000000000000000000000000000000000000000000000000000008b348c8c613a92565b9094509250600061258a7f00000000000000000000000000000000000000000000000000000000000000008c7f0000000000000000000000000000000000000000000000000000000000000000612f53565b90506125988b338388613012565b7f00000000000000000000000000000000000000000000000000000000000000006001600160a01b031663d0e30db0856040518263ffffffff1660e01b81526004016000604051808303818588803b1580156125f357600080fd5b505af1158015612607573d6000803e3d6000fd5b50505050507f00000000000000000000000000000000000000000000000000000000000000006001600160a01b031663a9059cbb82866040518363ffffffff1660e01b815260040180836001600160a01b0316815260200182815260200192505050602060405180830381600087803b15801561268357600080fd5b505af1158015612697573d6000803e3d6000fd5b505050506040513d60208110156126ad57600080fd5b50516126b557fe5b806001600160a01b0316636a627842886040518263ffffffff1660e01b815260040180826001600160a01b03168152602001915050602060405180830381600087803b15801561270457600080fd5b505af1158015612718573d6000803e3d6000fd5b505050506040513d602081101561272e57600080fd5b50519250348410156127465761274633853403612c37565b505096509650969350505050565b6060814281101561279a576040805162461bcd60e51b81526020600482015260156024820152600080516020613e9d833981519152604482015290519081900360640190fd5b7f00000000000000000000000000000000000000000000000000000000000000006001600160a01b0316868660008181106127d157fe5b905060200201356001600160a01b03166001600160a01b03161461282a576040805162461bcd60e51b815260206004820152601a6024820152600080516020613ee2833981519152604482015290519081900360640190fd5b6128887f0000000000000000000000000000000000000000000000000000000000000000888888808060200260200160405190810160405280939291908181526020018383602002808284376000920191909152506133ac92505050565b9150348260008151811061289857fe5b602002602001015111156128dd5760405162461bcd60e51b8152600401808060200182810382526024815260200180613f6f6024913960400191505060405180910390fd5b7f00000000000000000000000000000000000000000000000000000000000000006001600160a01b031663d0e30db08360008151811061291957fe5b60200260200101516040518263ffffffff1660e01b81526004016000604051808303818588803b15801561294c57600080fd5b505af1158015612960573d6000803e3d6000fd5b50505050507f00000000000000000000000000000000000000000000000000000000000000006001600160a01b031663a9059cbb6129c57f00000000000000000000000000000000000000000000000000000000000000008989600081811061131157fe5b846000815181106129d257fe5b60200260200101516040518363ffffffff1660e01b815260040180836001600160a01b0316815260200182815260200192505050602060405180830381600087803b158015612a2057600080fd5b505af1158015612a34573d6000803e3d6000fd5b505050506040513d6020811015612a4a57600080fd5b5051612a5257fe5b612a918287878080602002602001604051908101604052809392919081815260200183836020028082843760009201919091525089925061316f915050565b81600081518110612a9e57fe5b6020026020010151341115611ac157611ac13383600081518110612abe57fe5b60200260200101513403612c37565b604080516001600160a01b038481166024830152604480830185905283518084039091018152606490920183526020820180516001600160e01b031663a9059cbb60e01b178152925182516000946060949389169392918291908083835b60208310612b4a5780518252601f199092019160209182019101612b2b565b6001836020036101000a0380198251168184511680821785525050505050509050019150506000604051808303816000865af19150503d8060008114612bac576040519150601f19603f3d011682016040523d82523d6000602084013e612bb1565b606091505b5091509150818015612bdf575080511580612bdf5750808060200190516020811015612bdc57600080fd5b50515b612c30576040805162461bcd60e51b815260206004820152601f60248201527f5472616e7366657248656c7065723a205452414e534645525f4641494c454400604482015290519081900360640190fd5b5050505050565b604080516000808252602082019092526001600160a01b0384169083906040518082805190602001908083835b60208310612c835780518252601f199092019160209182019101612c64565b6001836020036101000a03801982511681845116808217855250505050505090500191505060006040518083038185875af1925050503d8060008114612ce5576040519150601f19603f3d011682016040523d82523d6000602084013e612cea565b606091505b5050905080612d2a5760405162461bcd60e51b8152600401808060200182810382526023815260200180613fb56023913960400191505060405180910390fd5b505050565b6000808411612d6f5760405162461bcd60e51b8152600401808060200182810382526028815260200180613f476028913960400191505060405180910390fd5b600083118015612d7f5750600082115b612dba5760405162461bcd60e51b8152600401808060200182810382526025815260200180613ebd6025913960400191505060405180910390fd5b6000612dc8856103e5613d23565b90506000612dd68285613d23565b90506000612df083612dea886103e8613d23565b90613d86565b9050808281612dfb57fe5b04979650505050505050565b6060600282511015612e60576040805162461bcd60e51b815260206004820152601b60248201527f4d696d6f56324c6962726172793a20494e56414c49445f504154480000000000604482015290519081900360640190fd5b815167ffffffffffffffff81118015612e7857600080fd5b50604051908082528060200260200182016040528015612ea2578160200160208202803683370190505b5090508281600081518110612eb357fe5b60200260200101818152505060005b6001835103811015612f4b57600080612f0587868581518110612ee157fe5b6020026020010151878660010181518110612ef857fe5b6020026020010151613dd5565b91509150612f27848481518110612f1857fe5b60200260200101518383612d2f565b848460010181518110612f3657fe5b60209081029190910101525050600101612ec2565b509392505050565b6000806000612f6285856139b4565b604080516bffffffffffffffffffffffff19606094851b811660208084019190915293851b81166034830152825160288184030181526048830184528051908501206001600160f81b031960688401529a90941b9093166069840152607d8301989098527ed8258f07455ccf2a627e421c1b67a5235293aa73a2d17be60109e9200cb37f609d808401919091528851808403909101815260bd909201909752805196019590952095945050505050565b604080516001600160a01b0385811660248301528481166044830152606480830185905283518084039091018152608490920183526020820180516001600160e01b03166323b872dd60e01b17815292518251600094606094938a169392918291908083835b602083106130975780518252601f199092019160209182019101613078565b6001836020036101000a0380198251168184511680821785525050505050509050019150506000604051808303816000865af19150503d80600081146130f9576040519150601f19603f3d011682016040523d82523d6000602084013e6130fe565b606091505b509150915081801561312c57508051158061312c575080806020019051602081101561312957600080fd5b50515b6131675760405162461bcd60e51b81526004018080602001828103825260248152602001806140236024913960400191505060405180910390fd5b505050505050565b60005b60018351038110156133a65760008084838151811061318d57fe5b60200260200101518584600101815181106131a457fe5b60200260200101519150915060006131bc83836139b4565b50905060008785600101815181106131d057fe5b60200260200101519050600080836001600160a01b0316866001600160a01b0316146131fe57826000613202565b6000835b91509150600060028a51038810613219578861325a565b61325a7f0000000000000000000000000000000000000000000000000000000000000000878c8b6002018151811061324d57fe5b6020026020010151612f53565b90506132877f00000000000000000000000000000000000000000000000000000000000000008888612f53565b6001600160a01b031663022c0d9f84848460006040519080825280601f01601f1916602001820160405280156132c4576020820181803683370190505b506040518563ffffffff1660e01b815260040180858152602001848152602001836001600160a01b0316815260200180602001828103825283818151815260200191508051906020019080838360005b8381101561332c578181015183820152602001613314565b50505050905090810190601f1680156133595780820380516001836020036101000a031916815260200191505b5095505050505050600060405180830381600087803b15801561337b57600080fd5b505af115801561338f573d6000803e3d6000fd5b505060019099019850613172975050505050505050565b50505050565b6060600282511015613405576040805162461bcd60e51b815260206004820152601b60248201527f4d696d6f56324c6962726172793a20494e56414c49445f504154480000000000604482015290519081900360640190fd5b815167ffffffffffffffff8111801561341d57600080fd5b50604051908082528060200260200182016040528015613447578160200160208202803683370190505b509050828160018351038151811061345b57fe5b60209081029190910101528151600019015b8015612f4b5760008061349d8786600186038151811061348957fe5b6020026020010151878681518110612ef857fe5b915091506134bf8484815181106134b057fe5b60200260200101518383613836565b8460018503815181106134ce57fe5b602090810291909101015250506000190161346d565b60005b6001835103811015612d2a5760008084838151811061350257fe5b602002602001015185846001018151811061351957fe5b602002602001015191509150600061353183836139b4565b50905060006135617f00000000000000000000000000000000000000000000000000000000000000008585612f53565b9050600080600080846001600160a01b0316630902f1ac6040518163ffffffff1660e01b815260040160606040518083038186803b1580156135a257600080fd5b505afa1580156135b6573d6000803e3d6000fd5b505050506040513d60608110156135cc57600080fd5b5080516020909101516001600160701b0391821693501690506000806001600160a01b038a811690891614613602578284613605565b83835b9150915061365a828b6001600160a01b03166370a082318a6040518263ffffffff1660e01b815260040180826001600160a01b0316815260200191505060206040518083038186803b15801561147f57600080fd5b9550613667868383612d2f565b945050505050600080856001600160a01b0316886001600160a01b03161461369157826000613695565b6000835b91509150600060028c51038a106136ac578a6136e0565b6136e07f0000000000000000000000000000000000000000000000000000000000000000898e8d6002018151811061324d57fe5b604080516000808252602082019283905263022c0d9f60e01b835260248201878152604483018790526001600160a01b038086166064850152608060848501908152845160a48601819052969750908c169563022c0d9f958a958a958a9591949193919260c486019290918190849084905b8381101561376a578181015183820152602001613752565b50505050905090810190601f1680156137975780820380516001836020036101000a031916815260200191505b5095505050505050600060405180830381600087803b1580156137b957600080fd5b505af11580156137cd573d6000803e3d6000fd5b50506001909b019a506134e79950505050505050505050565b80820382811115610f9e576040805162461bcd60e51b815260206004820152601560248201527464732d6d6174682d7375622d756e646572666c6f7760581b604482015290519081900360640190fd5b60008084116138765760405162461bcd60e51b81526004018080602001828103825260298152602001806140476029913960400191505060405180910390fd5b6000831180156138865750600082115b6138c15760405162461bcd60e51b8152600401808060200182810382526025815260200180613ebd6025913960400191505060405180910390fd5b60006138d96103e86138d38688613d23565b90613d23565b905060006138ed6103e56138d386896137e6565b905061390460018284816138fd57fe5b0490613d86565b9695505050505050565b600080841161394e5760405162461bcd60e51b8152600401808060200182810382526022815260200180613f026022913960400191505060405180910390fd5b60008311801561395e5750600082115b6139995760405162461bcd60e51b8152600401808060200182810382526025815260200180613ebd6025913960400191505060405180910390fd5b826139a48584613d23565b816139ab57fe5b04949350505050565b600080826001600160a01b0316846001600160a01b03161415613a085760405162461bcd60e51b8152600401808060200182810382526022815260200180613f936022913960400191505060405180910390fd5b826001600160a01b0316846001600160a01b031610613a28578284613a2b565b83835b90925090506001600160a01b038216613a8b576040805162461bcd60e51b815260206004820152601b60248201527f4d696d6f56324c6962726172793a205a45524f5f414444524553530000000000604482015290519081900360640190fd5b9250929050565b60008060006001600160a01b03167f00000000000000000000000000000000000000000000000000000000000000006001600160a01b031663e6a439058a8a6040518363ffffffff1660e01b815260040180836001600160a01b03168152602001826001600160a01b031681526020019250505060206040518083038186803b158015613b1e57600080fd5b505afa158015613b32573d6000803e3d6000fd5b505050506040513d6020811015613b4857600080fd5b50516001600160a01b03161415613c06577f00000000000000000000000000000000000000000000000000000000000000006001600160a01b031663c9c6539689896040518363ffffffff1660e01b815260040180836001600160a01b03168152602001826001600160a01b0316815260200192505050602060405180830381600087803b158015613bd957600080fd5b505af1158015613bed573d6000803e3d6000fd5b505050506040513d6020811015613c0357600080fd5b50505b600080613c347f00000000000000000000000000000000000000000000000000000000000000008b8b613dd5565b91509150816000148015613c46575080155b15613c5657879350869250613d16565b6000613c6389848461390e565b9050878111613cb65785811015613cab5760405162461bcd60e51b8152600401808060200182810382526023815260200180613f246023913960400191505060405180910390fd5b889450925082613d14565b6000613cc389848661390e565b905089811115613ccf57fe5b87811015613d0e5760405162461bcd60e51b81526004018080602001828103825260238152602001806140006023913960400191505060405180910390fd5b94508793505b505b5050965096945050505050565b6000811580613d3e57505080820282828281613d3b57fe5b04145b610f9e576040805162461bcd60e51b815260206004820152601460248201527364732d6d6174682d6d756c2d6f766572666c6f7760601b604482015290519081900360640190fd5b80820182811015610f9e576040805162461bcd60e51b815260206004820152601460248201527364732d6d6174682d6164642d6f766572666c6f7760601b604482015290519081900360640190fd5b6000806000613de485856139b4565b509050600080613df5888888612f53565b6001600160a01b0316630902f1ac6040518163ffffffff1660e01b815260040160606040518083038186803b158015613e2d57600080fd5b505afa158015613e41573d6000803e3d6000fd5b505050506040513d6060811015613e5757600080fd5b5080516020909101516001600160701b0391821693501690506001600160a01b0387811690841614613e8a578082613e8d565b81815b9099909850965050505050505056fe4d696d6f5632526f757465723a204558504952454400000000000000000000004d696d6f56324c6962726172793a20494e53554646494349454e545f4c49515549444954594d696d6f5632526f757465723a20494e56414c49445f504154480000000000004d696d6f56324c6962726172793a20494e53554646494349454e545f414d4f554e544d696d6f5632526f757465723a20494e53554646494349454e545f425f414d4f554e544d696d6f56324c6962726172793a20494e53554646494349454e545f494e5055545f414d4f554e544d696d6f5632526f757465723a204558434553534956455f494e5055545f414d4f554e544d696d6f56324c6962726172793a204944454e544943414c5f4144445245535345535472616e7366657248656c7065723a204554485f5452414e534645525f4641494c45444d696d6f5632526f757465723a20494e53554646494349454e545f4f55545055545f414d4f554e544d696d6f5632526f757465723a20494e53554646494349454e545f415f414d4f554e545472616e7366657248656c7065723a205452414e534645525f46524f4d5f4641494c45444d696d6f56324c6962726172793a20494e53554646494349454e545f4f55545055545f414d4f554e54a2646970667358221220828a331a14af490f497927f3d3886726d91a0fd99020aa94d43ab7c57de5719264736f6c634300060c0033",
      "opcodes": "PUSH1 0xC0 PUSH1 0x40 MSTORE CALLVALUE DUP1 ISZERO PUSH2 0x10 JUMPI PUSH1 0x0 DUP1 REVERT JUMPDEST POP PUSH1 0x40 MLOAD PUSH3 0x4211 CODESIZE SUB DUP1 PUSH3 0x4211 DUP4 CODECOPY DUP2 DUP2 ADD PUSH1 0x40 MSTORE PUSH1 0x40 DUP2 LT ISZERO PUSH2 0x35 JUMPI PUSH1 0x0 DUP1 REVERT JUMPDEST POP DUP1 MLOAD PUSH1 0x20 SWAP1 SWAP2 ADD MLOAD PUSH1 0x1 PUSH1 0x1 PUSH1 0x60 SHL SUB NOT PUSH1 0x60 SWAP3 DUP4 SHL DUP2 AND PUSH1 0x80 MSTORE SWAP2 SHL AND PUSH1 0xA0 MSTORE PUSH1 0x80 MLOAD PUSH1 0x60 SHR PUSH1 0xA0 MLOAD PUSH1 0x60 SHR PUSH2 0x40A5 PUSH3 0x16C PUSH1 0x0 CODECOPY DUP1 PUSH2 0x13E MSTORE DUP1 PUSH2 0xB5F MSTORE DUP1 PUSH2 0xB9A MSTORE DUP1 PUSH2 0xC91 MSTORE DUP1 PUSH2 0xEAF MSTORE DUP1 PUSH2 0x113F MSTORE DUP1 PUSH2 0x1546 MSTORE DUP1 PUSH2 0x1621 MSTORE DUP1 PUSH2 0x16FB MSTORE DUP1 PUSH2 0x17C9 MSTORE DUP1 PUSH2 0x190F MSTORE DUP1 PUSH2 0x1997 MSTORE DUP1 PUSH2 0x1BD3 MSTORE DUP1 PUSH2 0x1C4E MSTORE DUP1 PUSH2 0x1D02 MSTORE DUP1 PUSH2 0x1DCE MSTORE DUP1 PUSH2 0x1E63 MSTORE DUP1 PUSH2 0x1ED7 MSTORE DUP1 PUSH2 0x2510 MSTORE DUP1 PUSH2 0x2566 MSTORE DUP1 PUSH2 0x259A MSTORE DUP1 PUSH2 0x260E MSTORE DUP1 PUSH2 0x279C MSTORE DUP1 PUSH2 0x28DF MSTORE DUP1 PUSH2 0x2967 MSTORE POP DUP1 PUSH2 0xD1F MSTORE DUP1 PUSH2 0xDF6 MSTORE DUP1 PUSH2 0xF75 MSTORE DUP1 PUSH2 0xFEF MSTORE DUP1 PUSH2 0x11CD MSTORE DUP1 PUSH2 0x12E5 MSTORE DUP1 PUSH2 0x185C MSTORE DUP1 PUSH2 0x19C9 MSTORE DUP1 PUSH2 0x1B23 MSTORE DUP1 PUSH2 0x1F09 MSTORE DUP1 PUSH2 0x2147 MSTORE DUP1 PUSH2 0x233F MSTORE DUP1 PUSH2 0x2368 MSTORE DUP1 PUSH2 0x23F1 MSTORE DUP1 PUSH2 0x2544 MSTORE DUP1 PUSH2 0x282F MSTORE DUP1 PUSH2 0x2999 MSTORE DUP1 PUSH2 0x321E MSTORE DUP1 PUSH2 0x3261 MSTORE DUP1 PUSH2 0x353B MSTORE DUP1 PUSH2 0x36B1 MSTORE DUP1 PUSH2 0x3AA2 MSTORE DUP1 PUSH2 0x3B5B MSTORE DUP1 PUSH2 0x3C0E MSTORE POP PUSH2 0x40A5 PUSH1 0x0 RETURN INVALID PUSH1 0x80 PUSH1 0x40 MSTORE PUSH1 0x4 CALLDATASIZE LT PUSH2 0x12E JUMPI PUSH1 0x0 CALLDATALOAD PUSH1 0xE0 SHR DUP1 PUSH4 0x8803DBEE GT PUSH2 0xAB JUMPI DUP1 PUSH4 0xBAA2ABDE GT PUSH2 0x6F JUMPI DUP1 PUSH4 0xBAA2ABDE EQ PUSH2 0x8A1 JUMPI DUP1 PUSH4 0xC45A0155 EQ PUSH2 0x8FE JUMPI DUP1 PUSH4 0xD06CA61F EQ PUSH2 0x913 JUMPI DUP1 PUSH4 0xE8E33700 EQ PUSH2 0x9C8 JUMPI DUP1 PUSH4 0xF305D719 EQ PUSH2 0xA48 JUMPI DUP1 PUSH4 0xFB3BDB41 EQ PUSH2 0xA8E JUMPI PUSH2 0x167 JUMP JUMPDEST DUP1 PUSH4 0x8803DBEE EQ PUSH2 0x6CD JUMPI DUP1 PUSH4 0xAD5C4648 EQ PUSH2 0x763 JUMPI DUP1 PUSH4 0xAD615DEC EQ PUSH2 0x794 JUMPI DUP1 PUSH4 0xAF2979EB EQ PUSH2 0x7CA JUMPI DUP1 PUSH4 0xB6F9DE95 EQ PUSH2 0x81D JUMPI PUSH2 0x167 JUMP JUMPDEST DUP1 PUSH4 0x4A25D94A GT PUSH2 0xF2 JUMPI DUP1 PUSH4 0x4A25D94A EQ PUSH2 0x451 JUMPI DUP1 PUSH4 0x5C11D795 EQ PUSH2 0x4E7 JUMPI DUP1 PUSH4 0x791AC947 EQ PUSH2 0x57D JUMPI DUP1 PUSH4 0x7FF36AB5 EQ PUSH2 0x613 JUMPI DUP1 PUSH4 0x85F8C259 EQ PUSH2 0x697 JUMPI PUSH2 0x167 JUMP JUMPDEST DUP1 PUSH4 0x2751CEC EQ PUSH2 0x16C JUMPI DUP1 PUSH4 0x54D50D4 EQ PUSH2 0x1D8 JUMPI DUP1 PUSH4 0x18CBAFE5 EQ PUSH2 0x220 JUMPI DUP1 PUSH4 0x1F00CA74 EQ PUSH2 0x306 JUMPI DUP1 PUSH4 0x38ED1739 EQ PUSH2 0x3BB JUMPI PUSH2 0x167 JUMP JUMPDEST CALLDATASIZE PUSH2 0x167 JUMPI CALLER PUSH1 0x1 PUSH1 0x1 PUSH1 0xA0 SHL SUB PUSH32 0x0 AND EQ PUSH2 0x165 JUMPI INVALID JUMPDEST STOP JUMPDEST PUSH1 0x0 DUP1 REVERT JUMPDEST CALLVALUE DUP1 ISZERO PUSH2 0x178 JUMPI PUSH1 0x0 DUP1 REVERT JUMPDEST POP PUSH2 0x1BF PUSH1 0x4 DUP1 CALLDATASIZE SUB PUSH1 0xC0 DUP2 LT ISZERO PUSH2 0x18F JUMPI PUSH1 0x0 DUP1 REVERT JUMPDEST POP PUSH1 0x1 PUSH1 0x1 PUSH1 0xA0 SHL SUB DUP2 CALLDATALOAD DUP2 AND SWAP2 PUSH1 0x20 DUP2 ADD CALLDATALOAD SWAP2 PUSH1 0x40 DUP3 ADD CALLDATALOAD SWAP2 PUSH1 0x60 DUP2 ADD CALLDATALOAD SWAP2 PUSH1 0x80 DUP3 ADD CALLDATALOAD AND SWAP1 PUSH1 0xA0 ADD CALLDATALOAD PUSH2 0xB12 JUMP JUMPDEST PUSH1 0x40 DUP1 MLOAD SWAP3 DUP4 MSTORE PUSH1 0x20 DUP4 ADD SWAP2 SWAP1 SWAP2 MSTORE DUP1 MLOAD SWAP2 DUP3 SWAP1 SUB ADD SWAP1 RETURN JUMPDEST CALLVALUE DUP1 ISZERO PUSH2 0x1E4 JUMPI PUSH1 0x0 DUP1 REVERT JUMPDEST POP PUSH2 0x20E PUSH1 0x4 DUP1 CALLDATASIZE SUB PUSH1 0x60 DUP2 LT ISZERO PUSH2 0x1FB JUMPI PUSH1 0x0 DUP1 REVERT JUMPDEST POP DUP1 CALLDATALOAD SWAP1 PUSH1 0x20 DUP2 ADD CALLDATALOAD SWAP1 PUSH1 0x40 ADD CALLDATALOAD PUSH2 0xC2C JUMP JUMPDEST PUSH1 0x40 DUP1 MLOAD SWAP2 DUP3 MSTORE MLOAD SWAP1 DUP2 SWAP1 SUB PUSH1 0x20 ADD SWAP1 RETURN JUMPDEST CALLVALUE DUP1 ISZERO PUSH2 0x22C JUMPI PUSH1 0x0 DUP1 REVERT JUMPDEST POP PUSH2 0x2B6 PUSH1 0x4 DUP1 CALLDATASIZE SUB PUSH1 0xA0 DUP2 LT ISZERO PUSH2 0x243 JUMPI PUSH1 0x0 DUP1 REVERT JUMPDEST DUP2 CALLDATALOAD SWAP2 PUSH1 0x20 DUP2 ADD CALLDATALOAD SWAP2 DUP2 ADD SWAP1 PUSH1 0x60 DUP2 ADD PUSH1 0x40 DUP3 ADD CALLDATALOAD PUSH1 0x1 PUSH1 0x20 SHL DUP2 GT ISZERO PUSH2 0x269 JUMPI PUSH1 0x0 DUP1 REVERT JUMPDEST DUP3 ADD DUP4 PUSH1 0x20 DUP3 ADD GT ISZERO PUSH2 0x27B JUMPI PUSH1 0x0 DUP1 REVERT JUMPDEST DUP1 CALLDATALOAD SWAP1 PUSH1 0x20 ADD SWAP2 DUP5 PUSH1 0x20 DUP4 MUL DUP5 ADD GT PUSH1 0x1 PUSH1 0x20 SHL DUP4 GT OR ISZERO PUSH2 0x29C JUMPI PUSH1 0x0 DUP1 REVERT JUMPDEST SWAP2 SWAP4 POP SWAP2 POP PUSH1 0x1 PUSH1 0x1 PUSH1 0xA0 SHL SUB DUP2 CALLDATALOAD AND SWAP1 PUSH1 0x20 ADD CALLDATALOAD PUSH2 0xC41 JUMP JUMPDEST PUSH1 0x40 DUP1 MLOAD PUSH1 0x20 DUP1 DUP3 MSTORE DUP4 MLOAD DUP2 DUP4 ADD MSTORE DUP4 MLOAD SWAP2 SWAP3 DUP4 SWAP3 SWAP1 DUP4 ADD SWAP2 DUP6 DUP2 ADD SWAP2 MUL DUP1 DUP4 DUP4 PUSH1 0x0 JUMPDEST DUP4 DUP2 LT ISZERO PUSH2 0x2F2 JUMPI DUP2 DUP2 ADD MLOAD DUP4 DUP3 ADD MSTORE PUSH1 0x20 ADD PUSH2 0x2DA JUMP JUMPDEST POP POP POP POP SWAP1 POP ADD SWAP3 POP POP POP PUSH1 0x40 MLOAD DUP1 SWAP2 SUB SWAP1 RETURN JUMPDEST CALLVALUE DUP1 ISZERO PUSH2 0x312 JUMPI PUSH1 0x0 DUP1 REVERT JUMPDEST POP PUSH2 0x2B6 PUSH1 0x4 DUP1 CALLDATASIZE SUB PUSH1 0x40 DUP2 LT ISZERO PUSH2 0x329 JUMPI PUSH1 0x0 DUP1 REVERT JUMPDEST DUP2 CALLDATALOAD SWAP2 SWAP1 DUP2 ADD SWAP1 PUSH1 0x40 DUP2 ADD PUSH1 0x20 DUP3 ADD CALLDATALOAD PUSH1 0x1 PUSH1 0x20 SHL DUP2 GT ISZERO PUSH2 0x34A JUMPI PUSH1 0x0 DUP1 REVERT JUMPDEST DUP3 ADD DUP4 PUSH1 0x20 DUP3 ADD GT ISZERO PUSH2 0x35C JUMPI PUSH1 0x0 DUP1 REVERT JUMPDEST DUP1 CALLDATALOAD SWAP1 PUSH1 0x20 ADD SWAP2 DUP5 PUSH1 0x20 DUP4 MUL DUP5 ADD GT PUSH1 0x1 PUSH1 0x20 SHL DUP4 GT OR ISZERO PUSH2 0x37D JUMPI PUSH1 0x0 DUP1 REVERT JUMPDEST SWAP2 SWAP1 DUP1 DUP1 PUSH1 0x20 MUL PUSH1 0x20 ADD PUSH1 0x40 MLOAD SWAP1 DUP2 ADD PUSH1 0x40 MSTORE DUP1 SWAP4 SWAP3 SWAP2 SWAP1 DUP2 DUP2 MSTORE PUSH1 0x20 ADD DUP4 DUP4 PUSH1 0x20 MUL DUP1 DUP3 DUP5 CALLDATACOPY PUSH1 0x0 SWAP3 ADD SWAP2 SWAP1 SWAP2 MSTORE POP SWAP3 SWAP6 POP PUSH2 0xF6E SWAP5 POP POP POP POP POP JUMP JUMPDEST CALLVALUE DUP1 ISZERO PUSH2 0x3C7 JUMPI PUSH1 0x0 DUP1 REVERT JUMPDEST POP PUSH2 0x2B6 PUSH1 0x4 DUP1 CALLDATASIZE SUB PUSH1 0xA0 DUP2 LT ISZERO PUSH2 0x3DE JUMPI PUSH1 0x0 DUP1 REVERT JUMPDEST DUP2 CALLDATALOAD SWAP2 PUSH1 0x20 DUP2 ADD CALLDATALOAD SWAP2 DUP2 ADD SWAP1 PUSH1 0x60 DUP2 ADD PUSH1 0x40 DUP3 ADD CALLDATALOAD PUSH1 0x1 PUSH1 0x20 SHL DUP2 GT ISZERO PUSH2 0x404 JUMPI PUSH1 0x0 DUP1 REVERT JUMPDEST DUP3 ADD DUP4 PUSH1 0x20 DUP3 ADD GT ISZERO PUSH2 0x416 JUMPI PUSH1 0x0 DUP1 REVERT JUMPDEST DUP1 CALLDATALOAD SWAP1 PUSH1 0x20 ADD SWAP2 DUP5 PUSH1 0x20 DUP4 MUL DUP5 ADD GT PUSH1 0x1 PUSH1 0x20 SHL DUP4 GT OR ISZERO PUSH2 0x437 JUMPI PUSH1 0x0 DUP1 REVERT JUMPDEST SWAP2 SWAP4 POP SWAP2 POP PUSH1 0x1 PUSH1 0x1 PUSH1 0xA0 SHL SUB DUP2 CALLDATALOAD AND SWAP1 PUSH1 0x20 ADD CALLDATALOAD PUSH2 0xFA4 JUMP JUMPDEST CALLVALUE DUP1 ISZERO PUSH2 0x45D JUMPI PUSH1 0x0 DUP1 REVERT JUMPDEST POP PUSH2 0x2B6 PUSH1 0x4 DUP1 CALLDATASIZE SUB PUSH1 0xA0 DUP2 LT ISZERO PUSH2 0x474 JUMPI PUSH1 0x0 DUP1 REVERT JUMPDEST DUP2 CALLDATALOAD SWAP2 PUSH1 0x20 DUP2 ADD CALLDATALOAD SWAP2 DUP2 ADD SWAP1 PUSH1 0x60 DUP2 ADD PUSH1 0x40 DUP3 ADD CALLDATALOAD PUSH1 0x1 PUSH1 0x20 SHL DUP2 GT ISZERO PUSH2 0x49A JUMPI PUSH1 0x0 DUP1 REVERT JUMPDEST DUP3 ADD DUP4 PUSH1 0x20 DUP3 ADD GT ISZERO PUSH2 0x4AC JUMPI PUSH1 0x0 DUP1 REVERT JUMPDEST DUP1 CALLDATALOAD SWAP1 PUSH1 0x20 ADD SWAP2 DUP5 PUSH1 0x20 DUP4 MUL DUP5 ADD GT PUSH1 0x1 PUSH1 0x20 SHL DUP4 GT OR ISZERO PUSH2 0x4CD JUMPI PUSH1 0x0 DUP1 REVERT JUMPDEST SWAP2 SWAP4 POP SWAP2 POP PUSH1 0x1 PUSH1 0x1 PUSH1 0xA0 SHL SUB DUP2 CALLDATALOAD AND SWAP1 PUSH1 0x20 ADD CALLDATALOAD PUSH2 0x10EF JUMP JUMPDEST CALLVALUE DUP1 ISZERO PUSH2 0x4F3 JUMPI PUSH1 0x0 DUP1 REVERT JUMPDEST POP PUSH2 0x165 PUSH1 0x4 DUP1 CALLDATASIZE SUB PUSH1 0xA0 DUP2 LT ISZERO PUSH2 0x50A JUMPI PUSH1 0x0 DUP1 REVERT JUMPDEST DUP2 CALLDATALOAD SWAP2 PUSH1 0x20 DUP2 ADD CALLDATALOAD SWAP2 DUP2 ADD SWAP1 PUSH1 0x60 DUP2 ADD PUSH1 0x40 DUP3 ADD CALLDATALOAD PUSH1 0x1 PUSH1 0x20 SHL DUP2 GT ISZERO PUSH2 0x530 JUMPI PUSH1 0x0 DUP1 REVERT JUMPDEST DUP3 ADD DUP4 PUSH1 0x20 DUP3 ADD GT ISZERO PUSH2 0x542 JUMPI PUSH1 0x0 DUP1 REVERT JUMPDEST DUP1 CALLDATALOAD SWAP1 PUSH1 0x20 ADD SWAP2 DUP5 PUSH1 0x20 DUP4 MUL DUP5 ADD GT PUSH1 0x1 PUSH1 0x20 SHL DUP4 GT OR ISZERO PUSH2 0x563 JUMPI PUSH1 0x0 DUP1 REVERT JUMPDEST SWAP2 SWAP4 POP SWAP2 POP PUSH1 0x1 PUSH1 0x1 PUSH1 0xA0 SHL SUB DUP2 CALLDATALOAD AND SWAP1 PUSH1 0x20 ADD CALLDATALOAD PUSH2 0x127B JUMP JUMPDEST CALLVALUE DUP1 ISZERO PUSH2 0x589 JUMPI PUSH1 0x0 DUP1 REVERT JUMPDEST POP PUSH2 0x165 PUSH1 0x4 DUP1 CALLDATASIZE SUB PUSH1 0xA0 DUP2 LT ISZERO PUSH2 0x5A0 JUMPI PUSH1 0x0 DUP1 REVERT JUMPDEST DUP2 CALLDATALOAD SWAP2 PUSH1 0x20 DUP2 ADD CALLDATALOAD SWAP2 DUP2 ADD SWAP1 PUSH1 0x60 DUP2 ADD PUSH1 0x40 DUP3 ADD CALLDATALOAD PUSH1 0x1 PUSH1 0x20 SHL DUP2 GT ISZERO PUSH2 0x5C6 JUMPI PUSH1 0x0 DUP1 REVERT JUMPDEST DUP3 ADD DUP4 PUSH1 0x20 DUP3 ADD GT ISZERO PUSH2 0x5D8 JUMPI PUSH1 0x0 DUP1 REVERT JUMPDEST DUP1 CALLDATALOAD SWAP1 PUSH1 0x20 ADD SWAP2 DUP5 PUSH1 0x20 DUP4 MUL DUP5 ADD GT PUSH1 0x1 PUSH1 0x20 SHL DUP4 GT OR ISZERO PUSH2 0x5F9 JUMPI PUSH1 0x0 DUP1 REVERT JUMPDEST SWAP2 SWAP4 POP SWAP2 POP PUSH1 0x1 PUSH1 0x1 PUSH1 0xA0 SHL SUB DUP2 CALLDATALOAD AND SWAP1 PUSH1 0x20 ADD CALLDATALOAD PUSH2 0x14F8 JUMP JUMPDEST PUSH2 0x2B6 PUSH1 0x4 DUP1 CALLDATASIZE SUB PUSH1 0x80 DUP2 LT ISZERO PUSH2 0x629 JUMPI PUSH1 0x0 DUP1 REVERT JUMPDEST DUP2 CALLDATALOAD SWAP2 SWAP1 DUP2 ADD SWAP1 PUSH1 0x40 DUP2 ADD PUSH1 0x20 DUP3 ADD CALLDATALOAD PUSH1 0x1 PUSH1 0x20 SHL DUP2 GT ISZERO PUSH2 0x64A JUMPI PUSH1 0x0 DUP1 REVERT JUMPDEST DUP3 ADD DUP4 PUSH1 0x20 DUP3 ADD GT ISZERO PUSH2 0x65C JUMPI PUSH1 0x0 DUP1 REVERT JUMPDEST DUP1 CALLDATALOAD SWAP1 PUSH1 0x20 ADD SWAP2 DUP5 PUSH1 0x20 DUP4 MUL DUP5 ADD GT PUSH1 0x1 PUSH1 0x20 SHL DUP4 GT OR ISZERO PUSH2 0x67D JUMPI PUSH1 0x0 DUP1 REVERT JUMPDEST SWAP2 SWAP4 POP SWAP2 POP PUSH1 0x1 PUSH1 0x1 PUSH1 0xA0 SHL SUB DUP2 CALLDATALOAD AND SWAP1 PUSH1 0x20 ADD CALLDATALOAD PUSH2 0x1781 JUMP JUMPDEST CALLVALUE DUP1 ISZERO PUSH2 0x6A3 JUMPI PUSH1 0x0 DUP1 REVERT JUMPDEST POP PUSH2 0x20E PUSH1 0x4 DUP1 CALLDATASIZE SUB PUSH1 0x60 DUP2 LT ISZERO PUSH2 0x6BA JUMPI PUSH1 0x0 DUP1 REVERT JUMPDEST POP DUP1 CALLDATALOAD SWAP1 PUSH1 0x20 DUP2 ADD CALLDATALOAD SWAP1 PUSH1 0x40 ADD CALLDATALOAD PUSH2 0x1ACB JUMP JUMPDEST CALLVALUE DUP1 ISZERO PUSH2 0x6D9 JUMPI PUSH1 0x0 DUP1 REVERT JUMPDEST POP PUSH2 0x2B6 PUSH1 0x4 DUP1 CALLDATASIZE SUB PUSH1 0xA0 DUP2 LT ISZERO PUSH2 0x6F0 JUMPI PUSH1 0x0 DUP1 REVERT JUMPDEST DUP2 CALLDATALOAD SWAP2 PUSH1 0x20 DUP2 ADD CALLDATALOAD SWAP2 DUP2 ADD SWAP1 PUSH1 0x60 DUP2 ADD PUSH1 0x40 DUP3 ADD CALLDATALOAD PUSH1 0x1 PUSH1 0x20 SHL DUP2 GT ISZERO PUSH2 0x716 JUMPI PUSH1 0x0 DUP1 REVERT JUMPDEST DUP3 ADD DUP4 PUSH1 0x20 DUP3 ADD GT ISZERO PUSH2 0x728 JUMPI PUSH1 0x0 DUP1 REVERT JUMPDEST DUP1 CALLDATALOAD SWAP1 PUSH1 0x20 ADD SWAP2 DUP5 PUSH1 0x20 DUP4 MUL DUP5 ADD GT PUSH1 0x1 PUSH1 0x20 SHL DUP4 GT OR ISZERO PUSH2 0x749 JUMPI PUSH1 0x0 DUP1 REVERT JUMPDEST SWAP2 SWAP4 POP SWAP2 POP PUSH1 0x1 PUSH1 0x1 PUSH1 0xA0 SHL SUB DUP2 CALLDATALOAD AND SWAP1 PUSH1 0x20 ADD CALLDATALOAD PUSH2 0x1AD8 JUMP JUMPDEST CALLVALUE DUP1 ISZERO PUSH2 0x76F JUMPI PUSH1 0x0 DUP1 REVERT JUMPDEST POP PUSH2 0x778 PUSH2 0x1BD1 JUMP JUMPDEST PUSH1 0x40 DUP1 MLOAD PUSH1 0x1 PUSH1 0x1 PUSH1 0xA0 SHL SUB SWAP1 SWAP3 AND DUP3 MSTORE MLOAD SWAP1 DUP2 SWAP1 SUB PUSH1 0x20 ADD SWAP1 RETURN JUMPDEST CALLVALUE DUP1 ISZERO PUSH2 0x7A0 JUMPI PUSH1 0x0 DUP1 REVERT JUMPDEST POP PUSH2 0x20E PUSH1 0x4 DUP1 CALLDATASIZE SUB PUSH1 0x60 DUP2 LT ISZERO PUSH2 0x7B7 JUMPI PUSH1 0x0 DUP1 REVERT JUMPDEST POP DUP1 CALLDATALOAD SWAP1 PUSH1 0x20 DUP2 ADD CALLDATALOAD SWAP1 PUSH1 0x40 ADD CALLDATALOAD PUSH2 0x1BF5 JUMP JUMPDEST CALLVALUE DUP1 ISZERO PUSH2 0x7D6 JUMPI PUSH1 0x0 DUP1 REVERT JUMPDEST POP PUSH2 0x20E PUSH1 0x4 DUP1 CALLDATASIZE SUB PUSH1 0xC0 DUP2 LT ISZERO PUSH2 0x7ED JUMPI PUSH1 0x0 DUP1 REVERT JUMPDEST POP PUSH1 0x1 PUSH1 0x1 PUSH1 0xA0 SHL SUB DUP2 CALLDATALOAD DUP2 AND SWAP2 PUSH1 0x20 DUP2 ADD CALLDATALOAD SWAP2 PUSH1 0x40 DUP3 ADD CALLDATALOAD SWAP2 PUSH1 0x60 DUP2 ADD CALLDATALOAD SWAP2 PUSH1 0x80 DUP3 ADD CALLDATALOAD AND SWAP1 PUSH1 0xA0 ADD CALLDATALOAD PUSH2 0x1C02 JUMP JUMPDEST PUSH2 0x165 PUSH1 0x4 DUP1 CALLDATASIZE SUB PUSH1 0x80 DUP2 LT ISZERO PUSH2 0x833 JUMPI PUSH1 0x0 DUP1 REVERT JUMPDEST DUP2 CALLDATALOAD SWAP2 SWAP1 DUP2 ADD SWAP1 PUSH1 0x40 DUP2 ADD PUSH1 0x20 DUP3 ADD CALLDATALOAD PUSH1 0x1 PUSH1 0x20 SHL DUP2 GT ISZERO PUSH2 0x854 JUMPI PUSH1 0x0 DUP1 REVERT JUMPDEST DUP3 ADD DUP4 PUSH1 0x20 DUP3 ADD GT ISZERO PUSH2 0x866 JUMPI PUSH1 0x0 DUP1 REVERT JUMPDEST DUP1 CALLDATALOAD SWAP1 PUSH1 0x20 ADD SWAP2 DUP5 PUSH1 0x20 DUP4 MUL DUP5 ADD GT PUSH1 0x1 PUSH1 0x20 SHL DUP4 GT OR ISZERO PUSH2 0x887 JUMPI PUSH1 0x0 DUP1 REVERT JUMPDEST SWAP2 SWAP4 POP SWAP2 POP PUSH1 0x1 PUSH1 0x1 PUSH1 0xA0 SHL SUB DUP2 CALLDATALOAD AND SWAP1 PUSH1 0x20 ADD CALLDATALOAD PUSH2 0x1D88 JUMP JUMPDEST CALLVALUE DUP1 ISZERO PUSH2 0x8AD JUMPI PUSH1 0x0 DUP1 REVERT JUMPDEST POP PUSH2 0x1BF PUSH1 0x4 DUP1 CALLDATASIZE SUB PUSH1 0xE0 DUP2 LT ISZERO PUSH2 0x8C4 JUMPI PUSH1 0x0 DUP1 REVERT JUMPDEST POP PUSH1 0x1 PUSH1 0x1 PUSH1 0xA0 SHL SUB DUP2 CALLDATALOAD DUP2 AND SWAP2 PUSH1 0x20 DUP2 ADD CALLDATALOAD DUP3 AND SWAP2 PUSH1 0x40 DUP3 ADD CALLDATALOAD SWAP2 PUSH1 0x60 DUP2 ADD CALLDATALOAD SWAP2 PUSH1 0x80 DUP3 ADD CALLDATALOAD SWAP2 PUSH1 0xA0 DUP2 ADD CALLDATALOAD SWAP1 SWAP2 AND SWAP1 PUSH1 0xC0 ADD CALLDATALOAD PUSH2 0x20F9 JUMP JUMPDEST CALLVALUE DUP1 ISZERO PUSH2 0x90A JUMPI PUSH1 0x0 DUP1 REVERT JUMPDEST POP PUSH2 0x778 PUSH2 0x233D JUMP JUMPDEST CALLVALUE DUP1 ISZERO PUSH2 0x91F JUMPI PUSH1 0x0 DUP1 REVERT JUMPDEST POP PUSH2 0x2B6 PUSH1 0x4 DUP1 CALLDATASIZE SUB PUSH1 0x40 DUP2 LT ISZERO PUSH2 0x936 JUMPI PUSH1 0x0 DUP1 REVERT JUMPDEST DUP2 CALLDATALOAD SWAP2 SWAP1 DUP2 ADD SWAP1 PUSH1 0x40 DUP2 ADD PUSH1 0x20 DUP3 ADD CALLDATALOAD PUSH1 0x1 PUSH1 0x20 SHL DUP2 GT ISZERO PUSH2 0x957 JUMPI PUSH1 0x0 DUP1 REVERT JUMPDEST DUP3 ADD DUP4 PUSH1 0x20 DUP3 ADD GT ISZERO PUSH2 0x969 JUMPI PUSH1 0x0 DUP1 REVERT JUMPDEST DUP1 CALLDATALOAD SWAP1 PUSH1 0x20 ADD SWAP2 DUP5 PUSH1 0x20 DUP4 MUL DUP5 ADD GT PUSH1 0x1 PUSH1 0x20 SHL DUP4 GT OR ISZERO PUSH2 0x98A JUMPI PUSH1 0x0 DUP1 REVERT JUMPDEST SWAP2 SWAP1 DUP1 DUP1 PUSH1 0x20 MUL PUSH1 0x20 ADD PUSH1 0x40 MLOAD SWAP1 DUP2 ADD PUSH1 0x40 MSTORE DUP1 SWAP4 SWAP3 SWAP2 SWAP1 DUP2 DUP2 MSTORE PUSH1 0x20 ADD DUP4 DUP4 PUSH1 0x20 MUL DUP1 DUP3 DUP5 CALLDATACOPY PUSH1 0x0 SWAP3 ADD SWAP2 SWAP1 SWAP2 MSTORE POP SWAP3 SWAP6 POP PUSH2 0x2361 SWAP5 POP POP POP POP POP JUMP JUMPDEST CALLVALUE DUP1 ISZERO PUSH2 0x9D4 JUMPI PUSH1 0x0 DUP1 REVERT JUMPDEST POP PUSH2 0xA2A PUSH1 0x4 DUP1 CALLDATASIZE SUB PUSH2 0x100 DUP2 LT ISZERO PUSH2 0x9EC JUMPI PUSH1 0x0 DUP1 REVERT JUMPDEST POP PUSH1 0x1 PUSH1 0x1 PUSH1 0xA0 SHL SUB DUP2 CALLDATALOAD DUP2 AND SWAP2 PUSH1 0x20 DUP2 ADD CALLDATALOAD DUP3 AND SWAP2 PUSH1 0x40 DUP3 ADD CALLDATALOAD SWAP2 PUSH1 0x60 DUP2 ADD CALLDATALOAD SWAP2 PUSH1 0x80 DUP3 ADD CALLDATALOAD SWAP2 PUSH1 0xA0 DUP2 ADD CALLDATALOAD SWAP2 PUSH1 0xC0 DUP3 ADD CALLDATALOAD AND SWAP1 PUSH1 0xE0 ADD CALLDATALOAD PUSH2 0x238E JUMP JUMPDEST PUSH1 0x40 DUP1 MLOAD SWAP4 DUP5 MSTORE PUSH1 0x20 DUP5 ADD SWAP3 SWAP1 SWAP3 MSTORE DUP3 DUP3 ADD MSTORE MLOAD SWAP1 DUP2 SWAP1 SUB PUSH1 0x60 ADD SWAP1 RETURN JUMPDEST PUSH2 0xA2A PUSH1 0x4 DUP1 CALLDATASIZE SUB PUSH1 0xC0 DUP2 LT ISZERO PUSH2 0xA5E JUMPI PUSH1 0x0 DUP1 REVERT JUMPDEST POP PUSH1 0x1 PUSH1 0x1 PUSH1 0xA0 SHL SUB DUP2 CALLDATALOAD DUP2 AND SWAP2 PUSH1 0x20 DUP2 ADD CALLDATALOAD SWAP2 PUSH1 0x40 DUP3 ADD CALLDATALOAD SWAP2 PUSH1 0x60 DUP2 ADD CALLDATALOAD SWAP2 PUSH1 0x80 DUP3 ADD CALLDATALOAD AND SWAP1 PUSH1 0xA0 ADD CALLDATALOAD PUSH2 0x24C1 JUMP JUMPDEST PUSH2 0x2B6 PUSH1 0x4 DUP1 CALLDATASIZE SUB PUSH1 0x80 DUP2 LT ISZERO PUSH2 0xAA4 JUMPI PUSH1 0x0 DUP1 REVERT JUMPDEST DUP2 CALLDATALOAD SWAP2 SWAP1 DUP2 ADD SWAP1 PUSH1 0x40 DUP2 ADD PUSH1 0x20 DUP3 ADD CALLDATALOAD PUSH1 0x1 PUSH1 0x20 SHL DUP2 GT ISZERO PUSH2 0xAC5 JUMPI PUSH1 0x0 DUP1 REVERT JUMPDEST DUP3 ADD DUP4 PUSH1 0x20 DUP3 ADD GT ISZERO PUSH2 0xAD7 JUMPI PUSH1 0x0 DUP1 REVERT JUMPDEST DUP1 CALLDATALOAD SWAP1 PUSH1 0x20 ADD SWAP2 DUP5 PUSH1 0x20 DUP4 MUL DUP5 ADD GT PUSH1 0x1 PUSH1 0x20 SHL DUP4 GT OR ISZERO PUSH2 0xAF8 JUMPI PUSH1 0x0 DUP1 REVERT JUMPDEST SWAP2 SWAP4 POP SWAP2 POP PUSH1 0x1 PUSH1 0x1 PUSH1 0xA0 SHL SUB DUP2 CALLDATALOAD AND SWAP1 PUSH1 0x20 ADD CALLDATALOAD PUSH2 0x2754 JUMP JUMPDEST PUSH1 0x0 DUP1 DUP3 TIMESTAMP DUP2 LT ISZERO PUSH2 0xB59 JUMPI PUSH1 0x40 DUP1 MLOAD PUSH3 0x461BCD PUSH1 0xE5 SHL DUP2 MSTORE PUSH1 0x20 PUSH1 0x4 DUP3 ADD MSTORE PUSH1 0x15 PUSH1 0x24 DUP3 ADD MSTORE PUSH1 0x0 DUP1 MLOAD PUSH1 0x20 PUSH2 0x3E9D DUP4 CODECOPY DUP2 MLOAD SWAP2 MSTORE PUSH1 0x44 DUP3 ADD MSTORE SWAP1 MLOAD SWAP1 DUP2 SWAP1 SUB PUSH1 0x64 ADD SWAP1 REVERT JUMPDEST PUSH2 0xB88 DUP10 PUSH32 0x0 DUP11 DUP11 DUP11 ADDRESS DUP11 PUSH2 0x20F9 JUMP JUMPDEST SWAP1 SWAP4 POP SWAP2 POP PUSH2 0xB98 DUP10 DUP7 DUP6 PUSH2 0x2ACD JUMP JUMPDEST PUSH32 0x0 PUSH1 0x1 PUSH1 0x1 PUSH1 0xA0 SHL SUB AND PUSH4 0x2E1A7D4D DUP4 PUSH1 0x40 MLOAD DUP3 PUSH4 0xFFFFFFFF AND PUSH1 0xE0 SHL DUP2 MSTORE PUSH1 0x4 ADD DUP1 DUP3 DUP2 MSTORE PUSH1 0x20 ADD SWAP2 POP POP PUSH1 0x0 PUSH1 0x40 MLOAD DUP1 DUP4 SUB DUP2 PUSH1 0x0 DUP8 DUP1 EXTCODESIZE ISZERO DUP1 ISZERO PUSH2 0xBFE JUMPI PUSH1 0x0 DUP1 REVERT JUMPDEST POP GAS CALL ISZERO DUP1 ISZERO PUSH2 0xC12 JUMPI RETURNDATASIZE PUSH1 0x0 DUP1 RETURNDATACOPY RETURNDATASIZE PUSH1 0x0 REVERT JUMPDEST POP POP POP POP PUSH2 0xC20 DUP6 DUP4 PUSH2 0x2C37 JUMP JUMPDEST POP SWAP7 POP SWAP7 SWAP5 POP POP POP POP POP JUMP JUMPDEST PUSH1 0x0 PUSH2 0xC39 DUP5 DUP5 DUP5 PUSH2 0x2D2F JUMP JUMPDEST SWAP5 SWAP4 POP POP POP POP JUMP JUMPDEST PUSH1 0x60 DUP2 TIMESTAMP DUP2 LT ISZERO PUSH2 0xC87 JUMPI PUSH1 0x40 DUP1 MLOAD PUSH3 0x461BCD PUSH1 0xE5 SHL DUP2 MSTORE PUSH1 0x20 PUSH1 0x4 DUP3 ADD MSTORE PUSH1 0x15 PUSH1 0x24 DUP3 ADD MSTORE PUSH1 0x0 DUP1 MLOAD PUSH1 0x20 PUSH2 0x3E9D DUP4 CODECOPY DUP2 MLOAD SWAP2 MSTORE PUSH1 0x44 DUP3 ADD MSTORE SWAP1 MLOAD SWAP1 DUP2 SWAP1 SUB PUSH1 0x64 ADD SWAP1 REVERT JUMPDEST PUSH1 0x1 PUSH1 0x1 PUSH1 0xA0 SHL SUB PUSH32 0x0 AND DUP7 DUP7 PUSH1 0x0 NOT DUP2 ADD DUP2 DUP2 LT PUSH2 0xCC1 JUMPI INVALID JUMPDEST SWAP1 POP PUSH1 0x20 MUL ADD CALLDATALOAD PUSH1 0x1 PUSH1 0x1 PUSH1 0xA0 SHL SUB AND PUSH1 0x1 PUSH1 0x1 PUSH1 0xA0 SHL SUB AND EQ PUSH2 0xD1A JUMPI PUSH1 0x40 DUP1 MLOAD PUSH3 0x461BCD PUSH1 0xE5 SHL DUP2 MSTORE PUSH1 0x20 PUSH1 0x4 DUP3 ADD MSTORE PUSH1 0x1A PUSH1 0x24 DUP3 ADD MSTORE PUSH1 0x0 DUP1 MLOAD PUSH1 0x20 PUSH2 0x3EE2 DUP4 CODECOPY DUP2 MLOAD SWAP2 MSTORE PUSH1 0x44 DUP3 ADD MSTORE SWAP1 MLOAD SWAP1 DUP2 SWAP1 SUB PUSH1 0x64 ADD SWAP1 REVERT JUMPDEST PUSH2 0xD78 PUSH32 0x0 DUP10 DUP9 DUP9 DUP1 DUP1 PUSH1 0x20 MUL PUSH1 0x20 ADD PUSH1 0x40 MLOAD SWAP1 DUP2 ADD PUSH1 0x40 MSTORE DUP1 SWAP4 SWAP3 SWAP2 SWAP1 DUP2 DUP2 MSTORE PUSH1 0x20 ADD DUP4 DUP4 PUSH1 0x20 MUL DUP1 DUP3 DUP5 CALLDATACOPY PUSH1 0x0 SWAP3 ADD SWAP2 SWAP1 SWAP2 MSTORE POP PUSH2 0x2E07 SWAP3 POP POP POP JUMP JUMPDEST SWAP2 POP DUP7 DUP3 PUSH1 0x1 DUP5 MLOAD SUB DUP2 MLOAD DUP2 LT PUSH2 0xD8B JUMPI INVALID JUMPDEST PUSH1 0x20 MUL PUSH1 0x20 ADD ADD MLOAD LT ISZERO PUSH2 0xDD0 JUMPI PUSH1 0x40 MLOAD PUSH3 0x461BCD PUSH1 0xE5 SHL DUP2 MSTORE PUSH1 0x4 ADD DUP1 DUP1 PUSH1 0x20 ADD DUP3 DUP2 SUB DUP3 MSTORE PUSH1 0x28 DUP2 MSTORE PUSH1 0x20 ADD DUP1 PUSH2 0x3FD8 PUSH1 0x28 SWAP2 CODECOPY PUSH1 0x40 ADD SWAP2 POP POP PUSH1 0x40 MLOAD DUP1 SWAP2 SUB SWAP1 REVERT JUMPDEST PUSH2 0xE6E DUP7 DUP7 PUSH1 0x0 DUP2 DUP2 LT PUSH2 0xDE0 JUMPI INVALID JUMPDEST SWAP1 POP PUSH1 0x20 MUL ADD CALLDATALOAD PUSH1 0x1 PUSH1 0x1 PUSH1 0xA0 SHL SUB AND CALLER PUSH2 0xE54 PUSH32 0x0 DUP11 DUP11 PUSH1 0x0 DUP2 DUP2 LT PUSH2 0xE22 JUMPI INVALID JUMPDEST SWAP1 POP PUSH1 0x20 MUL ADD CALLDATALOAD PUSH1 0x1 PUSH1 0x1 PUSH1 0xA0 SHL SUB AND DUP12 DUP12 PUSH1 0x1 DUP2 DUP2 LT PUSH2 0xE3F JUMPI INVALID JUMPDEST SWAP1 POP PUSH1 0x20 MUL ADD CALLDATALOAD PUSH1 0x1 PUSH1 0x1 PUSH1 0xA0 SHL SUB AND PUSH2 0x2F53 JUMP JUMPDEST DUP6 PUSH1 0x0 DUP2 MLOAD DUP2 LT PUSH2 0xE61 JUMPI INVALID JUMPDEST PUSH1 0x20 MUL PUSH1 0x20 ADD ADD MLOAD PUSH2 0x3012 JUMP JUMPDEST PUSH2 0xEAD DUP3 DUP8 DUP8 DUP1 DUP1 PUSH1 0x20 MUL PUSH1 0x20 ADD PUSH1 0x40 MLOAD SWAP1 DUP2 ADD PUSH1 0x40 MSTORE DUP1 SWAP4 SWAP3 SWAP2 SWAP1 DUP2 DUP2 MSTORE PUSH1 0x20 ADD DUP4 DUP4 PUSH1 0x20 MUL DUP1 DUP3 DUP5 CALLDATACOPY PUSH1 0x0 SWAP3 ADD SWAP2 SWAP1 SWAP2 MSTORE POP ADDRESS SWAP3 POP PUSH2 0x316F SWAP2 POP POP JUMP JUMPDEST PUSH32 0x0 PUSH1 0x1 PUSH1 0x1 PUSH1 0xA0 SHL SUB AND PUSH4 0x2E1A7D4D DUP4 PUSH1 0x1 DUP6 MLOAD SUB DUP2 MLOAD DUP2 LT PUSH2 0xEEC JUMPI INVALID JUMPDEST PUSH1 0x20 MUL PUSH1 0x20 ADD ADD MLOAD PUSH1 0x40 MLOAD DUP3 PUSH4 0xFFFFFFFF AND PUSH1 0xE0 SHL DUP2 MSTORE PUSH1 0x4 ADD DUP1 DUP3 DUP2 MSTORE PUSH1 0x20 ADD SWAP2 POP POP PUSH1 0x0 PUSH1 0x40 MLOAD DUP1 DUP4 SUB DUP2 PUSH1 0x0 DUP8 DUP1 EXTCODESIZE ISZERO DUP1 ISZERO PUSH2 0xF2A JUMPI PUSH1 0x0 DUP1 REVERT JUMPDEST POP GAS CALL ISZERO DUP1 ISZERO PUSH2 0xF3E JUMPI RETURNDATASIZE PUSH1 0x0 DUP1 RETURNDATACOPY RETURNDATASIZE PUSH1 0x0 REVERT JUMPDEST POP POP POP POP PUSH2 0xF63 DUP5 DUP4 PUSH1 0x1 DUP6 MLOAD SUB DUP2 MLOAD DUP2 LT PUSH2 0xF56 JUMPI INVALID JUMPDEST PUSH1 0x20 MUL PUSH1 0x20 ADD ADD MLOAD PUSH2 0x2C37 JUMP JUMPDEST POP SWAP7 SWAP6 POP POP POP POP POP POP JUMP JUMPDEST PUSH1 0x60 PUSH2 0xF9B PUSH32 0x0 DUP5 DUP5 PUSH2 0x33AC JUMP JUMPDEST SWAP1 POP JUMPDEST SWAP3 SWAP2 POP POP JUMP JUMPDEST PUSH1 0x60 DUP2 TIMESTAMP DUP2 LT ISZERO PUSH2 0xFEA JUMPI PUSH1 0x40 DUP1 MLOAD PUSH3 0x461BCD PUSH1 0xE5 SHL DUP2 MSTORE PUSH1 0x20 PUSH1 0x4 DUP3 ADD MSTORE PUSH1 0x15 PUSH1 0x24 DUP3 ADD MSTORE PUSH1 0x0 DUP1 MLOAD PUSH1 0x20 PUSH2 0x3E9D DUP4 CODECOPY DUP2 MLOAD SWAP2 MSTORE PUSH1 0x44 DUP3 ADD MSTORE SWAP1 MLOAD SWAP1 DUP2 SWAP1 SUB PUSH1 0x64 ADD SWAP1 REVERT JUMPDEST PUSH2 0x1048 PUSH32 0x0 DUP10 DUP9 DUP9 DUP1 DUP1 PUSH1 0x20 MUL PUSH1 0x20 ADD PUSH1 0x40 MLOAD SWAP1 DUP2 ADD PUSH1 0x40 MSTORE DUP1 SWAP4 SWAP3 SWAP2 SWAP1 DUP2 DUP2 MSTORE PUSH1 0x20 ADD DUP4 DUP4 PUSH1 0x20 MUL DUP1 DUP3 DUP5 CALLDATACOPY PUSH1 0x0 SWAP3 ADD SWAP2 SWAP1 SWAP2 MSTORE POP PUSH2 0x2E07 SWAP3 POP POP POP JUMP JUMPDEST SWAP2 POP DUP7 DUP3 PUSH1 0x1 DUP5 MLOAD SUB DUP2 MLOAD DUP2 LT PUSH2 0x105B JUMPI INVALID JUMPDEST PUSH1 0x20 MUL PUSH1 0x20 ADD ADD MLOAD LT ISZERO PUSH2 0x10A0 JUMPI PUSH1 0x40 MLOAD PUSH3 0x461BCD PUSH1 0xE5 SHL DUP2 MSTORE PUSH1 0x4 ADD DUP1 DUP1 PUSH1 0x20 ADD DUP3 DUP2 SUB DUP3 MSTORE PUSH1 0x28 DUP2 MSTORE PUSH1 0x20 ADD DUP1 PUSH2 0x3FD8 PUSH1 0x28 SWAP2 CODECOPY PUSH1 0x40 ADD SWAP2 POP POP PUSH1 0x40 MLOAD DUP1 SWAP2 SUB SWAP1 REVERT JUMPDEST PUSH2 0x10B0 DUP7 DUP7 PUSH1 0x0 DUP2 DUP2 LT PUSH2 0xDE0 JUMPI INVALID JUMPDEST PUSH2 0xF63 DUP3 DUP8 DUP8 DUP1 DUP1 PUSH1 0x20 MUL PUSH1 0x20 ADD PUSH1 0x40 MLOAD SWAP1 DUP2 ADD PUSH1 0x40 MSTORE DUP1 SWAP4 SWAP3 SWAP2 SWAP1 DUP2 DUP2 MSTORE PUSH1 0x20 ADD DUP4 DUP4 PUSH1 0x20 MUL DUP1 DUP3 DUP5 CALLDATACOPY PUSH1 0x0 SWAP3 ADD SWAP2 SWAP1 SWAP2 MSTORE POP DUP10 SWAP3 POP PUSH2 0x316F SWAP2 POP POP JUMP JUMPDEST PUSH1 0x60 DUP2 TIMESTAMP DUP2 LT ISZERO PUSH2 0x1135 JUMPI PUSH1 0x40 DUP1 MLOAD PUSH3 0x461BCD PUSH1 0xE5 SHL DUP2 MSTORE PUSH1 0x20 PUSH1 0x4 DUP3 ADD MSTORE PUSH1 0x15 PUSH1 0x24 DUP3 ADD MSTORE PUSH1 0x0 DUP1 MLOAD PUSH1 0x20 PUSH2 0x3E9D DUP4 CODECOPY DUP2 MLOAD SWAP2 MSTORE PUSH1 0x44 DUP3 ADD MSTORE SWAP1 MLOAD SWAP1 DUP2 SWAP1 SUB PUSH1 0x64 ADD SWAP1 REVERT JUMPDEST PUSH1 0x1 PUSH1 0x1 PUSH1 0xA0 SHL SUB PUSH32 0x0 AND DUP7 DUP7 PUSH1 0x0 NOT DUP2 ADD DUP2 DUP2 LT PUSH2 0x116F JUMPI INVALID JUMPDEST SWAP1 POP PUSH1 0x20 MUL ADD CALLDATALOAD PUSH1 0x1 PUSH1 0x1 PUSH1 0xA0 SHL SUB AND PUSH1 0x1 PUSH1 0x1 PUSH1 0xA0 SHL SUB AND EQ PUSH2 0x11C8 JUMPI PUSH1 0x40 DUP1 MLOAD PUSH3 0x461BCD PUSH1 0xE5 SHL DUP2 MSTORE PUSH1 0x20 PUSH1 0x4 DUP3 ADD MSTORE PUSH1 0x1A PUSH1 0x24 DUP3 ADD MSTORE PUSH1 0x0 DUP1 MLOAD PUSH1 0x20 PUSH2 0x3EE2 DUP4 CODECOPY DUP2 MLOAD SWAP2 MSTORE PUSH1 0x44 DUP3 ADD MSTORE SWAP1 MLOAD SWAP1 DUP2 SWAP1 SUB PUSH1 0x64 ADD SWAP1 REVERT JUMPDEST PUSH2 0x1226 PUSH32 0x0 DUP10 DUP9 DUP9 DUP1 DUP1 PUSH1 0x20 MUL PUSH1 0x20 ADD PUSH1 0x40 MLOAD SWAP1 DUP2 ADD PUSH1 0x40 MSTORE DUP1 SWAP4 SWAP3 SWAP2 SWAP1 DUP2 DUP2 MSTORE PUSH1 0x20 ADD DUP4 DUP4 PUSH1 0x20 MUL DUP1 DUP3 DUP5 CALLDATACOPY PUSH1 0x0 SWAP3 ADD SWAP2 SWAP1 SWAP2 MSTORE POP PUSH2 0x33AC SWAP3 POP POP POP JUMP JUMPDEST SWAP2 POP DUP7 DUP3 PUSH1 0x0 DUP2 MLOAD DUP2 LT PUSH2 0x1236 JUMPI INVALID JUMPDEST PUSH1 0x20 MUL PUSH1 0x20 ADD ADD MLOAD GT ISZERO PUSH2 0xDD0 JUMPI PUSH1 0x40 MLOAD PUSH3 0x461BCD PUSH1 0xE5 SHL DUP2 MSTORE PUSH1 0x4 ADD DUP1 DUP1 PUSH1 0x20 ADD DUP3 DUP2 SUB DUP3 MSTORE PUSH1 0x24 DUP2 MSTORE PUSH1 0x20 ADD DUP1 PUSH2 0x3F6F PUSH1 0x24 SWAP2 CODECOPY PUSH1 0x40 ADD SWAP2 POP POP PUSH1 0x40 MLOAD DUP1 SWAP2 SUB SWAP1 REVERT JUMPDEST DUP1 TIMESTAMP DUP2 LT ISZERO PUSH2 0x12BF JUMPI PUSH1 0x40 DUP1 MLOAD PUSH3 0x461BCD PUSH1 0xE5 SHL DUP2 MSTORE PUSH1 0x20 PUSH1 0x4 DUP3 ADD MSTORE PUSH1 0x15 PUSH1 0x24 DUP3 ADD MSTORE PUSH1 0x0 DUP1 MLOAD PUSH1 0x20 PUSH2 0x3E9D DUP4 CODECOPY DUP2 MLOAD SWAP2 MSTORE PUSH1 0x44 DUP3 ADD MSTORE SWAP1 MLOAD SWAP1 DUP2 SWAP1 SUB PUSH1 0x64 ADD SWAP1 REVERT JUMPDEST PUSH2 0x1334 DUP6 DUP6 PUSH1 0x0 DUP2 DUP2 LT PUSH2 0x12CF JUMPI INVALID JUMPDEST SWAP1 POP PUSH1 0x20 MUL ADD CALLDATALOAD PUSH1 0x1 PUSH1 0x1 PUSH1 0xA0 SHL SUB AND CALLER PUSH2 0x132E PUSH32 0x0 DUP10 DUP10 PUSH1 0x0 DUP2 DUP2 LT PUSH2 0x1311 JUMPI INVALID JUMPDEST SWAP1 POP PUSH1 0x20 MUL ADD CALLDATALOAD PUSH1 0x1 PUSH1 0x1 PUSH1 0xA0 SHL SUB AND DUP11 DUP11 PUSH1 0x1 DUP2 DUP2 LT PUSH2 0xE3F JUMPI INVALID JUMPDEST DUP11 PUSH2 0x3012 JUMP JUMPDEST PUSH1 0x0 DUP6 DUP6 PUSH1 0x0 NOT DUP2 ADD DUP2 DUP2 LT PUSH2 0x1346 JUMPI INVALID JUMPDEST SWAP1 POP PUSH1 0x20 MUL ADD CALLDATALOAD PUSH1 0x1 PUSH1 0x1 PUSH1 0xA0 SHL SUB AND PUSH1 0x1 PUSH1 0x1 PUSH1 0xA0 SHL SUB AND PUSH4 0x70A08231 DUP6 PUSH1 0x40 MLOAD DUP3 PUSH4 0xFFFFFFFF AND PUSH1 0xE0 SHL DUP2 MSTORE PUSH1 0x4 ADD DUP1 DUP3 PUSH1 0x1 PUSH1 0x1 PUSH1 0xA0 SHL SUB AND DUP2 MSTORE PUSH1 0x20 ADD SWAP2 POP POP PUSH1 0x20 PUSH1 0x40 MLOAD DUP1 DUP4 SUB DUP2 DUP7 DUP1 EXTCODESIZE ISZERO DUP1 ISZERO PUSH2 0x13A2 JUMPI PUSH1 0x0 DUP1 REVERT JUMPDEST POP GAS STATICCALL ISZERO DUP1 ISZERO PUSH2 0x13B6 JUMPI RETURNDATASIZE PUSH1 0x0 DUP1 RETURNDATACOPY RETURNDATASIZE PUSH1 0x0 REVERT JUMPDEST POP POP POP POP PUSH1 0x40 MLOAD RETURNDATASIZE PUSH1 0x20 DUP2 LT ISZERO PUSH2 0x13CC JUMPI PUSH1 0x0 DUP1 REVERT JUMPDEST POP MLOAD PUSH1 0x40 DUP1 MLOAD PUSH1 0x20 DUP9 DUP2 MUL DUP3 DUP2 ADD DUP3 ADD SWAP1 SWAP4 MSTORE DUP9 DUP3 MSTORE SWAP3 SWAP4 POP PUSH2 0x140E SWAP3 SWAP1 SWAP2 DUP10 SWAP2 DUP10 SWAP2 DUP3 SWAP2 DUP6 ADD SWAP1 DUP5 SWAP1 DUP1 DUP3 DUP5 CALLDATACOPY PUSH1 0x0 SWAP3 ADD SWAP2 SWAP1 SWAP2 MSTORE POP DUP9 SWAP3 POP PUSH2 0x34E4 SWAP2 POP POP JUMP JUMPDEST DUP7 PUSH2 0x14B1 DUP3 DUP9 DUP9 PUSH1 0x0 NOT DUP2 ADD DUP2 DUP2 LT PUSH2 0x1423 JUMPI INVALID JUMPDEST SWAP1 POP PUSH1 0x20 MUL ADD CALLDATALOAD PUSH1 0x1 PUSH1 0x1 PUSH1 0xA0 SHL SUB AND PUSH1 0x1 PUSH1 0x1 PUSH1 0xA0 SHL SUB AND PUSH4 0x70A08231 DUP9 PUSH1 0x40 MLOAD DUP3 PUSH4 0xFFFFFFFF AND PUSH1 0xE0 SHL DUP2 MSTORE PUSH1 0x4 ADD DUP1 DUP3 PUSH1 0x1 PUSH1 0x1 PUSH1 0xA0 SHL SUB AND DUP2 MSTORE PUSH1 0x20 ADD SWAP2 POP POP PUSH1 0x20 PUSH1 0x40 MLOAD DUP1 DUP4 SUB DUP2 DUP7 DUP1 EXTCODESIZE ISZERO DUP1 ISZERO PUSH2 0x147F JUMPI PUSH1 0x0 DUP1 REVERT JUMPDEST POP GAS STATICCALL ISZERO DUP1 ISZERO PUSH2 0x1493 JUMPI RETURNDATASIZE PUSH1 0x0 DUP1 RETURNDATACOPY RETURNDATASIZE PUSH1 0x0 REVERT JUMPDEST POP POP POP POP PUSH1 0x40 MLOAD RETURNDATASIZE PUSH1 0x20 DUP2 LT ISZERO PUSH2 0x14A9 JUMPI PUSH1 0x0 DUP1 REVERT JUMPDEST POP MLOAD SWAP1 PUSH2 0x37E6 JUMP JUMPDEST LT ISZERO PUSH2 0x14EE JUMPI PUSH1 0x40 MLOAD PUSH3 0x461BCD PUSH1 0xE5 SHL DUP2 MSTORE PUSH1 0x4 ADD DUP1 DUP1 PUSH1 0x20 ADD DUP3 DUP2 SUB DUP3 MSTORE PUSH1 0x28 DUP2 MSTORE PUSH1 0x20 ADD DUP1 PUSH2 0x3FD8 PUSH1 0x28 SWAP2 CODECOPY PUSH1 0x40 ADD SWAP2 POP POP PUSH1 0x40 MLOAD DUP1 SWAP2 SUB SWAP1 REVERT JUMPDEST POP POP POP POP POP POP POP POP JUMP JUMPDEST DUP1 TIMESTAMP DUP2 LT ISZERO PUSH2 0x153C JUMPI PUSH1 0x40 DUP1 MLOAD PUSH3 0x461BCD PUSH1 0xE5 SHL DUP2 MSTORE PUSH1 0x20 PUSH1 0x4 DUP3 ADD MSTORE PUSH1 0x15 PUSH1 0x24 DUP3 ADD MSTORE PUSH1 0x0 DUP1 MLOAD PUSH1 0x20 PUSH2 0x3E9D DUP4 CODECOPY DUP2 MLOAD SWAP2 MSTORE PUSH1 0x44 DUP3 ADD MSTORE SWAP1 MLOAD SWAP1 DUP2 SWAP1 SUB PUSH1 0x64 ADD SWAP1 REVERT JUMPDEST PUSH1 0x1 PUSH1 0x1 PUSH1 0xA0 SHL SUB PUSH32 0x0 AND DUP6 DUP6 PUSH1 0x0 NOT DUP2 ADD DUP2 DUP2 LT PUSH2 0x1576 JUMPI INVALID JUMPDEST SWAP1 POP PUSH1 0x20 MUL ADD CALLDATALOAD PUSH1 0x1 PUSH1 0x1 PUSH1 0xA0 SHL SUB AND PUSH1 0x1 PUSH1 0x1 PUSH1 0xA0 SHL SUB AND EQ PUSH2 0x15CF JUMPI PUSH1 0x40 DUP1 MLOAD PUSH3 0x461BCD PUSH1 0xE5 SHL DUP2 MSTORE PUSH1 0x20 PUSH1 0x4 DUP3 ADD MSTORE PUSH1 0x1A PUSH1 0x24 DUP3 ADD MSTORE PUSH1 0x0 DUP1 MLOAD PUSH1 0x20 PUSH2 0x3EE2 DUP4 CODECOPY DUP2 MLOAD SWAP2 MSTORE PUSH1 0x44 DUP3 ADD MSTORE SWAP1 MLOAD SWAP1 DUP2 SWAP1 SUB PUSH1 0x64 ADD SWAP1 REVERT JUMPDEST PUSH2 0x15DF DUP6 DUP6 PUSH1 0x0 DUP2 DUP2 LT PUSH2 0x12CF JUMPI INVALID JUMPDEST PUSH2 0x161D DUP6 DUP6 DUP1 DUP1 PUSH1 0x20 MUL PUSH1 0x20 ADD PUSH1 0x40 MLOAD SWAP1 DUP2 ADD PUSH1 0x40 MSTORE DUP1 SWAP4 SWAP3 SWAP2 SWAP1 DUP2 DUP2 MSTORE PUSH1 0x20 ADD DUP4 DUP4 PUSH1 0x20 MUL DUP1 DUP3 DUP5 CALLDATACOPY PUSH1 0x0 SWAP3 ADD SWAP2 SWAP1 SWAP2 MSTORE POP ADDRESS SWAP3 POP PUSH2 0x34E4 SWAP2 POP POP JUMP JUMPDEST PUSH1 0x0 PUSH32 0x0 PUSH1 0x1 PUSH1 0x1 PUSH1 0xA0 SHL SUB AND PUSH4 0x70A08231 ADDRESS PUSH1 0x40 MLOAD DUP3 PUSH4 0xFFFFFFFF AND PUSH1 0xE0 SHL DUP2 MSTORE PUSH1 0x4 ADD DUP1 DUP3 PUSH1 0x1 PUSH1 0x1 PUSH1 0xA0 SHL SUB AND DUP2 MSTORE PUSH1 0x20 ADD SWAP2 POP POP PUSH1 0x20 PUSH1 0x40 MLOAD DUP1 DUP4 SUB DUP2 DUP7 DUP1 EXTCODESIZE ISZERO DUP1 ISZERO PUSH2 0x168C JUMPI PUSH1 0x0 DUP1 REVERT JUMPDEST POP GAS STATICCALL ISZERO DUP1 ISZERO PUSH2 0x16A0 JUMPI RETURNDATASIZE PUSH1 0x0 DUP1 RETURNDATACOPY RETURNDATASIZE PUSH1 0x0 REVERT JUMPDEST POP POP POP POP PUSH1 0x40 MLOAD RETURNDATASIZE PUSH1 0x20 DUP2 LT ISZERO PUSH2 0x16B6 JUMPI PUSH1 0x0 DUP1 REVERT JUMPDEST POP MLOAD SWAP1 POP DUP7 DUP2 LT ISZERO PUSH2 0x16F9 JUMPI PUSH1 0x40 MLOAD PUSH3 0x461BCD PUSH1 0xE5 SHL DUP2 MSTORE PUSH1 0x4 ADD DUP1 DUP1 PUSH1 0x20 ADD DUP3 DUP2 SUB DUP3 MSTORE PUSH1 0x28 DUP2 MSTORE PUSH1 0x20 ADD DUP1 PUSH2 0x3FD8 PUSH1 0x28 SWAP2 CODECOPY PUSH1 0x40 ADD SWAP2 POP POP PUSH1 0x40 MLOAD DUP1 SWAP2 SUB SWAP1 REVERT JUMPDEST PUSH32 0x0 PUSH1 0x1 PUSH1 0x1 PUSH1 0xA0 SHL SUB AND PUSH4 0x2E1A7D4D DUP3 PUSH1 0x40 MLOAD DUP3 PUSH4 0xFFFFFFFF AND PUSH1 0xE0 SHL DUP2 MSTORE PUSH1 0x4 ADD DUP1 DUP3 DUP2 MSTORE PUSH1 0x20 ADD SWAP2 POP POP PUSH1 0x0 PUSH1 0x40 MLOAD DUP1 DUP4 SUB DUP2 PUSH1 0x0 DUP8 DUP1 EXTCODESIZE ISZERO DUP1 ISZERO PUSH2 0x175F JUMPI PUSH1 0x0 DUP1 REVERT JUMPDEST POP GAS CALL ISZERO DUP1 ISZERO PUSH2 0x1773 JUMPI RETURNDATASIZE PUSH1 0x0 DUP1 RETURNDATACOPY RETURNDATASIZE PUSH1 0x0 REVERT JUMPDEST POP POP POP POP PUSH2 0x14EE DUP5 DUP3 PUSH2 0x2C37 JUMP JUMPDEST PUSH1 0x60 DUP2 TIMESTAMP DUP2 LT ISZERO PUSH2 0x17C7 JUMPI PUSH1 0x40 DUP1 MLOAD PUSH3 0x461BCD PUSH1 0xE5 SHL DUP2 MSTORE PUSH1 0x20 PUSH1 0x4 DUP3 ADD MSTORE PUSH1 0x15 PUSH1 0x24 DUP3 ADD MSTORE PUSH1 0x0 DUP1 MLOAD PUSH1 0x20 PUSH2 0x3E9D DUP4 CODECOPY DUP2 MLOAD SWAP2 MSTORE PUSH1 0x44 DUP3 ADD MSTORE SWAP1 MLOAD SWAP1 DUP2 SWAP1 SUB PUSH1 0x64 ADD SWAP1 REVERT JUMPDEST PUSH32 0x0 PUSH1 0x1 PUSH1 0x1 PUSH1 0xA0 SHL SUB AND DUP7 DUP7 PUSH1 0x0 DUP2 DUP2 LT PUSH2 0x17FE JUMPI INVALID JUMPDEST SWAP1 POP PUSH1 0x20 MUL ADD CALLDATALOAD PUSH1 0x1 PUSH1 0x1 PUSH1 0xA0 SHL SUB AND PUSH1 0x1 PUSH1 0x1 PUSH1 0xA0 SHL SUB AND EQ PUSH2 0x1857 JUMPI PUSH1 0x40 DUP1 MLOAD PUSH3 0x461BCD PUSH1 0xE5 SHL DUP2 MSTORE PUSH1 0x20 PUSH1 0x4 DUP3 ADD MSTORE PUSH1 0x1A PUSH1 0x24 DUP3 ADD MSTORE PUSH1 0x0 DUP1 MLOAD PUSH1 0x20 PUSH2 0x3EE2 DUP4 CODECOPY DUP2 MLOAD SWAP2 MSTORE PUSH1 0x44 DUP3 ADD MSTORE SWAP1 MLOAD SWAP1 DUP2 SWAP1 SUB PUSH1 0x64 ADD SWAP1 REVERT JUMPDEST PUSH2 0x18B5 PUSH32 0x0 CALLVALUE DUP9 DUP9 DUP1 DUP1 PUSH1 0x20 MUL PUSH1 0x20 ADD PUSH1 0x40 MLOAD SWAP1 DUP2 ADD PUSH1 0x40 MSTORE DUP1 SWAP4 SWAP3 SWAP2 SWAP1 DUP2 DUP2 MSTORE PUSH1 0x20 ADD DUP4 DUP4 PUSH1 0x20 MUL DUP1 DUP3 DUP5 CALLDATACOPY PUSH1 0x0 SWAP3 ADD SWAP2 SWAP1 SWAP2 MSTORE POP PUSH2 0x2E07 SWAP3 POP POP POP JUMP JUMPDEST SWAP2 POP DUP7 DUP3 PUSH1 0x1 DUP5 MLOAD SUB DUP2 MLOAD DUP2 LT PUSH2 0x18C8 JUMPI INVALID JUMPDEST PUSH1 0x20 MUL PUSH1 0x20 ADD ADD MLOAD LT ISZERO PUSH2 0x190D JUMPI PUSH1 0x40 MLOAD PUSH3 0x461BCD PUSH1 0xE5 SHL DUP2 MSTORE PUSH1 0x4 ADD DUP1 DUP1 PUSH1 0x20 ADD DUP3 DUP2 SUB DUP3 MSTORE PUSH1 0x28 DUP2 MSTORE PUSH1 0x20 ADD DUP1 PUSH2 0x3FD8 PUSH1 0x28 SWAP2 CODECOPY PUSH1 0x40 ADD SWAP2 POP POP PUSH1 0x40 MLOAD DUP1 SWAP2 SUB SWAP1 REVERT JUMPDEST PUSH32 0x0 PUSH1 0x1 PUSH1 0x1 PUSH1 0xA0 SHL SUB AND PUSH4 0xD0E30DB0 DUP4 PUSH1 0x0 DUP2 MLOAD DUP2 LT PUSH2 0x1949 JUMPI INVALID JUMPDEST PUSH1 0x20 MUL PUSH1 0x20 ADD ADD MLOAD PUSH1 0x40 MLOAD DUP3 PUSH4 0xFFFFFFFF AND PUSH1 0xE0 SHL DUP2 MSTORE PUSH1 0x4 ADD PUSH1 0x0 PUSH1 0x40 MLOAD DUP1 DUP4 SUB DUP2 DUP6 DUP9 DUP1 EXTCODESIZE ISZERO DUP1 ISZERO PUSH2 0x197C JUMPI PUSH1 0x0 DUP1 REVERT JUMPDEST POP GAS CALL ISZERO DUP1 ISZERO PUSH2 0x1990 JUMPI RETURNDATASIZE PUSH1 0x0 DUP1 RETURNDATACOPY RETURNDATASIZE PUSH1 0x0 REVERT JUMPDEST POP POP POP POP POP PUSH32 0x0 PUSH1 0x1 PUSH1 0x1 PUSH1 0xA0 SHL SUB AND PUSH4 0xA9059CBB PUSH2 0x19F5 PUSH32 0x0 DUP10 DUP10 PUSH1 0x0 DUP2 DUP2 LT PUSH2 0x1311 JUMPI INVALID JUMPDEST DUP5 PUSH1 0x0 DUP2 MLOAD DUP2 LT PUSH2 0x1A02 JUMPI INVALID JUMPDEST PUSH1 0x20 MUL PUSH1 0x20 ADD ADD MLOAD PUSH1 0x40 MLOAD DUP4 PUSH4 0xFFFFFFFF AND PUSH1 0xE0 SHL DUP2 MSTORE PUSH1 0x4 ADD DUP1 DUP4 PUSH1 0x1 PUSH1 0x1 PUSH1 0xA0 SHL SUB AND DUP2 MSTORE PUSH1 0x20 ADD DUP3 DUP2 MSTORE PUSH1 0x20 ADD SWAP3 POP POP POP PUSH1 0x20 PUSH1 0x40 MLOAD DUP1 DUP4 SUB DUP2 PUSH1 0x0 DUP8 DUP1 EXTCODESIZE ISZERO DUP1 ISZERO PUSH2 0x1A50 JUMPI PUSH1 0x0 DUP1 REVERT JUMPDEST POP GAS CALL ISZERO DUP1 ISZERO PUSH2 0x1A64 JUMPI RETURNDATASIZE PUSH1 0x0 DUP1 RETURNDATACOPY RETURNDATASIZE PUSH1 0x0 REVERT JUMPDEST POP POP POP POP PUSH1 0x40 MLOAD RETURNDATASIZE PUSH1 0x20 DUP2 LT ISZERO PUSH2 0x1A7A JUMPI PUSH1 0x0 DUP1 REVERT JUMPDEST POP MLOAD PUSH2 0x1A82 JUMPI INVALID JUMPDEST PUSH2 0x1AC1 DUP3 DUP8 DUP8 DUP1 DUP1 PUSH1 0x20 MUL PUSH1 0x20 ADD PUSH1 0x40 MLOAD SWAP1 DUP2 ADD PUSH1 0x40 MSTORE DUP1 SWAP4 SWAP3 SWAP2 SWAP1 DUP2 DUP2 MSTORE PUSH1 0x20 ADD DUP4 DUP4 PUSH1 0x20 MUL DUP1 DUP3 DUP5 CALLDATACOPY PUSH1 0x0 SWAP3 ADD SWAP2 SWAP1 SWAP2 MSTORE POP DUP10 SWAP3 POP PUSH2 0x316F SWAP2 POP POP JUMP JUMPDEST POP SWAP6 SWAP5 POP POP POP POP POP JUMP JUMPDEST PUSH1 0x0 PUSH2 0xC39 DUP5 DUP5 DUP5 PUSH2 0x3836 JUMP JUMPDEST PUSH1 0x60 DUP2 TIMESTAMP DUP2 LT ISZERO PUSH2 0x1B1E JUMPI PUSH1 0x40 DUP1 MLOAD PUSH3 0x461BCD PUSH1 0xE5 SHL DUP2 MSTORE PUSH1 0x20 PUSH1 0x4 DUP3 ADD MSTORE PUSH1 0x15 PUSH1 0x24 DUP3 ADD MSTORE PUSH1 0x0 DUP1 MLOAD PUSH1 0x20 PUSH2 0x3E9D DUP4 CODECOPY DUP2 MLOAD SWAP2 MSTORE PUSH1 0x44 DUP3 ADD MSTORE SWAP1 MLOAD SWAP1 DUP2 SWAP1 SUB PUSH1 0x64 ADD SWAP1 REVERT JUMPDEST PUSH2 0x1B7C PUSH32 0x0 DUP10 DUP9 DUP9 DUP1 DUP1 PUSH1 0x20 MUL PUSH1 0x20 ADD PUSH1 0x40 MLOAD SWAP1 DUP2 ADD PUSH1 0x40 MSTORE DUP1 SWAP4 SWAP3 SWAP2 SWAP1 DUP2 DUP2 MSTORE PUSH1 0x20 ADD DUP4 DUP4 PUSH1 0x20 MUL DUP1 DUP3 DUP5 CALLDATACOPY PUSH1 0x0 SWAP3 ADD SWAP2 SWAP1 SWAP2 MSTORE POP PUSH2 0x33AC SWAP3 POP POP POP JUMP JUMPDEST SWAP2 POP DUP7 DUP3 PUSH1 0x0 DUP2 MLOAD DUP2 LT PUSH2 0x1B8C JUMPI INVALID JUMPDEST PUSH1 0x20 MUL PUSH1 0x20 ADD ADD MLOAD GT ISZERO PUSH2 0x10A0 JUMPI PUSH1 0x40 MLOAD PUSH3 0x461BCD PUSH1 0xE5 SHL DUP2 MSTORE PUSH1 0x4 ADD DUP1 DUP1 PUSH1 0x20 ADD DUP3 DUP2 SUB DUP3 MSTORE PUSH1 0x24 DUP2 MSTORE PUSH1 0x20 ADD DUP1 PUSH2 0x3F6F PUSH1 0x24 SWAP2 CODECOPY PUSH1 0x40 ADD SWAP2 POP POP PUSH1 0x40 MLOAD DUP1 SWAP2 SUB SWAP1 REVERT JUMPDEST PUSH32 0x0 DUP2 JUMP JUMPDEST PUSH1 0x0 PUSH2 0xC39 DUP5 DUP5 DUP5 PUSH2 0x390E JUMP JUMPDEST PUSH1 0x0 DUP2 TIMESTAMP DUP2 LT ISZERO PUSH2 0x1C48 JUMPI PUSH1 0x40 DUP1 MLOAD PUSH3 0x461BCD PUSH1 0xE5 SHL DUP2 MSTORE PUSH1 0x20 PUSH1 0x4 DUP3 ADD MSTORE PUSH1 0x15 PUSH1 0x24 DUP3 ADD MSTORE PUSH1 0x0 DUP1 MLOAD PUSH1 0x20 PUSH2 0x3E9D DUP4 CODECOPY DUP2 MLOAD SWAP2 MSTORE PUSH1 0x44 DUP3 ADD MSTORE SWAP1 MLOAD SWAP1 DUP2 SWAP1 SUB PUSH1 0x64 ADD SWAP1 REVERT JUMPDEST PUSH2 0x1C77 DUP9 PUSH32 0x0 DUP10 DUP10 DUP10 ADDRESS DUP10 PUSH2 0x20F9 JUMP JUMPDEST SWAP1 POP DUP1 SWAP3 POP POP PUSH2 0x1D00 DUP9 DUP6 DUP11 PUSH1 0x1 PUSH1 0x1 PUSH1 0xA0 SHL SUB AND PUSH4 0x70A08231 ADDRESS PUSH1 0x40 MLOAD DUP3 PUSH4 0xFFFFFFFF AND PUSH1 0xE0 SHL DUP2 MSTORE PUSH1 0x4 ADD DUP1 DUP3 PUSH1 0x1 PUSH1 0x1 PUSH1 0xA0 SHL SUB AND DUP2 MSTORE PUSH1 0x20 ADD SWAP2 POP POP PUSH1 0x20 PUSH1 0x40 MLOAD DUP1 DUP4 SUB DUP2 DUP7 DUP1 EXTCODESIZE ISZERO DUP1 ISZERO PUSH2 0x1CCF JUMPI PUSH1 0x0 DUP1 REVERT JUMPDEST POP GAS STATICCALL ISZERO DUP1 ISZERO PUSH2 0x1CE3 JUMPI RETURNDATASIZE PUSH1 0x0 DUP1 RETURNDATACOPY RETURNDATASIZE PUSH1 0x0 REVERT JUMPDEST POP POP POP POP PUSH1 0x40 MLOAD RETURNDATASIZE PUSH1 0x20 DUP2 LT ISZERO PUSH2 0x1CF9 JUMPI PUSH1 0x0 DUP1 REVERT JUMPDEST POP MLOAD PUSH2 0x2ACD JUMP JUMPDEST PUSH32 0x0 PUSH1 0x1 PUSH1 0x1 PUSH1 0xA0 SHL SUB AND PUSH4 0x2E1A7D4D DUP4 PUSH1 0x40 MLOAD DUP3 PUSH4 0xFFFFFFFF AND PUSH1 0xE0 SHL DUP2 MSTORE PUSH1 0x4 ADD DUP1 DUP3 DUP2 MSTORE PUSH1 0x20 ADD SWAP2 POP POP PUSH1 0x0 PUSH1 0x40 MLOAD DUP1 DUP4 SUB DUP2 PUSH1 0x0 DUP8 DUP1 EXTCODESIZE ISZERO DUP1 ISZERO PUSH2 0x1D66 JUMPI PUSH1 0x0 DUP1 REVERT JUMPDEST POP GAS CALL ISZERO DUP1 ISZERO PUSH2 0x1D7A JUMPI RETURNDATASIZE PUSH1 0x0 DUP1 RETURNDATACOPY RETURNDATASIZE PUSH1 0x0 REVERT JUMPDEST POP POP POP POP PUSH2 0xF63 DUP5 DUP4 PUSH2 0x2C37 JUMP JUMPDEST DUP1 TIMESTAMP DUP2 LT ISZERO PUSH2 0x1DCC JUMPI PUSH1 0x40 DUP1 MLOAD PUSH3 0x461BCD PUSH1 0xE5 SHL DUP2 MSTORE PUSH1 0x20 PUSH1 0x4 DUP3 ADD MSTORE PUSH1 0x15 PUSH1 0x24 DUP3 ADD MSTORE PUSH1 0x0 DUP1 MLOAD PUSH1 0x20 PUSH2 0x3E9D DUP4 CODECOPY DUP2 MLOAD SWAP2 MSTORE PUSH1 0x44 DUP3 ADD MSTORE SWAP1 MLOAD SWAP1 DUP2 SWAP1 SUB PUSH1 0x64 ADD SWAP1 REVERT JUMPDEST PUSH32 0x0 PUSH1 0x1 PUSH1 0x1 PUSH1 0xA0 SHL SUB AND DUP6 DUP6 PUSH1 0x0 DUP2 DUP2 LT PUSH2 0x1E03 JUMPI INVALID JUMPDEST SWAP1 POP PUSH1 0x20 MUL ADD CALLDATALOAD PUSH1 0x1 PUSH1 0x1 PUSH1 0xA0 SHL SUB AND PUSH1 0x1 PUSH1 0x1 PUSH1 0xA0 SHL SUB AND EQ PUSH2 0x1E5C JUMPI PUSH1 0x40 DUP1 MLOAD PUSH3 0x461BCD PUSH1 0xE5 SHL DUP2 MSTORE PUSH1 0x20 PUSH1 0x4 DUP3 ADD MSTORE PUSH1 0x1A PUSH1 0x24 DUP3 ADD MSTORE PUSH1 0x0 DUP1 MLOAD PUSH1 0x20 PUSH2 0x3EE2 DUP4 CODECOPY DUP2 MLOAD SWAP2 MSTORE PUSH1 0x44 DUP3 ADD MSTORE SWAP1 MLOAD SWAP1 DUP2 SWAP1 SUB PUSH1 0x64 ADD SWAP1 REVERT JUMPDEST PUSH1 0x0 CALLVALUE SWAP1 POP PUSH32 0x0 PUSH1 0x1 PUSH1 0x1 PUSH1 0xA0 SHL SUB AND PUSH4 0xD0E30DB0 DUP3 PUSH1 0x40 MLOAD DUP3 PUSH4 0xFFFFFFFF AND PUSH1 0xE0 SHL DUP2 MSTORE PUSH1 0x4 ADD PUSH1 0x0 PUSH1 0x40 MLOAD DUP1 DUP4 SUB DUP2 DUP6 DUP9 DUP1 EXTCODESIZE ISZERO DUP1 ISZERO PUSH2 0x1EBC JUMPI PUSH1 0x0 DUP1 REVERT JUMPDEST POP GAS CALL ISZERO DUP1 ISZERO PUSH2 0x1ED0 JUMPI RETURNDATASIZE PUSH1 0x0 DUP1 RETURNDATACOPY RETURNDATASIZE PUSH1 0x0 REVERT JUMPDEST POP POP POP POP POP PUSH32 0x0 PUSH1 0x1 PUSH1 0x1 PUSH1 0xA0 SHL SUB AND PUSH4 0xA9059CBB PUSH2 0x1F35 PUSH32 0x0 DUP10 DUP10 PUSH1 0x0 DUP2 DUP2 LT PUSH2 0x1311 JUMPI INVALID JUMPDEST DUP4 PUSH1 0x40 MLOAD DUP4 PUSH4 0xFFFFFFFF AND PUSH1 0xE0 SHL DUP2 MSTORE PUSH1 0x4 ADD DUP1 DUP4 PUSH1 0x1 PUSH1 0x1 PUSH1 0xA0 SHL SUB AND DUP2 MSTORE PUSH1 0x20 ADD DUP3 DUP2 MSTORE PUSH1 0x20 ADD SWAP3 POP POP POP PUSH1 0x20 PUSH1 0x40 MLOAD DUP1 DUP4 SUB DUP2 PUSH1 0x0 DUP8 DUP1 EXTCODESIZE ISZERO DUP1 ISZERO PUSH2 0x1F7C JUMPI PUSH1 0x0 DUP1 REVERT JUMPDEST POP GAS CALL ISZERO DUP1 ISZERO PUSH2 0x1F90 JUMPI RETURNDATASIZE PUSH1 0x0 DUP1 RETURNDATACOPY RETURNDATASIZE PUSH1 0x0 REVERT JUMPDEST POP POP POP POP PUSH1 0x40 MLOAD RETURNDATASIZE PUSH1 0x20 DUP2 LT ISZERO PUSH2 0x1FA6 JUMPI PUSH1 0x0 DUP1 REVERT JUMPDEST POP MLOAD PUSH2 0x1FAE JUMPI INVALID JUMPDEST PUSH1 0x0 DUP7 DUP7 PUSH1 0x0 NOT DUP2 ADD DUP2 DUP2 LT PUSH2 0x1FC0 JUMPI INVALID JUMPDEST SWAP1 POP PUSH1 0x20 MUL ADD CALLDATALOAD PUSH1 0x1 PUSH1 0x1 PUSH1 0xA0 SHL SUB AND PUSH1 0x1 PUSH1 0x1 PUSH1 0xA0 SHL SUB AND PUSH4 0x70A08231 DUP7 PUSH1 0x40 MLOAD DUP3 PUSH4 0xFFFFFFFF AND PUSH1 0xE0 SHL DUP2 MSTORE PUSH1 0x4 ADD DUP1 DUP3 PUSH1 0x1 PUSH1 0x1 PUSH1 0xA0 SHL SUB AND DUP2 MSTORE PUSH1 0x20 ADD SWAP2 POP POP PUSH1 0x20 PUSH1 0x40 MLOAD DUP1 DUP4 SUB DUP2 DUP7 DUP1 EXTCODESIZE ISZERO DUP1 ISZERO PUSH2 0x201C JUMPI PUSH1 0x0 DUP1 REVERT JUMPDEST POP GAS STATICCALL ISZERO DUP1 ISZERO PUSH2 0x2030 JUMPI RETURNDATASIZE PUSH1 0x0 DUP1 RETURNDATACOPY RETURNDATASIZE PUSH1 0x0 REVERT JUMPDEST POP POP POP POP PUSH1 0x40 MLOAD RETURNDATASIZE PUSH1 0x20 DUP2 LT ISZERO PUSH2 0x2046 JUMPI PUSH1 0x0 DUP1 REVERT JUMPDEST POP MLOAD PUSH1 0x40 DUP1 MLOAD PUSH1 0x20 DUP10 DUP2 MUL DUP3 DUP2 ADD DUP3 ADD SWAP1 SWAP4 MSTORE DUP10 DUP3 MSTORE SWAP3 SWAP4 POP PUSH2 0x2088 SWAP3 SWAP1 SWAP2 DUP11 SWAP2 DUP11 SWAP2 DUP3 SWAP2 DUP6 ADD SWAP1 DUP5 SWAP1 DUP1 DUP3 DUP5 CALLDATACOPY PUSH1 0x0 SWAP3 ADD SWAP2 SWAP1 SWAP2 MSTORE POP DUP10 SWAP3 POP PUSH2 0x34E4 SWAP2 POP POP JUMP JUMPDEST DUP8 PUSH2 0x14B1 DUP3 DUP10 DUP10 PUSH1 0x0 NOT DUP2 ADD DUP2 DUP2 LT PUSH2 0x209D JUMPI INVALID JUMPDEST SWAP1 POP PUSH1 0x20 MUL ADD CALLDATALOAD PUSH1 0x1 PUSH1 0x1 PUSH1 0xA0 SHL SUB AND PUSH1 0x1 PUSH1 0x1 PUSH1 0xA0 SHL SUB AND PUSH4 0x70A08231 DUP10 PUSH1 0x40 MLOAD DUP3 PUSH4 0xFFFFFFFF AND PUSH1 0xE0 SHL DUP2 MSTORE PUSH1 0x4 ADD DUP1 DUP3 PUSH1 0x1 PUSH1 0x1 PUSH1 0xA0 SHL SUB AND DUP2 MSTORE PUSH1 0x20 ADD SWAP2 POP POP PUSH1 0x20 PUSH1 0x40 MLOAD DUP1 DUP4 SUB DUP2 DUP7 DUP1 EXTCODESIZE ISZERO DUP1 ISZERO PUSH2 0x147F JUMPI PUSH1 0x0 DUP1 REVERT JUMPDEST PUSH1 0x0 DUP1 DUP3 TIMESTAMP DUP2 LT ISZERO PUSH2 0x2140 JUMPI PUSH1 0x40 DUP1 MLOAD PUSH3 0x461BCD PUSH1 0xE5 SHL DUP2 MSTORE PUSH1 0x20 PUSH1 0x4 DUP3 ADD MSTORE PUSH1 0x15 PUSH1 0x24 DUP3 ADD MSTORE PUSH1 0x0 DUP1 MLOAD PUSH1 0x20 PUSH2 0x3E9D DUP4 CODECOPY DUP2 MLOAD SWAP2 MSTORE PUSH1 0x44 DUP3 ADD MSTORE SWAP1 MLOAD SWAP1 DUP2 SWAP1 SUB PUSH1 0x64 ADD SWAP1 REVERT JUMPDEST PUSH1 0x0 PUSH2 0x216D PUSH32 0x0 DUP13 DUP13 PUSH2 0x2F53 JUMP JUMPDEST PUSH1 0x40 DUP1 MLOAD PUSH4 0x23B872DD PUSH1 0xE0 SHL DUP2 MSTORE CALLER PUSH1 0x4 DUP3 ADD MSTORE PUSH1 0x1 PUSH1 0x1 PUSH1 0xA0 SHL SUB DUP4 AND PUSH1 0x24 DUP3 ADD DUP2 SWAP1 MSTORE PUSH1 0x44 DUP3 ADD DUP14 SWAP1 MSTORE SWAP2 MLOAD SWAP3 SWAP4 POP SWAP1 SWAP2 PUSH4 0x23B872DD SWAP2 PUSH1 0x64 DUP1 DUP3 ADD SWAP3 PUSH1 0x20 SWAP3 SWAP1 SWAP2 SWAP1 DUP3 SWAP1 SUB ADD DUP2 PUSH1 0x0 DUP8 DUP1 EXTCODESIZE ISZERO DUP1 ISZERO PUSH2 0x21C8 JUMPI PUSH1 0x0 DUP1 REVERT JUMPDEST POP GAS CALL ISZERO DUP1 ISZERO PUSH2 0x21DC JUMPI RETURNDATASIZE PUSH1 0x0 DUP1 RETURNDATACOPY RETURNDATASIZE PUSH1 0x0 REVERT JUMPDEST POP POP POP POP PUSH1 0x40 MLOAD RETURNDATASIZE PUSH1 0x20 DUP2 LT ISZERO PUSH2 0x21F2 JUMPI PUSH1 0x0 DUP1 REVERT JUMPDEST POP POP PUSH1 0x40 DUP1 MLOAD PUSH4 0x226BF2D1 PUSH1 0xE2 SHL DUP2 MSTORE PUSH1 0x1 PUSH1 0x1 PUSH1 0xA0 SHL SUB DUP9 DUP2 AND PUSH1 0x4 DUP4 ADD MSTORE DUP3 MLOAD PUSH1 0x0 SWAP4 DUP5 SWAP4 SWAP3 DUP7 AND SWAP3 PUSH4 0x89AFCB44 SWAP3 PUSH1 0x24 DUP1 DUP4 ADD SWAP4 SWAP3 DUP3 SWAP1 SUB ADD DUP2 DUP8 DUP8 DUP1 EXTCODESIZE ISZERO DUP1 ISZERO PUSH2 0x223F JUMPI PUSH1 0x0 DUP1 REVERT JUMPDEST POP GAS CALL ISZERO DUP1 ISZERO PUSH2 0x2253 JUMPI RETURNDATASIZE PUSH1 0x0 DUP1 RETURNDATACOPY RETURNDATASIZE PUSH1 0x0 REVERT JUMPDEST POP POP POP POP PUSH1 0x40 MLOAD RETURNDATASIZE PUSH1 0x40 DUP2 LT ISZERO PUSH2 0x2269 JUMPI PUSH1 0x0 DUP1 REVERT JUMPDEST POP DUP1 MLOAD PUSH1 0x20 SWAP1 SWAP2 ADD MLOAD SWAP1 SWAP3 POP SWAP1 POP PUSH1 0x0 PUSH2 0x2283 DUP15 DUP15 PUSH2 0x39B4 JUMP JUMPDEST POP SWAP1 POP DUP1 PUSH1 0x1 PUSH1 0x1 PUSH1 0xA0 SHL SUB AND DUP15 PUSH1 0x1 PUSH1 0x1 PUSH1 0xA0 SHL SUB AND EQ PUSH2 0x22A6 JUMPI DUP2 DUP4 PUSH2 0x22A9 JUMP JUMPDEST DUP3 DUP3 JUMPDEST SWAP1 SWAP8 POP SWAP6 POP DUP11 DUP8 LT ISZERO PUSH2 0x22ED JUMPI PUSH1 0x40 MLOAD PUSH3 0x461BCD PUSH1 0xE5 SHL DUP2 MSTORE PUSH1 0x4 ADD DUP1 DUP1 PUSH1 0x20 ADD DUP3 DUP2 SUB DUP3 MSTORE PUSH1 0x23 DUP2 MSTORE PUSH1 0x20 ADD DUP1 PUSH2 0x4000 PUSH1 0x23 SWAP2 CODECOPY PUSH1 0x40 ADD SWAP2 POP POP PUSH1 0x40 MLOAD DUP1 SWAP2 SUB SWAP1 REVERT JUMPDEST DUP10 DUP7 LT ISZERO PUSH2 0x232C JUMPI PUSH1 0x40 MLOAD PUSH3 0x461BCD PUSH1 0xE5 SHL DUP2 MSTORE PUSH1 0x4 ADD DUP1 DUP1 PUSH1 0x20 ADD DUP3 DUP2 SUB DUP3 MSTORE PUSH1 0x23 DUP2 MSTORE PUSH1 0x20 ADD DUP1 PUSH2 0x3F24 PUSH1 0x23 SWAP2 CODECOPY PUSH1 0x40 ADD SWAP2 POP POP PUSH1 0x40 MLOAD DUP1 SWAP2 SUB SWAP1 REVERT JUMPDEST POP POP POP POP POP SWAP8 POP SWAP8 SWAP6 POP POP POP POP POP POP JUMP JUMPDEST PUSH32 0x0 DUP2 JUMP JUMPDEST PUSH1 0x60 PUSH2 0xF9B PUSH32 0x0 DUP5 DUP5 PUSH2 0x2E07 JUMP JUMPDEST PUSH1 0x0 DUP1 PUSH1 0x0 DUP4 TIMESTAMP DUP2 LT ISZERO PUSH2 0x23D7 JUMPI PUSH1 0x40 DUP1 MLOAD PUSH3 0x461BCD PUSH1 0xE5 SHL DUP2 MSTORE PUSH1 0x20 PUSH1 0x4 DUP3 ADD MSTORE PUSH1 0x15 PUSH1 0x24 DUP3 ADD MSTORE PUSH1 0x0 DUP1 MLOAD PUSH1 0x20 PUSH2 0x3E9D DUP4 CODECOPY DUP2 MLOAD SWAP2 MSTORE PUSH1 0x44 DUP3 ADD MSTORE SWAP1 MLOAD SWAP1 DUP2 SWAP1 SUB PUSH1 0x64 ADD SWAP1 REVERT JUMPDEST PUSH2 0x23E5 DUP13 DUP13 DUP13 DUP13 DUP13 DUP13 PUSH2 0x3A92 JUMP JUMPDEST SWAP1 SWAP5 POP SWAP3 POP PUSH1 0x0 PUSH2 0x2417 PUSH32 0x0 DUP15 DUP15 PUSH2 0x2F53 JUMP JUMPDEST SWAP1 POP PUSH2 0x2425 DUP14 CALLER DUP4 DUP9 PUSH2 0x3012 JUMP JUMPDEST PUSH2 0x2431 DUP13 CALLER DUP4 DUP8 PUSH2 0x3012 JUMP JUMPDEST DUP1 PUSH1 0x1 PUSH1 0x1 PUSH1 0xA0 SHL SUB AND PUSH4 0x6A627842 DUP9 PUSH1 0x40 MLOAD DUP3 PUSH4 0xFFFFFFFF AND PUSH1 0xE0 SHL DUP2 MSTORE PUSH1 0x4 ADD DUP1 DUP3 PUSH1 0x1 PUSH1 0x1 PUSH1 0xA0 SHL SUB AND DUP2 MSTORE PUSH1 0x20 ADD SWAP2 POP POP PUSH1 0x20 PUSH1 0x40 MLOAD DUP1 DUP4 SUB DUP2 PUSH1 0x0 DUP8 DUP1 EXTCODESIZE ISZERO DUP1 ISZERO PUSH2 0x2480 JUMPI PUSH1 0x0 DUP1 REVERT JUMPDEST POP GAS CALL ISZERO DUP1 ISZERO PUSH2 0x2494 JUMPI RETURNDATASIZE PUSH1 0x0 DUP1 RETURNDATACOPY RETURNDATASIZE PUSH1 0x0 REVERT JUMPDEST POP POP POP POP PUSH1 0x40 MLOAD RETURNDATASIZE PUSH1 0x20 DUP2 LT ISZERO PUSH2 0x24AA JUMPI PUSH1 0x0 DUP1 REVERT JUMPDEST POP MLOAD SWAP5 SWAP14 SWAP4 SWAP13 POP SWAP4 SWAP11 POP SWAP2 SWAP9 POP POP POP POP POP POP POP POP POP JUMP JUMPDEST PUSH1 0x0 DUP1 PUSH1 0x0 DUP4 TIMESTAMP DUP2 LT ISZERO PUSH2 0x250A JUMPI PUSH1 0x40 DUP1 MLOAD PUSH3 0x461BCD PUSH1 0xE5 SHL DUP2 MSTORE PUSH1 0x20 PUSH1 0x4 DUP3 ADD MSTORE PUSH1 0x15 PUSH1 0x24 DUP3 ADD MSTORE PUSH1 0x0 DUP1 MLOAD PUSH1 0x20 PUSH2 0x3E9D DUP4 CODECOPY DUP2 MLOAD SWAP2 MSTORE PUSH1 0x44 DUP3 ADD MSTORE SWAP1 MLOAD SWAP1 DUP2 SWAP1 SUB PUSH1 0x64 ADD SWAP1 REVERT JUMPDEST PUSH2 0x2538 DUP11 PUSH32 0x0 DUP12 CALLVALUE DUP13 DUP13 PUSH2 0x3A92 JUMP JUMPDEST SWAP1 SWAP5 POP SWAP3 POP PUSH1 0x0 PUSH2 0x258A PUSH32 0x0 DUP13 PUSH32 0x0 PUSH2 0x2F53 JUMP JUMPDEST SWAP1 POP PUSH2 0x2598 DUP12 CALLER DUP4 DUP9 PUSH2 0x3012 JUMP JUMPDEST PUSH32 0x0 PUSH1 0x1 PUSH1 0x1 PUSH1 0xA0 SHL SUB AND PUSH4 0xD0E30DB0 DUP6 PUSH1 0x40 MLOAD DUP3 PUSH4 0xFFFFFFFF AND PUSH1 0xE0 SHL DUP2 MSTORE PUSH1 0x4 ADD PUSH1 0x0 PUSH1 0x40 MLOAD DUP1 DUP4 SUB DUP2 DUP6 DUP9 DUP1 EXTCODESIZE ISZERO DUP1 ISZERO PUSH2 0x25F3 JUMPI PUSH1 0x0 DUP1 REVERT JUMPDEST POP GAS CALL ISZERO DUP1 ISZERO PUSH2 0x2607 JUMPI RETURNDATASIZE PUSH1 0x0 DUP1 RETURNDATACOPY RETURNDATASIZE PUSH1 0x0 REVERT JUMPDEST POP POP POP POP POP PUSH32 0x0 PUSH1 0x1 PUSH1 0x1 PUSH1 0xA0 SHL SUB AND PUSH4 0xA9059CBB DUP3 DUP7 PUSH1 0x40 MLOAD DUP4 PUSH4 0xFFFFFFFF AND PUSH1 0xE0 SHL DUP2 MSTORE PUSH1 0x4 ADD DUP1 DUP4 PUSH1 0x1 PUSH1 0x1 PUSH1 0xA0 SHL SUB AND DUP2 MSTORE PUSH1 0x20 ADD DUP3 DUP2 MSTORE PUSH1 0x20 ADD SWAP3 POP POP POP PUSH1 0x20 PUSH1 0x40 MLOAD DUP1 DUP4 SUB DUP2 PUSH1 0x0 DUP8 DUP1 EXTCODESIZE ISZERO DUP1 ISZERO PUSH2 0x2683 JUMPI PUSH1 0x0 DUP1 REVERT JUMPDEST POP GAS CALL ISZERO DUP1 ISZERO PUSH2 0x2697 JUMPI RETURNDATASIZE PUSH1 0x0 DUP1 RETURNDATACOPY RETURNDATASIZE PUSH1 0x0 REVERT JUMPDEST POP POP POP POP PUSH1 0x40 MLOAD RETURNDATASIZE PUSH1 0x20 DUP2 LT ISZERO PUSH2 0x26AD JUMPI PUSH1 0x0 DUP1 REVERT JUMPDEST POP MLOAD PUSH2 0x26B5 JUMPI INVALID JUMPDEST DUP1 PUSH1 0x1 PUSH1 0x1 PUSH1 0xA0 SHL SUB AND PUSH4 0x6A627842 DUP9 PUSH1 0x40 MLOAD DUP3 PUSH4 0xFFFFFFFF AND PUSH1 0xE0 SHL DUP2 MSTORE PUSH1 0x4 ADD DUP1 DUP3 PUSH1 0x1 PUSH1 0x1 PUSH1 0xA0 SHL SUB AND DUP2 MSTORE PUSH1 0x20 ADD SWAP2 POP POP PUSH1 0x20 PUSH1 0x40 MLOAD DUP1 DUP4 SUB DUP2 PUSH1 0x0 DUP8 DUP1 EXTCODESIZE ISZERO DUP1 ISZERO PUSH2 0x2704 JUMPI PUSH1 0x0 DUP1 REVERT JUMPDEST POP GAS CALL ISZERO DUP1 ISZERO PUSH2 0x2718 JUMPI RETURNDATASIZE PUSH1 0x0 DUP1 RETURNDATACOPY RETURNDATASIZE PUSH1 0x0 REVERT JUMPDEST POP POP POP POP PUSH1 0x40 MLOAD RETURNDATASIZE PUSH1 0x20 DUP2 LT ISZERO PUSH2 0x272E JUMPI PUSH1 0x0 DUP1 REVERT JUMPDEST POP MLOAD SWAP3 POP CALLVALUE DUP5 LT ISZERO PUSH2 0x2746 JUMPI PUSH2 0x2746 CALLER DUP6 CALLVALUE SUB PUSH2 0x2C37 JUMP JUMPDEST POP POP SWAP7 POP SWAP7 POP SWAP7 SWAP4 POP POP POP POP JUMP JUMPDEST PUSH1 0x60 DUP2 TIMESTAMP DUP2 LT ISZERO PUSH2 0x279A JUMPI PUSH1 0x40 DUP1 MLOAD PUSH3 0x461BCD PUSH1 0xE5 SHL DUP2 MSTORE PUSH1 0x20 PUSH1 0x4 DUP3 ADD MSTORE PUSH1 0x15 PUSH1 0x24 DUP3 ADD MSTORE PUSH1 0x0 DUP1 MLOAD PUSH1 0x20 PUSH2 0x3E9D DUP4 CODECOPY DUP2 MLOAD SWAP2 MSTORE PUSH1 0x44 DUP3 ADD MSTORE SWAP1 MLOAD SWAP1 DUP2 SWAP1 SUB PUSH1 0x64 ADD SWAP1 REVERT JUMPDEST PUSH32 0x0 PUSH1 0x1 PUSH1 0x1 PUSH1 0xA0 SHL SUB AND DUP7 DUP7 PUSH1 0x0 DUP2 DUP2 LT PUSH2 0x27D1 JUMPI INVALID JUMPDEST SWAP1 POP PUSH1 0x20 MUL ADD CALLDATALOAD PUSH1 0x1 PUSH1 0x1 PUSH1 0xA0 SHL SUB AND PUSH1 0x1 PUSH1 0x1 PUSH1 0xA0 SHL SUB AND EQ PUSH2 0x282A JUMPI PUSH1 0x40 DUP1 MLOAD PUSH3 0x461BCD PUSH1 0xE5 SHL DUP2 MSTORE PUSH1 0x20 PUSH1 0x4 DUP3 ADD MSTORE PUSH1 0x1A PUSH1 0x24 DUP3 ADD MSTORE PUSH1 0x0 DUP1 MLOAD PUSH1 0x20 PUSH2 0x3EE2 DUP4 CODECOPY DUP2 MLOAD SWAP2 MSTORE PUSH1 0x44 DUP3 ADD MSTORE SWAP1 MLOAD SWAP1 DUP2 SWAP1 SUB PUSH1 0x64 ADD SWAP1 REVERT JUMPDEST PUSH2 0x2888 PUSH32 0x0 DUP9 DUP9 DUP9 DUP1 DUP1 PUSH1 0x20 MUL PUSH1 0x20 ADD PUSH1 0x40 MLOAD SWAP1 DUP2 ADD PUSH1 0x40 MSTORE DUP1 SWAP4 SWAP3 SWAP2 SWAP1 DUP2 DUP2 MSTORE PUSH1 0x20 ADD DUP4 DUP4 PUSH1 0x20 MUL DUP1 DUP3 DUP5 CALLDATACOPY PUSH1 0x0 SWAP3 ADD SWAP2 SWAP1 SWAP2 MSTORE POP PUSH2 0x33AC SWAP3 POP POP POP JUMP JUMPDEST SWAP2 POP CALLVALUE DUP3 PUSH1 0x0 DUP2 MLOAD DUP2 LT PUSH2 0x2898 JUMPI INVALID JUMPDEST PUSH1 0x20 MUL PUSH1 0x20 ADD ADD MLOAD GT ISZERO PUSH2 0x28DD JUMPI PUSH1 0x40 MLOAD PUSH3 0x461BCD PUSH1 0xE5 SHL DUP2 MSTORE PUSH1 0x4 ADD DUP1 DUP1 PUSH1 0x20 ADD DUP3 DUP2 SUB DUP3 MSTORE PUSH1 0x24 DUP2 MSTORE PUSH1 0x20 ADD DUP1 PUSH2 0x3F6F PUSH1 0x24 SWAP2 CODECOPY PUSH1 0x40 ADD SWAP2 POP POP PUSH1 0x40 MLOAD DUP1 SWAP2 SUB SWAP1 REVERT JUMPDEST PUSH32 0x0 PUSH1 0x1 PUSH1 0x1 PUSH1 0xA0 SHL SUB AND PUSH4 0xD0E30DB0 DUP4 PUSH1 0x0 DUP2 MLOAD DUP2 LT PUSH2 0x2919 JUMPI INVALID JUMPDEST PUSH1 0x20 MUL PUSH1 0x20 ADD ADD MLOAD PUSH1 0x40 MLOAD DUP3 PUSH4 0xFFFFFFFF AND PUSH1 0xE0 SHL DUP2 MSTORE PUSH1 0x4 ADD PUSH1 0x0 PUSH1 0x40 MLOAD DUP1 DUP4 SUB DUP2 DUP6 DUP9 DUP1 EXTCODESIZE ISZERO DUP1 ISZERO PUSH2 0x294C JUMPI PUSH1 0x0 DUP1 REVERT JUMPDEST POP GAS CALL ISZERO DUP1 ISZERO PUSH2 0x2960 JUMPI RETURNDATASIZE PUSH1 0x0 DUP1 RETURNDATACOPY RETURNDATASIZE PUSH1 0x0 REVERT JUMPDEST POP POP POP POP POP PUSH32 0x0 PUSH1 0x1 PUSH1 0x1 PUSH1 0xA0 SHL SUB AND PUSH4 0xA9059CBB PUSH2 0x29C5 PUSH32 0x0 DUP10 DUP10 PUSH1 0x0 DUP2 DUP2 LT PUSH2 0x1311 JUMPI INVALID JUMPDEST DUP5 PUSH1 0x0 DUP2 MLOAD DUP2 LT PUSH2 0x29D2 JUMPI INVALID JUMPDEST PUSH1 0x20 MUL PUSH1 0x20 ADD ADD MLOAD PUSH1 0x40 MLOAD DUP4 PUSH4 0xFFFFFFFF AND PUSH1 0xE0 SHL DUP2 MSTORE PUSH1 0x4 ADD DUP1 DUP4 PUSH1 0x1 PUSH1 0x1 PUSH1 0xA0 SHL SUB AND DUP2 MSTORE PUSH1 0x20 ADD DUP3 DUP2 MSTORE PUSH1 0x20 ADD SWAP3 POP POP POP PUSH1 0x20 PUSH1 0x40 MLOAD DUP1 DUP4 SUB DUP2 PUSH1 0x0 DUP8 DUP1 EXTCODESIZE ISZERO DUP1 ISZERO PUSH2 0x2A20 JUMPI PUSH1 0x0 DUP1 REVERT JUMPDEST POP GAS CALL ISZERO DUP1 ISZERO PUSH2 0x2A34 JUMPI RETURNDATASIZE PUSH1 0x0 DUP1 RETURNDATACOPY RETURNDATASIZE PUSH1 0x0 REVERT JUMPDEST POP POP POP POP PUSH1 0x40 MLOAD RETURNDATASIZE PUSH1 0x20 DUP2 LT ISZERO PUSH2 0x2A4A JUMPI PUSH1 0x0 DUP1 REVERT JUMPDEST POP MLOAD PUSH2 0x2A52 JUMPI INVALID JUMPDEST PUSH2 0x2A91 DUP3 DUP8 DUP8 DUP1 DUP1 PUSH1 0x20 MUL PUSH1 0x20 ADD PUSH1 0x40 MLOAD SWAP1 DUP2 ADD PUSH1 0x40 MSTORE DUP1 SWAP4 SWAP3 SWAP2 SWAP1 DUP2 DUP2 MSTORE PUSH1 0x20 ADD DUP4 DUP4 PUSH1 0x20 MUL DUP1 DUP3 DUP5 CALLDATACOPY PUSH1 0x0 SWAP3 ADD SWAP2 SWAP1 SWAP2 MSTORE POP DUP10 SWAP3 POP PUSH2 0x316F SWAP2 POP POP JUMP JUMPDEST DUP2 PUSH1 0x0 DUP2 MLOAD DUP2 LT PUSH2 0x2A9E JUMPI INVALID JUMPDEST PUSH1 0x20 MUL PUSH1 0x20 ADD ADD MLOAD CALLVALUE GT ISZERO PUSH2 0x1AC1 JUMPI PUSH2 0x1AC1 CALLER DUP4 PUSH1 0x0 DUP2 MLOAD DUP2 LT PUSH2 0x2ABE JUMPI INVALID JUMPDEST PUSH1 0x20 MUL PUSH1 0x20 ADD ADD MLOAD CALLVALUE SUB PUSH2 0x2C37 JUMP JUMPDEST PUSH1 0x40 DUP1 MLOAD PUSH1 0x1 PUSH1 0x1 PUSH1 0xA0 SHL SUB DUP5 DUP2 AND PUSH1 0x24 DUP4 ADD MSTORE PUSH1 0x44 DUP1 DUP4 ADD DUP6 SWAP1 MSTORE DUP4 MLOAD DUP1 DUP5 SUB SWAP1 SWAP2 ADD DUP2 MSTORE PUSH1 0x64 SWAP1 SWAP3 ADD DUP4 MSTORE PUSH1 0x20 DUP3 ADD DUP1 MLOAD PUSH1 0x1 PUSH1 0x1 PUSH1 0xE0 SHL SUB AND PUSH4 0xA9059CBB PUSH1 0xE0 SHL OR DUP2 MSTORE SWAP3 MLOAD DUP3 MLOAD PUSH1 0x0 SWAP5 PUSH1 0x60 SWAP5 SWAP4 DUP10 AND SWAP4 SWAP3 SWAP2 DUP3 SWAP2 SWAP1 DUP1 DUP4 DUP4 JUMPDEST PUSH1 0x20 DUP4 LT PUSH2 0x2B4A JUMPI DUP1 MLOAD DUP3 MSTORE PUSH1 0x1F NOT SWAP1 SWAP3 ADD SWAP2 PUSH1 0x20 SWAP2 DUP3 ADD SWAP2 ADD PUSH2 0x2B2B JUMP JUMPDEST PUSH1 0x1 DUP4 PUSH1 0x20 SUB PUSH2 0x100 EXP SUB DUP1 NOT DUP3 MLOAD AND DUP2 DUP5 MLOAD AND DUP1 DUP3 OR DUP6 MSTORE POP POP POP POP POP POP SWAP1 POP ADD SWAP2 POP POP PUSH1 0x0 PUSH1 0x40 MLOAD DUP1 DUP4 SUB DUP2 PUSH1 0x0 DUP7 GAS CALL SWAP2 POP POP RETURNDATASIZE DUP1 PUSH1 0x0 DUP2 EQ PUSH2 0x2BAC JUMPI PUSH1 0x40 MLOAD SWAP2 POP PUSH1 0x1F NOT PUSH1 0x3F RETURNDATASIZE ADD AND DUP3 ADD PUSH1 0x40 MSTORE RETURNDATASIZE DUP3 MSTORE RETURNDATASIZE PUSH1 0x0 PUSH1 0x20 DUP5 ADD RETURNDATACOPY PUSH2 0x2BB1 JUMP JUMPDEST PUSH1 0x60 SWAP2 POP JUMPDEST POP SWAP2 POP SWAP2 POP DUP2 DUP1 ISZERO PUSH2 0x2BDF JUMPI POP DUP1 MLOAD ISZERO DUP1 PUSH2 0x2BDF JUMPI POP DUP1 DUP1 PUSH1 0x20 ADD SWAP1 MLOAD PUSH1 0x20 DUP2 LT ISZERO PUSH2 0x2BDC JUMPI PUSH1 0x0 DUP1 REVERT JUMPDEST POP MLOAD JUMPDEST PUSH2 0x2C30 JUMPI PUSH1 0x40 DUP1 MLOAD PUSH3 0x461BCD PUSH1 0xE5 SHL DUP2 MSTORE PUSH1 0x20 PUSH1 0x4 DUP3 ADD MSTORE PUSH1 0x1F PUSH1 0x24 DUP3 ADD MSTORE PUSH32 0x5472616E7366657248656C7065723A205452414E534645525F4641494C454400 PUSH1 0x44 DUP3 ADD MSTORE SWAP1 MLOAD SWAP1 DUP2 SWAP1 SUB PUSH1 0x64 ADD SWAP1 REVERT JUMPDEST POP POP POP POP POP JUMP JUMPDEST PUSH1 0x40 DUP1 MLOAD PUSH1 0x0 DUP1 DUP3 MSTORE PUSH1 0x20 DUP3 ADD SWAP1 SWAP3 MSTORE PUSH1 0x1 PUSH1 0x1 PUSH1 0xA0 SHL SUB DUP5 AND SWAP1 DUP4 SWAP1 PUSH1 0x40 MLOAD DUP1 DUP3 DUP1 MLOAD SWAP1 PUSH1 0x20 ADD SWAP1 DUP1 DUP4 DUP4 JUMPDEST PUSH1 0x20 DUP4 LT PUSH2 0x2C83 JUMPI DUP1 MLOAD DUP3 MSTORE PUSH1 0x1F NOT SWAP1 SWAP3 ADD SWAP2 PUSH1 0x20 SWAP2 DUP3 ADD SWAP2 ADD PUSH2 0x2C64 JUMP JUMPDEST PUSH1 0x1 DUP4 PUSH1 0x20 SUB PUSH2 0x100 EXP SUB DUP1 NOT DUP3 MLOAD AND DUP2 DUP5 MLOAD AND DUP1 DUP3 OR DUP6 MSTORE POP POP POP POP POP POP SWAP1 POP ADD SWAP2 POP POP PUSH1 0x0 PUSH1 0x40 MLOAD DUP1 DUP4 SUB DUP2 DUP6 DUP8 GAS CALL SWAP3 POP POP POP RETURNDATASIZE DUP1 PUSH1 0x0 DUP2 EQ PUSH2 0x2CE5 JUMPI PUSH1 0x40 MLOAD SWAP2 POP PUSH1 0x1F NOT PUSH1 0x3F RETURNDATASIZE ADD AND DUP3 ADD PUSH1 0x40 MSTORE RETURNDATASIZE DUP3 MSTORE RETURNDATASIZE PUSH1 0x0 PUSH1 0x20 DUP5 ADD RETURNDATACOPY PUSH2 0x2CEA JUMP JUMPDEST PUSH1 0x60 SWAP2 POP JUMPDEST POP POP SWAP1 POP DUP1 PUSH2 0x2D2A JUMPI PUSH1 0x40 MLOAD PUSH3 0x461BCD PUSH1 0xE5 SHL DUP2 MSTORE PUSH1 0x4 ADD DUP1 DUP1 PUSH1 0x20 ADD DUP3 DUP2 SUB DUP3 MSTORE PUSH1 0x23 DUP2 MSTORE PUSH1 0x20 ADD DUP1 PUSH2 0x3FB5 PUSH1 0x23 SWAP2 CODECOPY PUSH1 0x40 ADD SWAP2 POP POP PUSH1 0x40 MLOAD DUP1 SWAP2 SUB SWAP1 REVERT JUMPDEST POP POP POP JUMP JUMPDEST PUSH1 0x0 DUP1 DUP5 GT PUSH2 0x2D6F JUMPI PUSH1 0x40 MLOAD PUSH3 0x461BCD PUSH1 0xE5 SHL DUP2 MSTORE PUSH1 0x4 ADD DUP1 DUP1 PUSH1 0x20 ADD DUP3 DUP2 SUB DUP3 MSTORE PUSH1 0x28 DUP2 MSTORE PUSH1 0x20 ADD DUP1 PUSH2 0x3F47 PUSH1 0x28 SWAP2 CODECOPY PUSH1 0x40 ADD SWAP2 POP POP PUSH1 0x40 MLOAD DUP1 SWAP2 SUB SWAP1 REVERT JUMPDEST PUSH1 0x0 DUP4 GT DUP1 ISZERO PUSH2 0x2D7F JUMPI POP PUSH1 0x0 DUP3 GT JUMPDEST PUSH2 0x2DBA JUMPI PUSH1 0x40 MLOAD PUSH3 0x461BCD PUSH1 0xE5 SHL DUP2 MSTORE PUSH1 0x4 ADD DUP1 DUP1 PUSH1 0x20 ADD DUP3 DUP2 SUB DUP3 MSTORE PUSH1 0x25 DUP2 MSTORE PUSH1 0x20 ADD DUP1 PUSH2 0x3EBD PUSH1 0x25 SWAP2 CODECOPY PUSH1 0x40 ADD SWAP2 POP POP PUSH1 0x40 MLOAD DUP1 SWAP2 SUB SWAP1 REVERT JUMPDEST PUSH1 0x0 PUSH2 0x2DC8 DUP6 PUSH2 0x3E5 PUSH2 0x3D23 JUMP JUMPDEST SWAP1 POP PUSH1 0x0 PUSH2 0x2DD6 DUP3 DUP6 PUSH2 0x3D23 JUMP JUMPDEST SWAP1 POP PUSH1 0x0 PUSH2 0x2DF0 DUP4 PUSH2 0x2DEA DUP9 PUSH2 0x3E8 PUSH2 0x3D23 JUMP JUMPDEST SWAP1 PUSH2 0x3D86 JUMP JUMPDEST SWAP1 POP DUP1 DUP3 DUP2 PUSH2 0x2DFB JUMPI INVALID JUMPDEST DIV SWAP8 SWAP7 POP POP POP POP POP POP POP JUMP JUMPDEST PUSH1 0x60 PUSH1 0x2 DUP3 MLOAD LT ISZERO PUSH2 0x2E60 JUMPI PUSH1 0x40 DUP1 MLOAD PUSH3 0x461BCD PUSH1 0xE5 SHL DUP2 MSTORE PUSH1 0x20 PUSH1 0x4 DUP3 ADD MSTORE PUSH1 0x1B PUSH1 0x24 DUP3 ADD MSTORE PUSH32 0x4D696D6F56324C6962726172793A20494E56414C49445F504154480000000000 PUSH1 0x44 DUP3 ADD MSTORE SWAP1 MLOAD SWAP1 DUP2 SWAP1 SUB PUSH1 0x64 ADD SWAP1 REVERT JUMPDEST DUP2 MLOAD PUSH8 0xFFFFFFFFFFFFFFFF DUP2 GT DUP1 ISZERO PUSH2 0x2E78 JUMPI PUSH1 0x0 DUP1 REVERT JUMPDEST POP PUSH1 0x40 MLOAD SWAP1 DUP1 DUP3 MSTORE DUP1 PUSH1 0x20 MUL PUSH1 0x20 ADD DUP3 ADD PUSH1 0x40 MSTORE DUP1 ISZERO PUSH2 0x2EA2 JUMPI DUP2 PUSH1 0x20 ADD PUSH1 0x20 DUP3 MUL DUP1 CALLDATASIZE DUP4 CALLDATACOPY ADD SWAP1 POP JUMPDEST POP SWAP1 POP DUP3 DUP2 PUSH1 0x0 DUP2 MLOAD DUP2 LT PUSH2 0x2EB3 JUMPI INVALID JUMPDEST PUSH1 0x20 MUL PUSH1 0x20 ADD ADD DUP2 DUP2 MSTORE POP POP PUSH1 0x0 JUMPDEST PUSH1 0x1 DUP4 MLOAD SUB DUP2 LT ISZERO PUSH2 0x2F4B JUMPI PUSH1 0x0 DUP1 PUSH2 0x2F05 DUP8 DUP7 DUP6 DUP2 MLOAD DUP2 LT PUSH2 0x2EE1 JUMPI INVALID JUMPDEST PUSH1 0x20 MUL PUSH1 0x20 ADD ADD MLOAD DUP8 DUP7 PUSH1 0x1 ADD DUP2 MLOAD DUP2 LT PUSH2 0x2EF8 JUMPI INVALID JUMPDEST PUSH1 0x20 MUL PUSH1 0x20 ADD ADD MLOAD PUSH2 0x3DD5 JUMP JUMPDEST SWAP2 POP SWAP2 POP PUSH2 0x2F27 DUP5 DUP5 DUP2 MLOAD DUP2 LT PUSH2 0x2F18 JUMPI INVALID JUMPDEST PUSH1 0x20 MUL PUSH1 0x20 ADD ADD MLOAD DUP4 DUP4 PUSH2 0x2D2F JUMP JUMPDEST DUP5 DUP5 PUSH1 0x1 ADD DUP2 MLOAD DUP2 LT PUSH2 0x2F36 JUMPI INVALID JUMPDEST PUSH1 0x20 SWAP1 DUP2 MUL SWAP2 SWAP1 SWAP2 ADD ADD MSTORE POP POP PUSH1 0x1 ADD PUSH2 0x2EC2 JUMP JUMPDEST POP SWAP4 SWAP3 POP POP POP JUMP JUMPDEST PUSH1 0x0 DUP1 PUSH1 0x0 PUSH2 0x2F62 DUP6 DUP6 PUSH2 0x39B4 JUMP JUMPDEST PUSH1 0x40 DUP1 MLOAD PUSH12 0xFFFFFFFFFFFFFFFFFFFFFFFF NOT PUSH1 0x60 SWAP5 DUP6 SHL DUP2 AND PUSH1 0x20 DUP1 DUP5 ADD SWAP2 SWAP1 SWAP2 MSTORE SWAP4 DUP6 SHL DUP2 AND PUSH1 0x34 DUP4 ADD MSTORE DUP3 MLOAD PUSH1 0x28 DUP2 DUP5 SUB ADD DUP2 MSTORE PUSH1 0x48 DUP4 ADD DUP5 MSTORE DUP1 MLOAD SWAP1 DUP6 ADD KECCAK256 PUSH1 0x1 PUSH1 0x1 PUSH1 0xF8 SHL SUB NOT PUSH1 0x68 DUP5 ADD MSTORE SWAP11 SWAP1 SWAP5 SHL SWAP1 SWAP4 AND PUSH1 0x69 DUP5 ADD MSTORE PUSH1 0x7D DUP4 ADD SWAP9 SWAP1 SWAP9 MSTORE PUSH31 0xD8258F07455CCF2A627E421C1B67A5235293AA73A2D17BE60109E9200CB37F PUSH1 0x9D DUP1 DUP5 ADD SWAP2 SWAP1 SWAP2 MSTORE DUP9 MLOAD DUP1 DUP5 SUB SWAP1 SWAP2 ADD DUP2 MSTORE PUSH1 0xBD SWAP1 SWAP3 ADD SWAP1 SWAP8 MSTORE DUP1 MLOAD SWAP7 ADD SWAP6 SWAP1 SWAP6 KECCAK256 SWAP6 SWAP5 POP POP POP POP POP JUMP JUMPDEST PUSH1 0x40 DUP1 MLOAD PUSH1 0x1 PUSH1 0x1 PUSH1 0xA0 SHL SUB DUP6 DUP2 AND PUSH1 0x24 DUP4 ADD MSTORE DUP5 DUP2 AND PUSH1 0x44 DUP4 ADD MSTORE PUSH1 0x64 DUP1 DUP4 ADD DUP6 SWAP1 MSTORE DUP4 MLOAD DUP1 DUP5 SUB SWAP1 SWAP2 ADD DUP2 MSTORE PUSH1 0x84 SWAP1 SWAP3 ADD DUP4 MSTORE PUSH1 0x20 DUP3 ADD DUP1 MLOAD PUSH1 0x1 PUSH1 0x1 PUSH1 0xE0 SHL SUB AND PUSH4 0x23B872DD PUSH1 0xE0 SHL OR DUP2 MSTORE SWAP3 MLOAD DUP3 MLOAD PUSH1 0x0 SWAP5 PUSH1 0x60 SWAP5 SWAP4 DUP11 AND SWAP4 SWAP3 SWAP2 DUP3 SWAP2 SWAP1 DUP1 DUP4 DUP4 JUMPDEST PUSH1 0x20 DUP4 LT PUSH2 0x3097 JUMPI DUP1 MLOAD DUP3 MSTORE PUSH1 0x1F NOT SWAP1 SWAP3 ADD SWAP2 PUSH1 0x20 SWAP2 DUP3 ADD SWAP2 ADD PUSH2 0x3078 JUMP JUMPDEST PUSH1 0x1 DUP4 PUSH1 0x20 SUB PUSH2 0x100 EXP SUB DUP1 NOT DUP3 MLOAD AND DUP2 DUP5 MLOAD AND DUP1 DUP3 OR DUP6 MSTORE POP POP POP POP POP POP SWAP1 POP ADD SWAP2 POP POP PUSH1 0x0 PUSH1 0x40 MLOAD DUP1 DUP4 SUB DUP2 PUSH1 0x0 DUP7 GAS CALL SWAP2 POP POP RETURNDATASIZE DUP1 PUSH1 0x0 DUP2 EQ PUSH2 0x30F9 JUMPI PUSH1 0x40 MLOAD SWAP2 POP PUSH1 0x1F NOT PUSH1 0x3F RETURNDATASIZE ADD AND DUP3 ADD PUSH1 0x40 MSTORE RETURNDATASIZE DUP3 MSTORE RETURNDATASIZE PUSH1 0x0 PUSH1 0x20 DUP5 ADD RETURNDATACOPY PUSH2 0x30FE JUMP JUMPDEST PUSH1 0x60 SWAP2 POP JUMPDEST POP SWAP2 POP SWAP2 POP DUP2 DUP1 ISZERO PUSH2 0x312C JUMPI POP DUP1 MLOAD ISZERO DUP1 PUSH2 0x312C JUMPI POP DUP1 DUP1 PUSH1 0x20 ADD SWAP1 MLOAD PUSH1 0x20 DUP2 LT ISZERO PUSH2 0x3129 JUMPI PUSH1 0x0 DUP1 REVERT JUMPDEST POP MLOAD JUMPDEST PUSH2 0x3167 JUMPI PUSH1 0x40 MLOAD PUSH3 0x461BCD PUSH1 0xE5 SHL DUP2 MSTORE PUSH1 0x4 ADD DUP1 DUP1 PUSH1 0x20 ADD DUP3 DUP2 SUB DUP3 MSTORE PUSH1 0x24 DUP2 MSTORE PUSH1 0x20 ADD DUP1 PUSH2 0x4023 PUSH1 0x24 SWAP2 CODECOPY PUSH1 0x40 ADD SWAP2 POP POP PUSH1 0x40 MLOAD DUP1 SWAP2 SUB SWAP1 REVERT JUMPDEST POP POP POP POP POP POP JUMP JUMPDEST PUSH1 0x0 JUMPDEST PUSH1 0x1 DUP4 MLOAD SUB DUP2 LT ISZERO PUSH2 0x33A6 JUMPI PUSH1 0x0 DUP1 DUP5 DUP4 DUP2 MLOAD DUP2 LT PUSH2 0x318D JUMPI INVALID JUMPDEST PUSH1 0x20 MUL PUSH1 0x20 ADD ADD MLOAD DUP6 DUP5 PUSH1 0x1 ADD DUP2 MLOAD DUP2 LT PUSH2 0x31A4 JUMPI INVALID JUMPDEST PUSH1 0x20 MUL PUSH1 0x20 ADD ADD MLOAD SWAP2 POP SWAP2 POP PUSH1 0x0 PUSH2 0x31BC DUP4 DUP4 PUSH2 0x39B4 JUMP JUMPDEST POP SWAP1 POP PUSH1 0x0 DUP8 DUP6 PUSH1 0x1 ADD DUP2 MLOAD DUP2 LT PUSH2 0x31D0 JUMPI INVALID JUMPDEST PUSH1 0x20 MUL PUSH1 0x20 ADD ADD MLOAD SWAP1 POP PUSH1 0x0 DUP1 DUP4 PUSH1 0x1 PUSH1 0x1 PUSH1 0xA0 SHL SUB AND DUP7 PUSH1 0x1 PUSH1 0x1 PUSH1 0xA0 SHL SUB AND EQ PUSH2 0x31FE JUMPI DUP3 PUSH1 0x0 PUSH2 0x3202 JUMP JUMPDEST PUSH1 0x0 DUP4 JUMPDEST SWAP2 POP SWAP2 POP PUSH1 0x0 PUSH1 0x2 DUP11 MLOAD SUB DUP9 LT PUSH2 0x3219 JUMPI DUP9 PUSH2 0x325A JUMP JUMPDEST PUSH2 0x325A PUSH32 0x0 DUP8 DUP13 DUP12 PUSH1 0x2 ADD DUP2 MLOAD DUP2 LT PUSH2 0x324D JUMPI INVALID JUMPDEST PUSH1 0x20 MUL PUSH1 0x20 ADD ADD MLOAD PUSH2 0x2F53 JUMP JUMPDEST SWAP1 POP PUSH2 0x3287 PUSH32 0x0 DUP9 DUP9 PUSH2 0x2F53 JUMP JUMPDEST PUSH1 0x1 PUSH1 0x1 PUSH1 0xA0 SHL SUB AND PUSH4 0x22C0D9F DUP5 DUP5 DUP5 PUSH1 0x0 PUSH1 0x40 MLOAD SWAP1 DUP1 DUP3 MSTORE DUP1 PUSH1 0x1F ADD PUSH1 0x1F NOT AND PUSH1 0x20 ADD DUP3 ADD PUSH1 0x40 MSTORE DUP1 ISZERO PUSH2 0x32C4 JUMPI PUSH1 0x20 DUP3 ADD DUP2 DUP1 CALLDATASIZE DUP4 CALLDATACOPY ADD SWAP1 POP JUMPDEST POP PUSH1 0x40 MLOAD DUP6 PUSH4 0xFFFFFFFF AND PUSH1 0xE0 SHL DUP2 MSTORE PUSH1 0x4 ADD DUP1 DUP6 DUP2 MSTORE PUSH1 0x20 ADD DUP5 DUP2 MSTORE PUSH1 0x20 ADD DUP4 PUSH1 0x1 PUSH1 0x1 PUSH1 0xA0 SHL SUB AND DUP2 MSTORE PUSH1 0x20 ADD DUP1 PUSH1 0x20 ADD DUP3 DUP2 SUB DUP3 MSTORE DUP4 DUP2 DUP2 MLOAD DUP2 MSTORE PUSH1 0x20 ADD SWAP2 POP DUP1 MLOAD SWAP1 PUSH1 0x20 ADD SWAP1 DUP1 DUP4 DUP4 PUSH1 0x0 JUMPDEST DUP4 DUP2 LT ISZERO PUSH2 0x332C JUMPI DUP2 DUP2 ADD MLOAD DUP4 DUP3 ADD MSTORE PUSH1 0x20 ADD PUSH2 0x3314 JUMP JUMPDEST POP POP POP POP SWAP1 POP SWAP1 DUP2 ADD SWAP1 PUSH1 0x1F AND DUP1 ISZERO PUSH2 0x3359 JUMPI DUP1 DUP3 SUB DUP1 MLOAD PUSH1 0x1 DUP4 PUSH1 0x20 SUB PUSH2 0x100 EXP SUB NOT AND DUP2 MSTORE PUSH1 0x20 ADD SWAP2 POP JUMPDEST POP SWAP6 POP POP POP POP POP POP PUSH1 0x0 PUSH1 0x40 MLOAD DUP1 DUP4 SUB DUP2 PUSH1 0x0 DUP8 DUP1 EXTCODESIZE ISZERO DUP1 ISZERO PUSH2 0x337B JUMPI PUSH1 0x0 DUP1 REVERT JUMPDEST POP GAS CALL ISZERO DUP1 ISZERO PUSH2 0x338F JUMPI RETURNDATASIZE PUSH1 0x0 DUP1 RETURNDATACOPY RETURNDATASIZE PUSH1 0x0 REVERT JUMPDEST POP POP PUSH1 0x1 SWAP1 SWAP10 ADD SWAP9 POP PUSH2 0x3172 SWAP8 POP POP POP POP POP POP POP POP JUMP JUMPDEST POP POP POP POP JUMP JUMPDEST PUSH1 0x60 PUSH1 0x2 DUP3 MLOAD LT ISZERO PUSH2 0x3405 JUMPI PUSH1 0x40 DUP1 MLOAD PUSH3 0x461BCD PUSH1 0xE5 SHL DUP2 MSTORE PUSH1 0x20 PUSH1 0x4 DUP3 ADD MSTORE PUSH1 0x1B PUSH1 0x24 DUP3 ADD MSTORE PUSH32 0x4D696D6F56324C6962726172793A20494E56414C49445F504154480000000000 PUSH1 0x44 DUP3 ADD MSTORE SWAP1 MLOAD SWAP1 DUP2 SWAP1 SUB PUSH1 0x64 ADD SWAP1 REVERT JUMPDEST DUP2 MLOAD PUSH8 0xFFFFFFFFFFFFFFFF DUP2 GT DUP1 ISZERO PUSH2 0x341D JUMPI PUSH1 0x0 DUP1 REVERT JUMPDEST POP PUSH1 0x40 MLOAD SWAP1 DUP1 DUP3 MSTORE DUP1 PUSH1 0x20 MUL PUSH1 0x20 ADD DUP3 ADD PUSH1 0x40 MSTORE DUP1 ISZERO PUSH2 0x3447 JUMPI DUP2 PUSH1 0x20 ADD PUSH1 0x20 DUP3 MUL DUP1 CALLDATASIZE DUP4 CALLDATACOPY ADD SWAP1 POP JUMPDEST POP SWAP1 POP DUP3 DUP2 PUSH1 0x1 DUP4 MLOAD SUB DUP2 MLOAD DUP2 LT PUSH2 0x345B JUMPI INVALID JUMPDEST PUSH1 0x20 SWAP1 DUP2 MUL SWAP2 SWAP1 SWAP2 ADD ADD MSTORE DUP2 MLOAD PUSH1 0x0 NOT ADD JUMPDEST DUP1 ISZERO PUSH2 0x2F4B JUMPI PUSH1 0x0 DUP1 PUSH2 0x349D DUP8 DUP7 PUSH1 0x1 DUP7 SUB DUP2 MLOAD DUP2 LT PUSH2 0x3489 JUMPI INVALID JUMPDEST PUSH1 0x20 MUL PUSH1 0x20 ADD ADD MLOAD DUP8 DUP7 DUP2 MLOAD DUP2 LT PUSH2 0x2EF8 JUMPI INVALID JUMPDEST SWAP2 POP SWAP2 POP PUSH2 0x34BF DUP5 DUP5 DUP2 MLOAD DUP2 LT PUSH2 0x34B0 JUMPI INVALID JUMPDEST PUSH1 0x20 MUL PUSH1 0x20 ADD ADD MLOAD DUP4 DUP4 PUSH2 0x3836 JUMP JUMPDEST DUP5 PUSH1 0x1 DUP6 SUB DUP2 MLOAD DUP2 LT PUSH2 0x34CE JUMPI INVALID JUMPDEST PUSH1 0x20 SWAP1 DUP2 MUL SWAP2 SWAP1 SWAP2 ADD ADD MSTORE POP POP PUSH1 0x0 NOT ADD PUSH2 0x346D JUMP JUMPDEST PUSH1 0x0 JUMPDEST PUSH1 0x1 DUP4 MLOAD SUB DUP2 LT ISZERO PUSH2 0x2D2A JUMPI PUSH1 0x0 DUP1 DUP5 DUP4 DUP2 MLOAD DUP2 LT PUSH2 0x3502 JUMPI INVALID JUMPDEST PUSH1 0x20 MUL PUSH1 0x20 ADD ADD MLOAD DUP6 DUP5 PUSH1 0x1 ADD DUP2 MLOAD DUP2 LT PUSH2 0x3519 JUMPI INVALID JUMPDEST PUSH1 0x20 MUL PUSH1 0x20 ADD ADD MLOAD SWAP2 POP SWAP2 POP PUSH1 0x0 PUSH2 0x3531 DUP4 DUP4 PUSH2 0x39B4 JUMP JUMPDEST POP SWAP1 POP PUSH1 0x0 PUSH2 0x3561 PUSH32 0x0 DUP6 DUP6 PUSH2 0x2F53 JUMP JUMPDEST SWAP1 POP PUSH1 0x0 DUP1 PUSH1 0x0 DUP1 DUP5 PUSH1 0x1 PUSH1 0x1 PUSH1 0xA0 SHL SUB AND PUSH4 0x902F1AC PUSH1 0x40 MLOAD DUP2 PUSH4 0xFFFFFFFF AND PUSH1 0xE0 SHL DUP2 MSTORE PUSH1 0x4 ADD PUSH1 0x60 PUSH1 0x40 MLOAD DUP1 DUP4 SUB DUP2 DUP7 DUP1 EXTCODESIZE ISZERO DUP1 ISZERO PUSH2 0x35A2 JUMPI PUSH1 0x0 DUP1 REVERT JUMPDEST POP GAS STATICCALL ISZERO DUP1 ISZERO PUSH2 0x35B6 JUMPI RETURNDATASIZE PUSH1 0x0 DUP1 RETURNDATACOPY RETURNDATASIZE PUSH1 0x0 REVERT JUMPDEST POP POP POP POP PUSH1 0x40 MLOAD RETURNDATASIZE PUSH1 0x60 DUP2 LT ISZERO PUSH2 0x35CC JUMPI PUSH1 0x0 DUP1 REVERT JUMPDEST POP DUP1 MLOAD PUSH1 0x20 SWAP1 SWAP2 ADD MLOAD PUSH1 0x1 PUSH1 0x1 PUSH1 0x70 SHL SUB SWAP2 DUP3 AND SWAP4 POP AND SWAP1 POP PUSH1 0x0 DUP1 PUSH1 0x1 PUSH1 0x1 PUSH1 0xA0 SHL SUB DUP11 DUP2 AND SWAP1 DUP10 AND EQ PUSH2 0x3602 JUMPI DUP3 DUP5 PUSH2 0x3605 JUMP JUMPDEST DUP4 DUP4 JUMPDEST SWAP2 POP SWAP2 POP PUSH2 0x365A DUP3 DUP12 PUSH1 0x1 PUSH1 0x1 PUSH1 0xA0 SHL SUB AND PUSH4 0x70A08231 DUP11 PUSH1 0x40 MLOAD DUP3 PUSH4 0xFFFFFFFF AND PUSH1 0xE0 SHL DUP2 MSTORE PUSH1 0x4 ADD DUP1 DUP3 PUSH1 0x1 PUSH1 0x1 PUSH1 0xA0 SHL SUB AND DUP2 MSTORE PUSH1 0x20 ADD SWAP2 POP POP PUSH1 0x20 PUSH1 0x40 MLOAD DUP1 DUP4 SUB DUP2 DUP7 DUP1 EXTCODESIZE ISZERO DUP1 ISZERO PUSH2 0x147F JUMPI PUSH1 0x0 DUP1 REVERT JUMPDEST SWAP6 POP PUSH2 0x3667 DUP7 DUP4 DUP4 PUSH2 0x2D2F JUMP JUMPDEST SWAP5 POP POP POP POP POP PUSH1 0x0 DUP1 DUP6 PUSH1 0x1 PUSH1 0x1 PUSH1 0xA0 SHL SUB AND DUP9 PUSH1 0x1 PUSH1 0x1 PUSH1 0xA0 SHL SUB AND EQ PUSH2 0x3691 JUMPI DUP3 PUSH1 0x0 PUSH2 0x3695 JUMP JUMPDEST PUSH1 0x0 DUP4 JUMPDEST SWAP2 POP SWAP2 POP PUSH1 0x0 PUSH1 0x2 DUP13 MLOAD SUB DUP11 LT PUSH2 0x36AC JUMPI DUP11 PUSH2 0x36E0 JUMP JUMPDEST PUSH2 0x36E0 PUSH32 0x0 DUP10 DUP15 DUP14 PUSH1 0x2 ADD DUP2 MLOAD DUP2 LT PUSH2 0x324D JUMPI INVALID JUMPDEST PUSH1 0x40 DUP1 MLOAD PUSH1 0x0 DUP1 DUP3 MSTORE PUSH1 0x20 DUP3 ADD SWAP3 DUP4 SWAP1 MSTORE PUSH4 0x22C0D9F PUSH1 0xE0 SHL DUP4 MSTORE PUSH1 0x24 DUP3 ADD DUP8 DUP2 MSTORE PUSH1 0x44 DUP4 ADD DUP8 SWAP1 MSTORE PUSH1 0x1 PUSH1 0x1 PUSH1 0xA0 SHL SUB DUP1 DUP7 AND PUSH1 0x64 DUP6 ADD MSTORE PUSH1 0x80 PUSH1 0x84 DUP6 ADD SWAP1 DUP2 MSTORE DUP5 MLOAD PUSH1 0xA4 DUP7 ADD DUP2 SWAP1 MSTORE SWAP7 SWAP8 POP SWAP1 DUP13 AND SWAP6 PUSH4 0x22C0D9F SWAP6 DUP11 SWAP6 DUP11 SWAP6 DUP11 SWAP6 SWAP2 SWAP5 SWAP2 SWAP4 SWAP2 SWAP3 PUSH1 0xC4 DUP7 ADD SWAP3 SWAP1 SWAP2 DUP2 SWAP1 DUP5 SWAP1 DUP5 SWAP1 JUMPDEST DUP4 DUP2 LT ISZERO PUSH2 0x376A JUMPI DUP2 DUP2 ADD MLOAD DUP4 DUP3 ADD MSTORE PUSH1 0x20 ADD PUSH2 0x3752 JUMP JUMPDEST POP POP POP POP SWAP1 POP SWAP1 DUP2 ADD SWAP1 PUSH1 0x1F AND DUP1 ISZERO PUSH2 0x3797 JUMPI DUP1 DUP3 SUB DUP1 MLOAD PUSH1 0x1 DUP4 PUSH1 0x20 SUB PUSH2 0x100 EXP SUB NOT AND DUP2 MSTORE PUSH1 0x20 ADD SWAP2 POP JUMPDEST POP SWAP6 POP POP POP POP POP POP PUSH1 0x0 PUSH1 0x40 MLOAD DUP1 DUP4 SUB DUP2 PUSH1 0x0 DUP8 DUP1 EXTCODESIZE ISZERO DUP1 ISZERO PUSH2 0x37B9 JUMPI PUSH1 0x0 DUP1 REVERT JUMPDEST POP GAS CALL ISZERO DUP1 ISZERO PUSH2 0x37CD JUMPI RETURNDATASIZE PUSH1 0x0 DUP1 RETURNDATACOPY RETURNDATASIZE PUSH1 0x0 REVERT JUMPDEST POP POP PUSH1 0x1 SWAP1 SWAP12 ADD SWAP11 POP PUSH2 0x34E7 SWAP10 POP POP POP POP POP POP POP POP POP POP JUMP JUMPDEST DUP1 DUP3 SUB DUP3 DUP2 GT ISZERO PUSH2 0xF9E JUMPI PUSH1 0x40 DUP1 MLOAD PUSH3 0x461BCD PUSH1 0xE5 SHL DUP2 MSTORE PUSH1 0x20 PUSH1 0x4 DUP3 ADD MSTORE PUSH1 0x15 PUSH1 0x24 DUP3 ADD MSTORE PUSH21 0x64732D6D6174682D7375622D756E646572666C6F77 PUSH1 0x58 SHL PUSH1 0x44 DUP3 ADD MSTORE SWAP1 MLOAD SWAP1 DUP2 SWAP1 SUB PUSH1 0x64 ADD SWAP1 REVERT JUMPDEST PUSH1 0x0 DUP1 DUP5 GT PUSH2 0x3876 JUMPI PUSH1 0x40 MLOAD PUSH3 0x461BCD PUSH1 0xE5 SHL DUP2 MSTORE PUSH1 0x4 ADD DUP1 DUP1 PUSH1 0x20 ADD DUP3 DUP2 SUB DUP3 MSTORE PUSH1 0x29 DUP2 MSTORE PUSH1 0x20 ADD DUP1 PUSH2 0x4047 PUSH1 0x29 SWAP2 CODECOPY PUSH1 0x40 ADD SWAP2 POP POP PUSH1 0x40 MLOAD DUP1 SWAP2 SUB SWAP1 REVERT JUMPDEST PUSH1 0x0 DUP4 GT DUP1 ISZERO PUSH2 0x3886 JUMPI POP PUSH1 0x0 DUP3 GT JUMPDEST PUSH2 0x38C1 JUMPI PUSH1 0x40 MLOAD PUSH3 0x461BCD PUSH1 0xE5 SHL DUP2 MSTORE PUSH1 0x4 ADD DUP1 DUP1 PUSH1 0x20 ADD DUP3 DUP2 SUB DUP3 MSTORE PUSH1 0x25 DUP2 MSTORE PUSH1 0x20 ADD DUP1 PUSH2 0x3EBD PUSH1 0x25 SWAP2 CODECOPY PUSH1 0x40 ADD SWAP2 POP POP PUSH1 0x40 MLOAD DUP1 SWAP2 SUB SWAP1 REVERT JUMPDEST PUSH1 0x0 PUSH2 0x38D9 PUSH2 0x3E8 PUSH2 0x38D3 DUP7 DUP9 PUSH2 0x3D23 JUMP JUMPDEST SWAP1 PUSH2 0x3D23 JUMP JUMPDEST SWAP1 POP PUSH1 0x0 PUSH2 0x38ED PUSH2 0x3E5 PUSH2 0x38D3 DUP7 DUP10 PUSH2 0x37E6 JUMP JUMPDEST SWAP1 POP PUSH2 0x3904 PUSH1 0x1 DUP3 DUP5 DUP2 PUSH2 0x38FD JUMPI INVALID JUMPDEST DIV SWAP1 PUSH2 0x3D86 JUMP JUMPDEST SWAP7 SWAP6 POP POP POP POP POP POP JUMP JUMPDEST PUSH1 0x0 DUP1 DUP5 GT PUSH2 0x394E JUMPI PUSH1 0x40 MLOAD PUSH3 0x461BCD PUSH1 0xE5 SHL DUP2 MSTORE PUSH1 0x4 ADD DUP1 DUP1 PUSH1 0x20 ADD DUP3 DUP2 SUB DUP3 MSTORE PUSH1 0x22 DUP2 MSTORE PUSH1 0x20 ADD DUP1 PUSH2 0x3F02 PUSH1 0x22 SWAP2 CODECOPY PUSH1 0x40 ADD SWAP2 POP POP PUSH1 0x40 MLOAD DUP1 SWAP2 SUB SWAP1 REVERT JUMPDEST PUSH1 0x0 DUP4 GT DUP1 ISZERO PUSH2 0x395E JUMPI POP PUSH1 0x0 DUP3 GT JUMPDEST PUSH2 0x3999 JUMPI PUSH1 0x40 MLOAD PUSH3 0x461BCD PUSH1 0xE5 SHL DUP2 MSTORE PUSH1 0x4 ADD DUP1 DUP1 PUSH1 0x20 ADD DUP3 DUP2 SUB DUP3 MSTORE PUSH1 0x25 DUP2 MSTORE PUSH1 0x20 ADD DUP1 PUSH2 0x3EBD PUSH1 0x25 SWAP2 CODECOPY PUSH1 0x40 ADD SWAP2 POP POP PUSH1 0x40 MLOAD DUP1 SWAP2 SUB SWAP1 REVERT JUMPDEST DUP3 PUSH2 0x39A4 DUP6 DUP5 PUSH2 0x3D23 JUMP JUMPDEST DUP2 PUSH2 0x39AB JUMPI INVALID JUMPDEST DIV SWAP5 SWAP4 POP POP POP POP JUMP JUMPDEST PUSH1 0x0 DUP1 DUP3 PUSH1 0x1 PUSH1 0x1 PUSH1 0xA0 SHL SUB AND DUP5 PUSH1 0x1 PUSH1 0x1 PUSH1 0xA0 SHL SUB AND EQ ISZERO PUSH2 0x3A08 JUMPI PUSH1 0x40 MLOAD PUSH3 0x461BCD PUSH1 0xE5 SHL DUP2 MSTORE PUSH1 0x4 ADD DUP1 DUP1 PUSH1 0x20 ADD DUP3 DUP2 SUB DUP3 MSTORE PUSH1 0x22 DUP2 MSTORE PUSH1 0x20 ADD DUP1 PUSH2 0x3F93 PUSH1 0x22 SWAP2 CODECOPY PUSH1 0x40 ADD SWAP2 POP POP PUSH1 0x40 MLOAD DUP1 SWAP2 SUB SWAP1 REVERT JUMPDEST DUP3 PUSH1 0x1 PUSH1 0x1 PUSH1 0xA0 SHL SUB AND DUP5 PUSH1 0x1 PUSH1 0x1 PUSH1 0xA0 SHL SUB AND LT PUSH2 0x3A28 JUMPI DUP3 DUP5 PUSH2 0x3A2B JUMP JUMPDEST DUP4 DUP4 JUMPDEST SWAP1 SWAP3 POP SWAP1 POP PUSH1 0x1 PUSH1 0x1 PUSH1 0xA0 SHL SUB DUP3 AND PUSH2 0x3A8B JUMPI PUSH1 0x40 DUP1 MLOAD PUSH3 0x461BCD PUSH1 0xE5 SHL DUP2 MSTORE PUSH1 0x20 PUSH1 0x4 DUP3 ADD MSTORE PUSH1 0x1B PUSH1 0x24 DUP3 ADD MSTORE PUSH32 0x4D696D6F56324C6962726172793A205A45524F5F414444524553530000000000 PUSH1 0x44 DUP3 ADD MSTORE SWAP1 MLOAD SWAP1 DUP2 SWAP1 SUB PUSH1 0x64 ADD SWAP1 REVERT JUMPDEST SWAP3 POP SWAP3 SWAP1 POP JUMP JUMPDEST PUSH1 0x0 DUP1 PUSH1 0x0 PUSH1 0x1 PUSH1 0x1 PUSH1 0xA0 SHL SUB AND PUSH32 0x0 PUSH1 0x1 PUSH1 0x1 PUSH1 0xA0 SHL SUB AND PUSH4 0xE6A43905 DUP11 DUP11 PUSH1 0x40 MLOAD DUP4 PUSH4 0xFFFFFFFF AND PUSH1 0xE0 SHL DUP2 MSTORE PUSH1 0x4 ADD DUP1 DUP4 PUSH1 0x1 PUSH1 0x1 PUSH1 0xA0 SHL SUB AND DUP2 MSTORE PUSH1 0x20 ADD DUP3 PUSH1 0x1 PUSH1 0x1 PUSH1 0xA0 SHL SUB AND DUP2 MSTORE PUSH1 0x20 ADD SWAP3 POP POP POP PUSH1 0x20 PUSH1 0x40 MLOAD DUP1 DUP4 SUB DUP2 DUP7 DUP1 EXTCODESIZE ISZERO DUP1 ISZERO PUSH2 0x3B1E JUMPI PUSH1 0x0 DUP1 REVERT JUMPDEST POP GAS STATICCALL ISZERO DUP1 ISZERO PUSH2 0x3B32 JUMPI RETURNDATASIZE PUSH1 0x0 DUP1 RETURNDATACOPY RETURNDATASIZE PUSH1 0x0 REVERT JUMPDEST POP POP POP POP PUSH1 0x40 MLOAD RETURNDATASIZE PUSH1 0x20 DUP2 LT ISZERO PUSH2 0x3B48 JUMPI PUSH1 0x0 DUP1 REVERT JUMPDEST POP MLOAD PUSH1 0x1 PUSH1 0x1 PUSH1 0xA0 SHL SUB AND EQ ISZERO PUSH2 0x3C06 JUMPI PUSH32 0x0 PUSH1 0x1 PUSH1 0x1 PUSH1 0xA0 SHL SUB AND PUSH4 0xC9C65396 DUP10 DUP10 PUSH1 0x40 MLOAD DUP4 PUSH4 0xFFFFFFFF AND PUSH1 0xE0 SHL DUP2 MSTORE PUSH1 0x4 ADD DUP1 DUP4 PUSH1 0x1 PUSH1 0x1 PUSH1 0xA0 SHL SUB AND DUP2 MSTORE PUSH1 0x20 ADD DUP3 PUSH1 0x1 PUSH1 0x1 PUSH1 0xA0 SHL SUB AND DUP2 MSTORE PUSH1 0x20 ADD SWAP3 POP POP POP PUSH1 0x20 PUSH1 0x40 MLOAD DUP1 DUP4 SUB DUP2 PUSH1 0x0 DUP8 DUP1 EXTCODESIZE ISZERO DUP1 ISZERO PUSH2 0x3BD9 JUMPI PUSH1 0x0 DUP1 REVERT JUMPDEST POP GAS CALL ISZERO DUP1 ISZERO PUSH2 0x3BED JUMPI RETURNDATASIZE PUSH1 0x0 DUP1 RETURNDATACOPY RETURNDATASIZE PUSH1 0x0 REVERT JUMPDEST POP POP POP POP PUSH1 0x40 MLOAD RETURNDATASIZE PUSH1 0x20 DUP2 LT ISZERO PUSH2 0x3C03 JUMPI PUSH1 0x0 DUP1 REVERT JUMPDEST POP POP JUMPDEST PUSH1 0x0 DUP1 PUSH2 0x3C34 PUSH32 0x0 DUP12 DUP12 PUSH2 0x3DD5 JUMP JUMPDEST SWAP2 POP SWAP2 POP DUP2 PUSH1 0x0 EQ DUP1 ISZERO PUSH2 0x3C46 JUMPI POP DUP1 ISZERO JUMPDEST ISZERO PUSH2 0x3C56 JUMPI DUP8 SWAP4 POP DUP7 SWAP3 POP PUSH2 0x3D16 JUMP JUMPDEST PUSH1 0x0 PUSH2 0x3C63 DUP10 DUP5 DUP5 PUSH2 0x390E JUMP JUMPDEST SWAP1 POP DUP8 DUP2 GT PUSH2 0x3CB6 JUMPI DUP6 DUP2 LT ISZERO PUSH2 0x3CAB JUMPI PUSH1 0x40 MLOAD PUSH3 0x461BCD PUSH1 0xE5 SHL DUP2 MSTORE PUSH1 0x4 ADD DUP1 DUP1 PUSH1 0x20 ADD DUP3 DUP2 SUB DUP3 MSTORE PUSH1 0x23 DUP2 MSTORE PUSH1 0x20 ADD DUP1 PUSH2 0x3F24 PUSH1 0x23 SWAP2 CODECOPY PUSH1 0x40 ADD SWAP2 POP POP PUSH1 0x40 MLOAD DUP1 SWAP2 SUB SWAP1 REVERT JUMPDEST DUP9 SWAP5 POP SWAP3 POP DUP3 PUSH2 0x3D14 JUMP JUMPDEST PUSH1 0x0 PUSH2 0x3CC3 DUP10 DUP5 DUP7 PUSH2 0x390E JUMP JUMPDEST SWAP1 POP DUP10 DUP2 GT ISZERO PUSH2 0x3CCF JUMPI INVALID JUMPDEST DUP8 DUP2 LT ISZERO PUSH2 0x3D0E JUMPI PUSH1 0x40 MLOAD PUSH3 0x461BCD PUSH1 0xE5 SHL DUP2 MSTORE PUSH1 0x4 ADD DUP1 DUP1 PUSH1 0x20 ADD DUP3 DUP2 SUB DUP3 MSTORE PUSH1 0x23 DUP2 MSTORE PUSH1 0x20 ADD DUP1 PUSH2 0x4000 PUSH1 0x23 SWAP2 CODECOPY PUSH1 0x40 ADD SWAP2 POP POP PUSH1 0x40 MLOAD DUP1 SWAP2 SUB SWAP1 REVERT JUMPDEST SWAP5 POP DUP8 SWAP4 POP JUMPDEST POP JUMPDEST POP POP SWAP7 POP SWAP7 SWAP5 POP POP POP POP POP JUMP JUMPDEST PUSH1 0x0 DUP2 ISZERO DUP1 PUSH2 0x3D3E JUMPI POP POP DUP1 DUP3 MUL DUP3 DUP3 DUP3 DUP2 PUSH2 0x3D3B JUMPI INVALID JUMPDEST DIV EQ JUMPDEST PUSH2 0xF9E JUMPI PUSH1 0x40 DUP1 MLOAD PUSH3 0x461BCD PUSH1 0xE5 SHL DUP2 MSTORE PUSH1 0x20 PUSH1 0x4 DUP3 ADD MSTORE PUSH1 0x14 PUSH1 0x24 DUP3 ADD MSTORE PUSH20 0x64732D6D6174682D6D756C2D6F766572666C6F77 PUSH1 0x60 SHL PUSH1 0x44 DUP3 ADD MSTORE SWAP1 MLOAD SWAP1 DUP2 SWAP1 SUB PUSH1 0x64 ADD SWAP1 REVERT JUMPDEST DUP1 DUP3 ADD DUP3 DUP2 LT ISZERO PUSH2 0xF9E JUMPI PUSH1 0x40 DUP1 MLOAD PUSH3 0x461BCD PUSH1 0xE5 SHL DUP2 MSTORE PUSH1 0x20 PUSH1 0x4 DUP3 ADD MSTORE PUSH1 0x14 PUSH1 0x24 DUP3 ADD MSTORE PUSH20 0x64732D6D6174682D6164642D6F766572666C6F77 PUSH1 0x60 SHL PUSH1 0x44 DUP3 ADD MSTORE SWAP1 MLOAD SWAP1 DUP2 SWAP1 SUB PUSH1 0x64 ADD SWAP1 REVERT JUMPDEST PUSH1 0x0 DUP1 PUSH1 0x0 PUSH2 0x3DE4 DUP6 DUP6 PUSH2 0x39B4 JUMP JUMPDEST POP SWAP1 POP PUSH1 0x0 DUP1 PUSH2 0x3DF5 DUP9 DUP9 DUP9 PUSH2 0x2F53 JUMP JUMPDEST PUSH1 0x1 PUSH1 0x1 PUSH1 0xA0 SHL SUB AND PUSH4 0x902F1AC PUSH1 0x40 MLOAD DUP2 PUSH4 0xFFFFFFFF AND PUSH1 0xE0 SHL DUP2 MSTORE PUSH1 0x4 ADD PUSH1 0x60 PUSH1 0x40 MLOAD DUP1 DUP4 SUB DUP2 DUP7 DUP1 EXTCODESIZE ISZERO DUP1 ISZERO PUSH2 0x3E2D JUMPI PUSH1 0x0 DUP1 REVERT JUMPDEST POP GAS STATICCALL ISZERO DUP1 ISZERO PUSH2 0x3E41 JUMPI RETURNDATASIZE PUSH1 0x0 DUP1 RETURNDATACOPY RETURNDATASIZE PUSH1 0x0 REVERT JUMPDEST POP POP POP POP PUSH1 0x40 MLOAD RETURNDATASIZE PUSH1 0x60 DUP2 LT ISZERO PUSH2 0x3E57 JUMPI PUSH1 0x0 DUP1 REVERT JUMPDEST POP DUP1 MLOAD PUSH1 0x20 SWAP1 SWAP2 ADD MLOAD PUSH1 0x1 PUSH1 0x1 PUSH1 0x70 SHL SUB SWAP2 DUP3 AND SWAP4 POP AND SWAP1 POP PUSH1 0x1 PUSH1 0x1 PUSH1 0xA0 SHL SUB DUP8 DUP2 AND SWAP1 DUP5 AND EQ PUSH2 0x3E8A JUMPI DUP1 DUP3 PUSH2 0x3E8D JUMP JUMPDEST DUP2 DUP2 JUMPDEST SWAP1 SWAP10 SWAP1 SWAP9 POP SWAP7 POP POP POP POP POP POP POP JUMP INVALID 0x4D PUSH10 0x6D6F5632526F75746572 GASPRICE KECCAK256 GASLIMIT PC POP 0x49 MSTORE GASLIMIT DIFFICULTY STOP STOP STOP STOP STOP STOP STOP STOP STOP STOP STOP 0x4D PUSH10 0x6D6F56324C6962726172 PUSH26 0x3A20494E53554646494349454E545F4C49515549444954594D69 PUSH14 0x6F5632526F757465723A20494E56 COINBASE 0x4C 0x49 DIFFICULTY 0x5F POP COINBASE SLOAD 0x48 STOP STOP STOP STOP STOP STOP 0x4D PUSH10 0x6D6F56324C6962726172 PUSH26 0x3A20494E53554646494349454E545F414D4F554E544D696D6F56 ORIGIN MSTORE PUSH16 0x757465723A20494E5355464649434945 0x4E SLOAD 0x5F TIMESTAMP 0x5F COINBASE 0x4D 0x4F SSTORE 0x4E SLOAD 0x4D PUSH10 0x6D6F56324C6962726172 PUSH26 0x3A20494E53554646494349454E545F494E5055545F414D4F554E SLOAD 0x4D PUSH10 0x6D6F5632526F75746572 GASPRICE KECCAK256 GASLIMIT PC NUMBER GASLIMIT MSTORE8 MSTORE8 0x49 JUMP GASLIMIT 0x5F 0x49 0x4E POP SSTORE SLOAD 0x5F COINBASE 0x4D 0x4F SSTORE 0x4E SLOAD 0x4D PUSH10 0x6D6F56324C6962726172 PUSH26 0x3A204944454E544943414C5F4144445245535345535472616E73 PUSH7 0x657248656C7065 PUSH19 0x3A204554485F5452414E534645525F4641494C GASLIMIT DIFFICULTY 0x4D PUSH10 0x6D6F5632526F75746572 GASPRICE KECCAK256 0x49 0x4E MSTORE8 SSTORE CHAINID CHAINID 0x49 NUMBER 0x49 GASLIMIT 0x4E SLOAD 0x5F 0x4F SSTORE SLOAD POP SSTORE SLOAD 0x5F COINBASE 0x4D 0x4F SSTORE 0x4E SLOAD 0x4D PUSH10 0x6D6F5632526F75746572 GASPRICE KECCAK256 0x49 0x4E MSTORE8 SSTORE CHAINID CHAINID 0x49 NUMBER 0x49 GASLIMIT 0x4E SLOAD 0x5F COINBASE 0x5F COINBASE 0x4D 0x4F SSTORE 0x4E SLOAD SLOAD PUSH19 0x616E7366657248656C7065723A205452414E53 CHAINID GASLIMIT MSTORE 0x5F CHAINID MSTORE 0x4F 0x4D 0x5F CHAINID COINBASE 0x49 0x4C GASLIMIT DIFFICULTY 0x4D PUSH10 0x6D6F56324C6962726172 PUSH26 0x3A20494E53554646494349454E545F4F55545055545F414D4F55 0x4E SLOAD LOG2 PUSH5 0x6970667358 0x22 SLT KECCAK256 DUP3 DUP11 CALLER BYTE EQ 0xAF 0x49 0xF 0x49 PUSH26 0x27F3D3886726D91A0FD99020AA94D43AB7C57DE5719264736F6C PUSH4 0x4300060C STOP CALLER "
    }
  },
  "interface": [
    {
      "inputs": [
        {
          "internalType": "address",
          "name": "_factory",
          "type": "address"
        },
        {
          "internalType": "address",
          "name": "_WETH",
          "type": "address"
        }
      ],
      "stateMutability": "nonpayable",
      "type": "constructor"
    },
    {
      "inputs": [],
      "name": "WETH",
      "outputs": [
        {
          "internalType": "address",
          "name": "",
          "type": "address"
        }
      ],
      "stateMutability": "view",
      "type": "function"
    },
    {
      "inputs": [
        {
          "internalType": "address",
          "name": "tokenA",
          "type": "address"
        },
        {
          "internalType": "address",
          "name": "tokenB",
          "type": "address"
        },
        {
          "internalType": "uint256",
          "name": "amountADesired",
          "type": "uint256"
        },
        {
          "internalType": "uint256",
          "name": "amountBDesired",
          "type": "uint256"
        },
        {
          "internalType": "uint256",
          "name": "amountAMin",
          "type": "uint256"
        },
        {
          "internalType": "uint256",
          "name": "amountBMin",
          "type": "uint256"
        },
        {
          "internalType": "address",
          "name": "to",
          "type": "address"
        },
        {
          "internalType": "uint256",
          "name": "deadline",
          "type": "uint256"
        }
      ],
      "name": "addLiquidity",
      "outputs": [
        {
          "internalType": "uint256",
          "name": "amountA",
          "type": "uint256"
        },
        {
          "internalType": "uint256",
          "name": "amountB",
          "type": "uint256"
        },
        {
          "internalType": "uint256",
          "name": "liquidity",
          "type": "uint256"
        }
      ],
      "stateMutability": "nonpayable",
      "type": "function"
    },
    {
      "inputs": [
        {
          "internalType": "address",
          "name": "token",
          "type": "address"
        },
        {
          "internalType": "uint256",
          "name": "amountTokenDesired",
          "type": "uint256"
        },
        {
          "internalType": "uint256",
          "name": "amountTokenMin",
          "type": "uint256"
        },
        {
          "internalType": "uint256",
          "name": "amountETHMin",
          "type": "uint256"
        },
        {
          "internalType": "address",
          "name": "to",
          "type": "address"
        },
        {
          "internalType": "uint256",
          "name": "deadline",
          "type": "uint256"
        }
      ],
      "name": "addLiquidityETH",
      "outputs": [
        {
          "internalType": "uint256",
          "name": "amountToken",
          "type": "uint256"
        },
        {
          "internalType": "uint256",
          "name": "amountETH",
          "type": "uint256"
        },
        {
          "internalType": "uint256",
          "name": "liquidity",
          "type": "uint256"
        }
      ],
      "stateMutability": "payable",
      "type": "function"
    },
    {
      "inputs": [],
      "name": "factory",
      "outputs": [
        {
          "internalType": "address",
          "name": "",
          "type": "address"
        }
      ],
      "stateMutability": "view",
      "type": "function"
    },
    {
      "inputs": [
        {
          "internalType": "uint256",
          "name": "amountOut",
          "type": "uint256"
        },
        {
          "internalType": "uint256",
          "name": "reserveIn",
          "type": "uint256"
        },
        {
          "internalType": "uint256",
          "name": "reserveOut",
          "type": "uint256"
        }
      ],
      "name": "getAmountIn",
      "outputs": [
        {
          "internalType": "uint256",
          "name": "amountIn",
          "type": "uint256"
        }
      ],
      "stateMutability": "pure",
      "type": "function"
    },
    {
      "inputs": [
        {
          "internalType": "uint256",
          "name": "amountIn",
          "type": "uint256"
        },
        {
          "internalType": "uint256",
          "name": "reserveIn",
          "type": "uint256"
        },
        {
          "internalType": "uint256",
          "name": "reserveOut",
          "type": "uint256"
        }
      ],
      "name": "getAmountOut",
      "outputs": [
        {
          "internalType": "uint256",
          "name": "amountOut",
          "type": "uint256"
        }
      ],
      "stateMutability": "pure",
      "type": "function"
    },
    {
      "inputs": [
        {
          "internalType": "uint256",
          "name": "amountOut",
          "type": "uint256"
        },
        {
          "internalType": "address[]",
          "name": "path",
          "type": "address[]"
        }
      ],
      "name": "getAmountsIn",
      "outputs": [
        {
          "internalType": "uint256[]",
          "name": "amounts",
          "type": "uint256[]"
        }
      ],
      "stateMutability": "view",
      "type": "function"
    },
    {
      "inputs": [
        {
          "internalType": "uint256",
          "name": "amountIn",
          "type": "uint256"
        },
        {
          "internalType": "address[]",
          "name": "path",
          "type": "address[]"
        }
      ],
      "name": "getAmountsOut",
      "outputs": [
        {
          "internalType": "uint256[]",
          "name": "amounts",
          "type": "uint256[]"
        }
      ],
      "stateMutability": "view",
      "type": "function"
    },
    {
      "inputs": [
        {
          "internalType": "uint256",
          "name": "amountA",
          "type": "uint256"
        },
        {
          "internalType": "uint256",
          "name": "reserveA",
          "type": "uint256"
        },
        {
          "internalType": "uint256",
          "name": "reserveB",
          "type": "uint256"
        }
      ],
      "name": "quote",
      "outputs": [
        {
          "internalType": "uint256",
          "name": "amountB",
          "type": "uint256"
        }
      ],
      "stateMutability": "pure",
      "type": "function"
    },
    {
      "inputs": [
        {
          "internalType": "address",
          "name": "tokenA",
          "type": "address"
        },
        {
          "internalType": "address",
          "name": "tokenB",
          "type": "address"
        },
        {
          "internalType": "uint256",
          "name": "liquidity",
          "type": "uint256"
        },
        {
          "internalType": "uint256",
          "name": "amountAMin",
          "type": "uint256"
        },
        {
          "internalType": "uint256",
          "name": "amountBMin",
          "type": "uint256"
        },
        {
          "internalType": "address",
          "name": "to",
          "type": "address"
        },
        {
          "internalType": "uint256",
          "name": "deadline",
          "type": "uint256"
        }
      ],
      "name": "removeLiquidity",
      "outputs": [
        {
          "internalType": "uint256",
          "name": "amountA",
          "type": "uint256"
        },
        {
          "internalType": "uint256",
          "name": "amountB",
          "type": "uint256"
        }
      ],
      "stateMutability": "nonpayable",
      "type": "function"
    },
    {
      "inputs": [
        {
          "internalType": "address",
          "name": "token",
          "type": "address"
        },
        {
          "internalType": "uint256",
          "name": "liquidity",
          "type": "uint256"
        },
        {
          "internalType": "uint256",
          "name": "amountTokenMin",
          "type": "uint256"
        },
        {
          "internalType": "uint256",
          "name": "amountETHMin",
          "type": "uint256"
        },
        {
          "internalType": "address",
          "name": "to",
          "type": "address"
        },
        {
          "internalType": "uint256",
          "name": "deadline",
          "type": "uint256"
        }
      ],
      "name": "removeLiquidityETH",
      "outputs": [
        {
          "internalType": "uint256",
          "name": "amountToken",
          "type": "uint256"
        },
        {
          "internalType": "uint256",
          "name": "amountETH",
          "type": "uint256"
        }
      ],
      "stateMutability": "nonpayable",
      "type": "function"
    },
    {
      "inputs": [
        {
          "internalType": "address",
          "name": "token",
          "type": "address"
        },
        {
          "internalType": "uint256",
          "name": "liquidity",
          "type": "uint256"
        },
        {
          "internalType": "uint256",
          "name": "amountTokenMin",
          "type": "uint256"
        },
        {
          "internalType": "uint256",
          "name": "amountETHMin",
          "type": "uint256"
        },
        {
          "internalType": "address",
          "name": "to",
          "type": "address"
        },
        {
          "internalType": "uint256",
          "name": "deadline",
          "type": "uint256"
        }
      ],
      "name": "removeLiquidityETHSupportingFeeOnTransferTokens",
      "outputs": [
        {
          "internalType": "uint256",
          "name": "amountETH",
          "type": "uint256"
        }
      ],
      "stateMutability": "nonpayable",
      "type": "function"
    },
    {
      "inputs": [
        {
          "internalType": "uint256",
          "name": "amountOut",
          "type": "uint256"
        },
        {
          "internalType": "address[]",
          "name": "path",
          "type": "address[]"
        },
        {
          "internalType": "address",
          "name": "to",
          "type": "address"
        },
        {
          "internalType": "uint256",
          "name": "deadline",
          "type": "uint256"
        }
      ],
      "name": "swapETHForExactTokens",
      "outputs": [
        {
          "internalType": "uint256[]",
          "name": "amounts",
          "type": "uint256[]"
        }
      ],
      "stateMutability": "payable",
      "type": "function"
    },
    {
      "inputs": [
        {
          "internalType": "uint256",
          "name": "amountOutMin",
          "type": "uint256"
        },
        {
          "internalType": "address[]",
          "name": "path",
          "type": "address[]"
        },
        {
          "internalType": "address",
          "name": "to",
          "type": "address"
        },
        {
          "internalType": "uint256",
          "name": "deadline",
          "type": "uint256"
        }
      ],
      "name": "swapExactETHForTokens",
      "outputs": [
        {
          "internalType": "uint256[]",
          "name": "amounts",
          "type": "uint256[]"
        }
      ],
      "stateMutability": "payable",
      "type": "function"
    },
    {
      "inputs": [
        {
          "internalType": "uint256",
          "name": "amountOutMin",
          "type": "uint256"
        },
        {
          "internalType": "address[]",
          "name": "path",
          "type": "address[]"
        },
        {
          "internalType": "address",
          "name": "to",
          "type": "address"
        },
        {
          "internalType": "uint256",
          "name": "deadline",
          "type": "uint256"
        }
      ],
      "name": "swapExactETHForTokensSupportingFeeOnTransferTokens",
      "outputs": [],
      "stateMutability": "payable",
      "type": "function"
    },
    {
      "inputs": [
        {
          "internalType": "uint256",
          "name": "amountIn",
          "type": "uint256"
        },
        {
          "internalType": "uint256",
          "name": "amountOutMin",
          "type": "uint256"
        },
        {
          "internalType": "address[]",
          "name": "path",
          "type": "address[]"
        },
        {
          "internalType": "address",
          "name": "to",
          "type": "address"
        },
        {
          "internalType": "uint256",
          "name": "deadline",
          "type": "uint256"
        }
      ],
      "name": "swapExactTokensForETH",
      "outputs": [
        {
          "internalType": "uint256[]",
          "name": "amounts",
          "type": "uint256[]"
        }
      ],
      "stateMutability": "nonpayable",
      "type": "function"
    },
    {
      "inputs": [
        {
          "internalType": "uint256",
          "name": "amountIn",
          "type": "uint256"
        },
        {
          "internalType": "uint256",
          "name": "amountOutMin",
          "type": "uint256"
        },
        {
          "internalType": "address[]",
          "name": "path",
          "type": "address[]"
        },
        {
          "internalType": "address",
          "name": "to",
          "type": "address"
        },
        {
          "internalType": "uint256",
          "name": "deadline",
          "type": "uint256"
        }
      ],
      "name": "swapExactTokensForETHSupportingFeeOnTransferTokens",
      "outputs": [],
      "stateMutability": "nonpayable",
      "type": "function"
    },
    {
      "inputs": [
        {
          "internalType": "uint256",
          "name": "amountIn",
          "type": "uint256"
        },
        {
          "internalType": "uint256",
          "name": "amountOutMin",
          "type": "uint256"
        },
        {
          "internalType": "address[]",
          "name": "path",
          "type": "address[]"
        },
        {
          "internalType": "address",
          "name": "to",
          "type": "address"
        },
        {
          "internalType": "uint256",
          "name": "deadline",
          "type": "uint256"
        }
      ],
      "name": "swapExactTokensForTokens",
      "outputs": [
        {
          "internalType": "uint256[]",
          "name": "amounts",
          "type": "uint256[]"
        }
      ],
      "stateMutability": "nonpayable",
      "type": "function"
    },
    {
      "inputs": [
        {
          "internalType": "uint256",
          "name": "amountIn",
          "type": "uint256"
        },
        {
          "internalType": "uint256",
          "name": "amountOutMin",
          "type": "uint256"
        },
        {
          "internalType": "address[]",
          "name": "path",
          "type": "address[]"
        },
        {
          "internalType": "address",
          "name": "to",
          "type": "address"
        },
        {
          "internalType": "uint256",
          "name": "deadline",
          "type": "uint256"
        }
      ],
      "name": "swapExactTokensForTokensSupportingFeeOnTransferTokens",
      "outputs": [],
      "stateMutability": "nonpayable",
      "type": "function"
    },
    {
      "inputs": [
        {
          "internalType": "uint256",
          "name": "amountOut",
          "type": "uint256"
        },
        {
          "internalType": "uint256",
          "name": "amountInMax",
          "type": "uint256"
        },
        {
          "internalType": "address[]",
          "name": "path",
          "type": "address[]"
        },
        {
          "internalType": "address",
          "name": "to",
          "type": "address"
        },
        {
          "internalType": "uint256",
          "name": "deadline",
          "type": "uint256"
        }
      ],
      "name": "swapTokensForExactETH",
      "outputs": [
        {
          "internalType": "uint256[]",
          "name": "amounts",
          "type": "uint256[]"
        }
      ],
      "stateMutability": "nonpayable",
      "type": "function"
    },
    {
      "inputs": [
        {
          "internalType": "uint256",
          "name": "amountOut",
          "type": "uint256"
        },
        {
          "internalType": "uint256",
          "name": "amountInMax",
          "type": "uint256"
        },
        {
          "internalType": "address[]",
          "name": "path",
          "type": "address[]"
        },
        {
          "internalType": "address",
          "name": "to",
          "type": "address"
        },
        {
          "internalType": "uint256",
          "name": "deadline",
          "type": "uint256"
        }
      ],
      "name": "swapTokensForExactTokens",
      "outputs": [
        {
          "internalType": "uint256[]",
          "name": "amounts",
          "type": "uint256[]"
        }
      ],
      "stateMutability": "nonpayable",
      "type": "function"
    },
    {
      "stateMutability": "payable",
      "type": "receive"
    }
  ]
}